{
  "contractName": "Land",
  "abi": [
    {
      "inputs": [],
      "stateMutability": "nonpayable",
      "type": "constructor"
    },
    {
      "inputs": [
        {
          "internalType": "address",
          "name": "",
          "type": "address"
        }
      ],
      "name": "GovtOfficial",
      "outputs": [
        {
          "internalType": "address",
          "name": "id",
          "type": "address"
        },
        {
          "internalType": "string",
          "name": "name",
          "type": "string"
        },
        {
          "internalType": "string",
          "name": "email",
          "type": "string"
        },
        {
          "internalType": "bool",
          "name": "isMember",
          "type": "bool"
        },
        {
          "internalType": "bool",
          "name": "isOfficial",
          "type": "bool"
        },
        {
          "internalType": "string",
          "name": "govtId",
          "type": "string"
        }
      ],
      "stateMutability": "view",
      "type": "function",
      "constant": true
    },
    {
      "inputs": [
        {
          "internalType": "string",
          "name": "",
          "type": "string"
        },
        {
          "internalType": "uint256",
          "name": "",
          "type": "uint256"
        }
      ],
      "name": "InterestedBuyers",
      "outputs": [
        {
          "internalType": "address",
          "name": "",
          "type": "address"
        }
      ],
      "stateMutability": "view",
      "type": "function",
      "constant": true
    },
    {
      "inputs": [
        {
          "internalType": "address",
          "name": "",
          "type": "address"
        },
        {
          "internalType": "string",
          "name": "",
          "type": "string"
        }
      ],
      "name": "LandRequestAccess",
      "outputs": [
        {
          "internalType": "enum Land.RequestStatus",
          "name": "",
          "type": "uint8"
        }
      ],
      "stateMutability": "view",
      "type": "function",
      "constant": true
    },
    {
      "inputs": [
        {
          "internalType": "string",
          "name": "",
          "type": "string"
        }
      ],
      "name": "Lands",
      "outputs": [
        {
          "internalType": "string",
          "name": "id",
          "type": "string"
        },
        {
          "internalType": "string",
          "name": "landAddress",
          "type": "string"
        },
        {
          "internalType": "uint256",
          "name": "price",
          "type": "uint256"
        },
        {
          "internalType": "string",
          "name": "ipfsHash",
          "type": "string"
        },
        {
          "internalType": "string",
          "name": "ownerName",
          "type": "string"
        },
        {
          "internalType": "address",
          "name": "ownerAccount",
          "type": "address"
        },
        {
          "internalType": "enum Land.LandStatus",
          "name": "status",
          "type": "uint8"
        },
        {
          "internalType": "bool",
          "name": "sell",
          "type": "bool"
        }
      ],
      "stateMutability": "view",
      "type": "function",
      "constant": true
    },
    {
      "inputs": [
        {
          "internalType": "uint256",
          "name": "",
          "type": "uint256"
        }
      ],
      "name": "LandsforSale",
      "outputs": [
        {
          "internalType": "string",
          "name": "",
          "type": "string"
        }
      ],
      "stateMutability": "view",
      "type": "function",
      "constant": true
    },
    {
      "inputs": [
        {
          "internalType": "address",
          "name": "",
          "type": "address"
        },
        {
          "internalType": "uint256",
          "name": "",
          "type": "uint256"
        }
      ],
      "name": "UserAssets",
      "outputs": [
        {
          "internalType": "string",
          "name": "",
          "type": "string"
        }
      ],
      "stateMutability": "view",
      "type": "function",
      "constant": true
    },
    {
      "inputs": [
        {
          "internalType": "address",
          "name": "",
          "type": "address"
        }
      ],
      "name": "Users",
      "outputs": [
        {
          "internalType": "address",
          "name": "id",
          "type": "address"
        },
        {
          "internalType": "string",
          "name": "name",
          "type": "string"
        },
        {
          "internalType": "string",
          "name": "email",
          "type": "string"
        },
        {
          "internalType": "bool",
          "name": "isMember",
          "type": "bool"
        },
        {
          "internalType": "bool",
          "name": "isOfficial",
          "type": "bool"
        },
        {
          "internalType": "string",
          "name": "govtId",
          "type": "string"
        }
      ],
      "stateMutability": "view",
      "type": "function",
      "constant": true
    },
    {
      "inputs": [
        {
          "internalType": "string",
          "name": "",
          "type": "string"
        }
      ],
      "name": "ipfs",
      "outputs": [
        {
          "internalType": "bool",
          "name": "",
          "type": "bool"
        }
      ],
      "stateMutability": "view",
      "type": "function",
      "constant": true
    },
    {
      "inputs": [
        {
          "internalType": "address",
          "name": "",
          "type": "address"
        },
        {
          "internalType": "uint256",
          "name": "",
          "type": "uint256"
        }
      ],
      "name": "requestedLands",
      "outputs": [
        {
          "internalType": "string",
          "name": "",
          "type": "string"
        }
      ],
      "stateMutability": "view",
      "type": "function",
      "constant": true
    },
    {
      "inputs": [
        {
          "internalType": "address",
          "name": "_id",
          "type": "address"
        },
        {
          "internalType": "string",
          "name": "_name",
          "type": "string"
        },
        {
          "internalType": "string",
          "name": "_email",
          "type": "string"
        },
        {
          "internalType": "string",
          "name": "_govtId",
          "type": "string"
        }
      ],
      "name": "addUser",
      "outputs": [],
      "stateMutability": "nonpayable",
      "type": "function"
    },
    {
      "inputs": [],
      "name": "getRegisteredLands",
      "outputs": [
        {
          "internalType": "string[]",
          "name": "",
          "type": "string[]"
        }
      ],
      "stateMutability": "view",
      "type": "function",
      "constant": true
    },
    {
      "inputs": [
        {
          "internalType": "string",
          "name": "_id",
          "type": "string"
        },
        {
          "internalType": "string",
          "name": "_landAddress",
          "type": "string"
        },
        {
          "internalType": "uint256",
          "name": "_price",
          "type": "uint256"
        },
        {
          "internalType": "string",
          "name": "_ipfsHash",
          "type": "string"
        },
        {
          "internalType": "address",
          "name": "_ownerAccount",
          "type": "address"
        }
      ],
      "name": "registerLand",
      "outputs": [],
      "stateMutability": "nonpayable",
      "type": "function"
    },
    {
      "inputs": [
        {
          "internalType": "string[]",
          "name": "_approvedLands",
          "type": "string[]"
        },
        {
          "internalType": "string[]",
          "name": "_rejectedLands",
          "type": "string[]"
        }
      ],
      "name": "changeStatus",
      "outputs": [],
      "stateMutability": "nonpayable",
      "type": "function"
    },
    {
      "inputs": [
        {
          "internalType": "string",
          "name": "_id",
          "type": "string"
        }
      ],
      "name": "auctionLand",
      "outputs": [],
      "stateMutability": "nonpayable",
      "type": "function"
    },
    {
      "inputs": [],
      "name": "getAllLandsforSale",
      "outputs": [
        {
          "internalType": "string[]",
          "name": "",
          "type": "string[]"
        }
      ],
      "stateMutability": "view",
      "type": "function",
      "constant": true
    },
    {
      "inputs": [
        {
          "internalType": "address",
          "name": "_id",
          "type": "address"
        }
      ],
      "name": "getUserAssets",
      "outputs": [
        {
          "internalType": "string[]",
          "name": "",
          "type": "string[]"
        }
      ],
      "stateMutability": "view",
      "type": "function",
      "constant": true
    },
    {
      "inputs": [
        {
          "internalType": "string",
          "name": "_id",
          "type": "string"
        },
        {
          "internalType": "address",
          "name": "_account",
          "type": "address"
        }
      ],
      "name": "requestLandDetails",
      "outputs": [],
      "stateMutability": "nonpayable",
      "type": "function"
    },
    {
      "inputs": [
        {
          "internalType": "string[]",
          "name": "_id",
          "type": "string[]"
        },
        {
          "internalType": "address",
          "name": "_account",
          "type": "address"
        }
      ],
      "name": "getLandRequestAccess",
      "outputs": [
        {
          "internalType": "string[]",
          "name": "",
          "type": "string[]"
        }
      ],
      "stateMutability": "view",
      "type": "function",
      "constant": true
    },
    {
      "inputs": [
        {
          "internalType": "address",
          "name": "_account",
          "type": "address"
        }
      ],
      "name": "getRequestedLands",
      "outputs": [
        {
          "internalType": "string[]",
          "name": "",
          "type": "string[]"
        }
      ],
      "stateMutability": "view",
      "type": "function",
      "constant": true
    },
    {
      "inputs": [
        {
          "internalType": "string",
          "name": "_id",
          "type": "string"
        },
        {
          "internalType": "address",
          "name": "_account",
          "type": "address"
        }
      ],
      "name": "sellLand",
      "outputs": [],
      "stateMutability": "nonpayable",
      "type": "function"
    },
    {
      "inputs": [
        {
          "internalType": "string",
          "name": "_id",
          "type": "string"
        }
      ],
      "name": "interested",
      "outputs": [
        {
          "internalType": "string[]",
          "name": "",
          "type": "string[]"
        },
        {
          "internalType": "address[]",
          "name": "",
          "type": "address[]"
        }
      ],
      "stateMutability": "view",
      "type": "function",
      "constant": true
    },
    {
      "inputs": [
        {
          "internalType": "address",
          "name": "_account",
          "type": "address"
        },
        {
          "internalType": "string",
          "name": "_id",
          "type": "string"
        }
      ],
      "name": "requestApprove",
      "outputs": [],
      "stateMutability": "nonpayable",
      "type": "function"
    },
    {
      "inputs": [
        {
          "internalType": "address",
          "name": "_account",
          "type": "address"
        },
        {
          "internalType": "string",
          "name": "_id",
          "type": "string"
        }
      ],
      "name": "requestReject",
      "outputs": [],
      "stateMutability": "nonpayable",
      "type": "function"
    },
    {
      "inputs": [
        {
          "internalType": "string",
          "name": "_id",
          "type": "string"
        },
        {
          "internalType": "address",
          "name": "_newAccount",
          "type": "address"
        }
      ],
      "name": "changeOwnership",
      "outputs": [],
      "stateMutability": "nonpayable",
      "type": "function"
    }
  ],
  "bytecode": "0x608060405234801561001057600080fd5b50336000806101000a81548173ffffffffffffffffffffffffffffffffffffffff021916908373ffffffffffffffffffffffffffffffffffffffff160217905550614457806100606000396000f3fe608060405234801561001057600080fd5b50600436106101585760003560e01c806394787517116100c3578063b46fc9231161007c578063b46fc9231461043e578063bd99108f1461045a578063bf78565f14610491578063c6361c22146104ad578063ce073c1f146104c9578063f8c7742d146104e757610158565b8063947875171461032857806399b956a0146103585780639de9f6381461038d578063a23092b4146103c2578063a30e6db5146103de578063a77d76ec1461040e57610158565b806365e6af321161011557806365e6af32146102415780636b2e376b1461025f578063765ff0611461027b5780637c35236b146102ab5780638800eeec146102dc5780638de082fd1461030c57610158565b806307176f631461015d5780630e2279af1461018d5780631bcae1b2146101bd5780632aee199b146101d957806342ba518b146101f55780635951a6de14610211575b600080fd5b61017760048036038101906101729190613105565b610517565b60405161018491906131c2565b60405180910390f35b6101a760048036038101906101a29190613242565b6105c3565b6040516101b491906131c2565b60405180910390f35b6101d760048036038101906101d291906133b7565b61067c565b005b6101f360048036038101906101ee91906134e6565b610749565b005b61020f600480360381019061020a919061355e565b6109a4565b005b61022b600480360381019061022691906135ba565b610bab565b60405161023891906136f3565b60405180910390f35b610249610cc3565b60405161025691906136f3565b60405180910390f35b61027960048036038101906102749190613715565b610d9c565b005b610295600480360381019061029091906135ba565b610e24565b6040516102a291906136f3565b60405180910390f35b6102c560048036038101906102c091906133b7565b610f3c565b6040516102d392919061382f565b60405180910390f35b6102f660048036038101906102f19190613242565b611258565b60405161030391906131c2565b60405180910390f35b61032660048036038101906103219190613866565b611311565b005b610342600480360381019061033d9190613935565b611675565b60405161034f91906136f3565b60405180910390f35b610372600480360381019061036d91906135ba565b611908565b604051610384969594939291906139bb565b60405180910390f35b6103a760048036038101906103a291906135ba565b611b16565b6040516103b9969594939291906139bb565b60405180910390f35b6103dc60048036038101906103d7919061355e565b611d24565b005b6103f860048036038101906103f391906133b7565b611e9d565b6040516104059190613a31565b60405180910390f35b61042860048036038101906104239190613a4c565b611ed3565b6040516104359190613aa8565b60405180910390f35b6104586004803603810190610453919061355e565b611f37565b005b610474600480360381019061046f91906133b7565b611fbf565b604051610488989796959493929190613b49565b60405180910390f35b6104ab60048036038101906104a69190613715565b612277565b005b6104c760048036038101906104c29190613be3565b6122ff565b005b6104d1612658565b6040516104de91906136f3565b60405180910390f35b61050160048036038101906104fc9190613715565b612766565b60405161050e9190613ce6565b60405180910390f35b600b818154811061052757600080fd5b90600052602060002001600091509050805461054290613d30565b80601f016020809104026020016040519081016040528092919081815260200182805461056e90613d30565b80156105bb5780601f10610590576101008083540402835291602001916105bb565b820191906000526020600020905b81548152906001019060200180831161059e57829003601f168201915b505050505081565b600960205281600052604060002081815481106105df57600080fd5b906000526020600020016000915091505080546105fb90613d30565b80601f016020809104026020016040519081016040528092919081815260200182805461062790613d30565b80156106745780601f1061064957610100808354040283529160200191610674565b820191906000526020600020905b81548152906001019060200180831161065757829003601f168201915b505050505081565b600160028111156106905761068f613ad2565b5b6005826040516106a09190613d9d565b908152602001604051809103902060050160149054906101000a900460ff1660028111156106d1576106d0613ad2565b5b036107465760016005826040516106e89190613d9d565b908152602001604051809103902060050160156101000a81548160ff021916908315150217905550600b819080600181540180825580915050600190039060005260206000200160009091909190915090816107449190613f60565b505b50565b60005b8251811015610874576001600584838151811061076c5761076b614032565b5b60200260200101516040516107819190613d9d565b908152602001604051809103902060050160146101000a81548160ff021916908360028111156107b4576107b3613ad2565b5b021790555060086000600160028111156107d1576107d0613ad2565b5b60028111156107e3576107e2613ad2565b5b815260200190815260200160002083828151811061080457610803614032565b5b602002602001015190806001815401808255809150506001900390600052602060002001600090919091909150908161083d9190613f60565b5061086183828151811061085457610853614032565b5b60200260200101516127ab565b808061086c90614090565b91505061074c565b5060005b815181101561099f576002600583838151811061089857610897614032565b5b60200260200101516040516108ad9190613d9d565b908152602001604051809103902060050160146101000a81548160ff021916908360028111156108e0576108df613ad2565b5b0217905550600860006002808111156108fc576108fb613ad2565b5b600281111561090e5761090d613ad2565b5b815260200190815260200160002082828151811061092f5761092e614032565b5b60200260200101519080600181540180825580915050600190039060005260206000200160009091909190915090816109689190613f60565b5061098c82828151811061097f5761097e614032565b5b60200260200101516127ab565b808061099790614090565b915050610878565b505050565b6109ef6005836040516109b79190613d9d565b908152602001604051809103902060050160009054906101000a900473ffffffffffffffffffffffffffffffffffffffff1683612a0f565b6000600583604051610a019190613d9d565b908152602001604051809103902060050160156101000a81548160ff021916908315150217905550600260008273ffffffffffffffffffffffffffffffffffffffff1673ffffffffffffffffffffffffffffffffffffffff168152602001908152602001600020600101600583604051610a7b9190613d9d565b90815260200160405180910390206004019081610a989190614103565b5080600583604051610aaa9190613d9d565b908152602001604051809103902060050160006101000a81548173ffffffffffffffffffffffffffffffffffffffff021916908373ffffffffffffffffffffffffffffffffffffffff160217905550600460008273ffffffffffffffffffffffffffffffffffffffff1673ffffffffffffffffffffffffffffffffffffffff16815260200190815260200160002082908060018154018082558091505060019003906000526020600020016000909190919091509081610b6a9190613f60565b50610b7482612ca4565b600682604051610b849190613d9d565b90815260200160405180910390206000610b9e9190612fc0565b610ba782612dac565b5050565b6060600960008373ffffffffffffffffffffffffffffffffffffffff1673ffffffffffffffffffffffffffffffffffffffff168152602001908152602001600020805480602002602001604051908101604052809291908181526020016000905b82821015610cb8578382906000526020600020018054610c2b90613d30565b80601f0160208091040260200160405190810160405280929190818152602001828054610c5790613d30565b8015610ca45780601f10610c7957610100808354040283529160200191610ca4565b820191906000526020600020905b815481529060010190602001808311610c8757829003601f168201915b505050505081526020019060010190610c0c565b505050509050919050565b6060600b805480602002602001604051908101604052809291908181526020016000905b82821015610d93578382906000526020600020018054610d0690613d30565b80601f0160208091040260200160405190810160405280929190818152602001828054610d3290613d30565b8015610d7f5780601f10610d5457610100808354040283529160200191610d7f565b820191906000526020600020905b815481529060010190602001808311610d6257829003601f168201915b505050505081526020019060010190610ce7565b50505050905090565b6002600760008473ffffffffffffffffffffffffffffffffffffffff1673ffffffffffffffffffffffffffffffffffffffff16815260200190815260200160002082604051610deb9190613d9d565b908152602001604051809103902060006101000a81548160ff02191690836003811115610e1b57610e1a613ad2565b5b02179055505050565b6060600460008373ffffffffffffffffffffffffffffffffffffffff1673ffffffffffffffffffffffffffffffffffffffff168152602001908152602001600020805480602002602001604051908101604052809291908181526020016000905b82821015610f31578382906000526020600020018054610ea490613d30565b80601f0160208091040260200160405190810160405280929190818152602001828054610ed090613d30565b8015610f1d5780601f10610ef257610100808354040283529160200191610f1d565b820191906000526020600020905b815481529060010190602001808311610f0057829003601f168201915b505050505081526020019060010190610e85565b505050509050919050565b6060806000600684604051610f519190613d9d565b90815260200160405180910390208054905067ffffffffffffffff811115610f7c57610f7b61328c565b5b604051908082528060200260200182016040528015610faf57816020015b6060815260200190600190039081610f9a5790505b5090506000600685604051610fc49190613d9d565b90815260200160405180910390208054905067ffffffffffffffff811115610fef57610fee61328c565b5b60405190808252806020026020018201604052801561101d5781602001602082028036833780820191505090505b50905060005b6006866040516110339190613d9d565b90815260200160405180910390208054905081101561124a57600260006006886040516110609190613d9d565b908152602001604051809103902083815481106110805761107f614032565b5b9060005260206000200160009054906101000a900473ffffffffffffffffffffffffffffffffffffffff1673ffffffffffffffffffffffffffffffffffffffff1673ffffffffffffffffffffffffffffffffffffffff16815260200190815260200160002060010180546110f390613d30565b80601f016020809104026020016040519081016040528092919081815260200182805461111f90613d30565b801561116c5780601f106111415761010080835404028352916020019161116c565b820191906000526020600020905b81548152906001019060200180831161114f57829003601f168201915b505050505083828151811061118457611183614032565b5b602002602001018190525060068660405161119f9190613d9d565b908152602001604051809103902081815481106111bf576111be614032565b5b9060005260206000200160009054906101000a900473ffffffffffffffffffffffffffffffffffffffff168282815181106111fd576111fc614032565b5b602002602001019073ffffffffffffffffffffffffffffffffffffffff16908173ffffffffffffffffffffffffffffffffffffffff1681525050808061124290614090565b915050611023565b508181935093505050915091565b6004602052816000526040600020818154811061127457600080fd5b9060005260206000200160009150915050805461129090613d30565b80601f01602080910402602001604051908101604052809291908181526020018280546112bc90613d30565b80156113095780601f106112de57610100808354040283529160200191611309565b820191906000526020600020905b8154815290600101906020018083116112ec57829003601f168201915b505050505081565b604051806101000160405280868152602001858152602001848152602001838152602001600260008473ffffffffffffffffffffffffffffffffffffffff1673ffffffffffffffffffffffffffffffffffffffff168152602001908152602001600020600101805461138290613d30565b80601f01602080910402602001604051908101604052809291908181526020018280546113ae90613d30565b80156113fb5780601f106113d0576101008083540402835291602001916113fb565b820191906000526020600020905b8154815290600101906020018083116113de57829003601f168201915b505050505081526020018273ffffffffffffffffffffffffffffffffffffffff1681526020016000600281111561143557611434613ad2565b5b8152602001600015158152506005866040516114519190613d9d565b908152602001604051809103902060008201518160000190816114749190613f60565b50602082015181600101908161148a9190613f60565b506040820151816002015560608201518160030190816114aa9190613f60565b5060808201518160040190816114c09190613f60565b5060a08201518160050160006101000a81548173ffffffffffffffffffffffffffffffffffffffff021916908373ffffffffffffffffffffffffffffffffffffffff16021790555060c08201518160050160146101000a81548160ff0219169083600281111561153357611532613ad2565b5b021790555060e08201518160050160156101000a81548160ff0219169083151502179055509050506001600a8360405161156d9190613d9d565b908152602001604051809103902060006101000a81548160ff021916908315150217905550600460008273ffffffffffffffffffffffffffffffffffffffff1673ffffffffffffffffffffffffffffffffffffffff168152602001908152602001600020859080600181540180825580915050600190039060005260206000200160009091909190915090816116039190613f60565b506008600080600281111561161b5761161a613ad2565b5b600281111561162d5761162c613ad2565b5b81526020019081526020016000208590806001815401808255809150506001900390600052602060002001600090919091909150908161166d9190613f60565b505050505050565b60606000835167ffffffffffffffff8111156116945761169361328c565b5b6040519080825280602002602001820160405280156116c757816020015b60608152602001906001900390816116b25790505b50905060005b84518110156118fd576000600760008673ffffffffffffffffffffffffffffffffffffffff1673ffffffffffffffffffffffffffffffffffffffff16815260200190815260200160002086838151811061172a57611729614032565b5b602002602001015160405161173f9190613d9d565b908152602001604051809103902060009054906101000a900460ff1690506000600381111561177157611770613ad2565b5b81600381111561178457611783613ad2565b5b14611894576001600381111561179d5761179c613ad2565b5b8160038111156117b0576117af613ad2565b5b1461185857600260038111156117c9576117c8613ad2565b5b8160038111156117dc576117db613ad2565b5b1461181c576040518060400160405280600481526020017f53656c6c00000000000000000000000000000000000000000000000000000000815250611853565b6040518060400160405280600781526020017f50656e64696e67000000000000000000000000000000000000000000000000008152505b61188f565b6040518060400160405280600881526020017f41636365707465640000000000000000000000000000000000000000000000008152505b6118cb565b6040518060400160405280600781526020017f50656e64696e67000000000000000000000000000000000000000000000000008152505b8383815181106118de576118dd614032565b5b60200260200101819052505080806118f590614090565b9150506116cd565b508091505092915050565b60026020528060005260406000206000915090508060000160009054906101000a900473ffffffffffffffffffffffffffffffffffffffff169080600101805461195190613d30565b80601f016020809104026020016040519081016040528092919081815260200182805461197d90613d30565b80156119ca5780601f1061199f576101008083540402835291602001916119ca565b820191906000526020600020905b8154815290600101906020018083116119ad57829003601f168201915b5050505050908060020180546119df90613d30565b80601f0160208091040260200160405190810160405280929190818152602001828054611a0b90613d30565b8015611a585780601f10611a2d57610100808354040283529160200191611a58565b820191906000526020600020905b815481529060010190602001808311611a3b57829003601f168201915b5050505050908060030160009054906101000a900460ff16908060030160019054906101000a900460ff1690806004018054611a9390613d30565b80601f0160208091040260200160405190810160405280929190818152602001828054611abf90613d30565b8015611b0c5780601f10611ae157610100808354040283529160200191611b0c565b820191906000526020600020905b815481529060010190602001808311611aef57829003601f168201915b5050505050905086565b60036020528060005260406000206000915090508060000160009054906101000a900473ffffffffffffffffffffffffffffffffffffffff1690806001018054611b5f90613d30565b80601f0160208091040260200160405190810160405280929190818152602001828054611b8b90613d30565b8015611bd85780601f10611bad57610100808354040283529160200191611bd8565b820191906000526020600020905b815481529060010190602001808311611bbb57829003601f168201915b505050505090806002018054611bed90613d30565b80601f0160208091040260200160405190810160405280929190818152602001828054611c1990613d30565b8015611c665780601f10611c3b57610100808354040283529160200191611c66565b820191906000526020600020905b815481529060010190602001808311611c4957829003601f168201915b5050505050908060030160009054906101000a900460ff16908060030160019054906101000a900460ff1690806004018054611ca190613d30565b80601f0160208091040260200160405190810160405280929190818152602001828054611ccd90613d30565b8015611d1a5780601f10611cef57610100808354040283529160200191611d1a565b820191906000526020600020905b815481529060010190602001808311611cfd57829003601f168201915b5050505050905086565b6000600760008373ffffffffffffffffffffffffffffffffffffffff1673ffffffffffffffffffffffffffffffffffffffff16815260200190815260200160002083604051611d739190613d9d565b908152602001604051809103902060006101000a81548160ff02191690836003811115611da357611da2613ad2565b5b0217905550600960008273ffffffffffffffffffffffffffffffffffffffff1673ffffffffffffffffffffffffffffffffffffffff16815260200190815260200160002082908060018154018082558091505060019003906000526020600020016000909190919091509081611e199190613f60565b50600682604051611e2a9190613d9d565b9081526020016040518091039020819080600181540180825580915050600190039060005260206000200160009091909190916101000a81548173ffffffffffffffffffffffffffffffffffffffff021916908373ffffffffffffffffffffffffffffffffffffffff1602179055505050565b600a818051602081018201805184825260208301602085012081835280955050505050506000915054906101000a900460ff1681565b6006828051602081018201805184825260208301602085012081835280955050505050508181548110611f0557600080fd5b906000526020600020016000915091509054906101000a900473ffffffffffffffffffffffffffffffffffffffff1681565b6003600760008373ffffffffffffffffffffffffffffffffffffffff1673ffffffffffffffffffffffffffffffffffffffff16815260200190815260200160002083604051611f869190613d9d565b908152602001604051809103902060006101000a81548160ff02191690836003811115611fb657611fb5613ad2565b5b02179055505050565b600581805160208101820180518482526020830160208501208183528095505050505050600091509050806000018054611ff890613d30565b80601f016020809104026020016040519081016040528092919081815260200182805461202490613d30565b80156120715780601f1061204657610100808354040283529160200191612071565b820191906000526020600020905b81548152906001019060200180831161205457829003601f168201915b50505050509080600101805461208690613d30565b80601f01602080910402602001604051908101604052809291908181526020018280546120b290613d30565b80156120ff5780601f106120d4576101008083540402835291602001916120ff565b820191906000526020600020905b8154815290600101906020018083116120e257829003601f168201915b50505050509080600201549080600301805461211a90613d30565b80601f016020809104026020016040519081016040528092919081815260200182805461214690613d30565b80156121935780601f1061216857610100808354040283529160200191612193565b820191906000526020600020905b81548152906001019060200180831161217657829003601f168201915b5050505050908060040180546121a890613d30565b80601f01602080910402602001604051908101604052809291908181526020018280546121d490613d30565b80156122215780601f106121f657610100808354040283529160200191612221565b820191906000526020600020905b81548152906001019060200180831161220457829003601f168201915b5050505050908060050160009054906101000a900473ffffffffffffffffffffffffffffffffffffffff16908060050160149054906101000a900460ff16908060050160159054906101000a900460ff16905088565b6001600760008473ffffffffffffffffffffffffffffffffffffffff1673ffffffffffffffffffffffffffffffffffffffff168152602001908152602001600020826040516122c69190613d9d565b908152602001604051809103902060006101000a81548160ff021916908360038111156122f6576122f5613ad2565b5b02179055505050565b600060405160200161231090614211565b60405160208183030381529060405280519060200120826040516020016123379190613d9d565b604051602081830303815290604052805190602001201461235957600161235c565b60005b90506040518060c001604052808673ffffffffffffffffffffffffffffffffffffffff168152602001858152602001848152602001600115158152602001821515815260200183815250600260008773ffffffffffffffffffffffffffffffffffffffff1673ffffffffffffffffffffffffffffffffffffffff16815260200190815260200160002060008201518160000160006101000a81548173ffffffffffffffffffffffffffffffffffffffff021916908373ffffffffffffffffffffffffffffffffffffffff16021790555060208201518160010190816124419190613f60565b5060408201518160020190816124579190613f60565b5060608201518160030160006101000a81548160ff02191690831515021790555060808201518160030160016101000a81548160ff02191690831515021790555060a08201518160040190816124ad9190613f60565b50905050801561265157600260008673ffffffffffffffffffffffffffffffffffffffff1673ffffffffffffffffffffffffffffffffffffffff168152602001908152602001600020600360008773ffffffffffffffffffffffffffffffffffffffff1673ffffffffffffffffffffffffffffffffffffffff1681526020019081526020016000206000820160009054906101000a900473ffffffffffffffffffffffffffffffffffffffff168160000160006101000a81548173ffffffffffffffffffffffffffffffffffffffff021916908373ffffffffffffffffffffffffffffffffffffffff160217905550600182018160010190816125b0919061423c565b50600282018160020190816125c5919061423c565b506003820160009054906101000a900460ff168160030160006101000a81548160ff0219169083151502179055506003820160019054906101000a900460ff168160030160016101000a81548160ff02191690831515021790555060048201816004019081612634919061423c565b509050506001600081548092919061264b90614090565b91905055505b5050505050565b60606008600080600281111561267157612670613ad2565b5b600281111561268357612682613ad2565b5b8152602001908152602001600020805480602002602001604051908101604052809291908181526020016000905b8282101561275d5783829060005260206000200180546126d090613d30565b80601f01602080910402602001604051908101604052809291908181526020018280546126fc90613d30565b80156127495780601f1061271e57610100808354040283529160200191612749565b820191906000526020600020905b81548152906001019060200180831161272c57829003601f168201915b5050505050815260200190600101906126b1565b50505050905090565b6007602052816000526040600020818051602081018201805184825260208301602085012081835280955050505050506000915091509054906101000a900460ff1681565b60005b600860008060028111156127c5576127c4613ad2565b5b60028111156127d7576127d6613ad2565b5b8152602001908152602001600020805490508110156129a657816040516020016128019190613d9d565b604051602081830303815290604052805190602001206008600080600281111561282e5761282d613ad2565b5b60028111156128405761283f613ad2565b5b815260200190815260200160002082815481106128605761285f614032565b5b9060005260206000200160405160200161287a91906143a7565b604051602081830303815290604052805190602001200361299357600860008060028111156128ac576128ab613ad2565b5b60028111156128be576128bd613ad2565b5b81526020019081526020016000206001600860008060028111156128e5576128e4613ad2565b5b60028111156128f7576128f6613ad2565b5b81526020019081526020016000208054905061291391906143be565b8154811061292457612923614032565b5b906000526020600020016008600080600281111561294557612944613ad2565b5b600281111561295757612956613ad2565b5b8152602001908152602001600020828154811061297757612976614032565b5b90600052602060002001908161298d9190614103565b506129a6565b808061299e90614090565b9150506127ae565b50600860008060028111156129be576129bd613ad2565b5b60028111156129d0576129cf613ad2565b5b81526020019081526020016000208054806129ee576129ed6143f2565b5b600190038181906000526020600020016000612a0a9190612fe1565b905550565b60005b600460008473ffffffffffffffffffffffffffffffffffffffff1673ffffffffffffffffffffffffffffffffffffffff16815260200190815260200160002080549050811015612c325781604051602001612a6d9190613d9d565b60405160208183030381529060405280519060200120600460008573ffffffffffffffffffffffffffffffffffffffff1673ffffffffffffffffffffffffffffffffffffffff1681526020019081526020016000208281548110612ad457612ad3614032565b5b90600052602060002001604051602001612aee91906143a7565b6040516020818303038152906040528051906020012003612c1f57600460008473ffffffffffffffffffffffffffffffffffffffff1673ffffffffffffffffffffffffffffffffffffffff1681526020019081526020016000206001600460008673ffffffffffffffffffffffffffffffffffffffff1673ffffffffffffffffffffffffffffffffffffffff16815260200190815260200160002080549050612b9791906143be565b81548110612ba857612ba7614032565b5b90600052602060002001600460008573ffffffffffffffffffffffffffffffffffffffff1673ffffffffffffffffffffffffffffffffffffffff1681526020019081526020016000208281548110612c0357612c02614032565b5b906000526020600020019081612c199190614103565b50612c32565b8080612c2a90614090565b915050612a12565b50600460008373ffffffffffffffffffffffffffffffffffffffff1673ffffffffffffffffffffffffffffffffffffffff168152602001908152602001600020805480612c8257612c816143f2565b5b600190038181906000526020600020016000612c9e9190612fe1565b90555050565b60005b600682604051612cb79190613d9d565b908152602001604051809103902080549050811015612da85760076000600684604051612ce49190613d9d565b90815260200160405180910390208381548110612d0457612d03614032565b5b9060005260206000200160009054906101000a900473ffffffffffffffffffffffffffffffffffffffff1673ffffffffffffffffffffffffffffffffffffffff1673ffffffffffffffffffffffffffffffffffffffff16815260200190815260200160002082604051612d779190613d9d565b908152602001604051809103902060006101000a81549060ff02191690558080612da090614090565b915050612ca7565b5050565b6001600b80549050148015612e2a575080604051602001612dcd9190613d9d565b60405160208183030381529060405280519060200120600b600081548110612df857612df7614032565b5b90600052602060002001604051602001612e1291906143a7565b60405160208183030381529060405280519060200120145b15612e9957600067ffffffffffffffff811115612e4a57612e4961328c565b5b604051908082528060200260200182016040528015612e7d57816020015b6060815260200190600190039081612e685790505b50600b9080519060200190612e93929190613021565b50612fbd565b60005b600b80549050811015612f8b5781604051602001612eba9190613d9d565b60405160208183030381529060405280519060200120600b8281548110612ee457612ee3614032565b5b90600052602060002001604051602001612efe91906143a7565b6040516020818303038152906040528051906020012003612f7857600b6001600b80549050612f2d91906143be565b81548110612f3e57612f3d614032565b5b90600052602060002001600b8281548110612f5c57612f5b614032565b5b906000526020600020019081612f729190614103565b50612f8b565b8080612f8390614090565b915050612e9c565b50600b805480612f9e57612f9d6143f2565b5b600190038181906000526020600020016000612fba9190612fe1565b90555b50565b5080546000825590600052602060002090810190612fde919061307a565b50565b508054612fed90613d30565b6000825580601f10612fff575061301e565b601f01602090049060005260206000209081019061301d919061307a565b5b50565b828054828255906000526020600020908101928215613069579160200282015b828111156130685782518290816130589190613f60565b5091602001919060010190613041565b5b5090506130769190613097565b5090565b5b8082111561309357600081600090555060010161307b565b5090565b5b808211156130b757600081816130ae9190612fe1565b50600101613098565b5090565b6000604051905090565b600080fd5b600080fd5b6000819050919050565b6130e2816130cf565b81146130ed57600080fd5b50565b6000813590506130ff816130d9565b92915050565b60006020828403121561311b5761311a6130c5565b5b6000613129848285016130f0565b91505092915050565b600081519050919050565b600082825260208201905092915050565b60005b8381101561316c578082015181840152602081019050613151565b60008484015250505050565b6000601f19601f8301169050919050565b600061319482613132565b61319e818561313d565b93506131ae81856020860161314e565b6131b781613178565b840191505092915050565b600060208201905081810360008301526131dc8184613189565b905092915050565b600073ffffffffffffffffffffffffffffffffffffffff82169050919050565b600061320f826131e4565b9050919050565b61321f81613204565b811461322a57600080fd5b50565b60008135905061323c81613216565b92915050565b60008060408385031215613259576132586130c5565b5b60006132678582860161322d565b9250506020613278858286016130f0565b9150509250929050565b600080fd5b600080fd5b7f4e487b7100000000000000000000000000000000000000000000000000000000600052604160045260246000fd5b6132c482613178565b810181811067ffffffffffffffff821117156132e3576132e261328c565b5b80604052505050565b60006132f66130bb565b905061330282826132bb565b919050565b600067ffffffffffffffff8211156133225761332161328c565b5b61332b82613178565b9050602081019050919050565b82818337600083830152505050565b600061335a61335584613307565b6132ec565b90508281526020810184848401111561337657613375613287565b5b613381848285613338565b509392505050565b600082601f83011261339e5761339d613282565b5b81356133ae848260208601613347565b91505092915050565b6000602082840312156133cd576133cc6130c5565b5b600082013567ffffffffffffffff8111156133eb576133ea6130ca565b5b6133f784828501613389565b91505092915050565b600067ffffffffffffffff82111561341b5761341a61328c565b5b602082029050602081019050919050565b600080fd5b600061344461343f84613400565b6132ec565b905080838252602082019050602084028301858111156134675761346661342c565b5b835b818110156134ae57803567ffffffffffffffff81111561348c5761348b613282565b5b8086016134998982613389565b85526020850194505050602081019050613469565b5050509392505050565b600082601f8301126134cd576134cc613282565b5b81356134dd848260208601613431565b91505092915050565b600080604083850312156134fd576134fc6130c5565b5b600083013567ffffffffffffffff81111561351b5761351a6130ca565b5b613527858286016134b8565b925050602083013567ffffffffffffffff811115613548576135476130ca565b5b613554858286016134b8565b9150509250929050565b60008060408385031215613575576135746130c5565b5b600083013567ffffffffffffffff811115613593576135926130ca565b5b61359f85828601613389565b92505060206135b08582860161322d565b9150509250929050565b6000602082840312156135d0576135cf6130c5565b5b60006135de8482850161322d565b91505092915050565b600081519050919050565b600082825260208201905092915050565b6000819050602082019050919050565b600082825260208201905092915050565b600061362f82613132565b6136398185613613565b935061364981856020860161314e565b61365281613178565b840191505092915050565b60006136698383613624565b905092915050565b6000602082019050919050565b6000613689826135e7565b61369381856135f2565b9350836020820285016136a585613603565b8060005b858110156136e157848403895281516136c2858261365d565b94506136cd83613671565b925060208a019950506001810190506136a9565b50829750879550505050505092915050565b6000602082019050818103600083015261370d818461367e565b905092915050565b6000806040838503121561372c5761372b6130c5565b5b600061373a8582860161322d565b925050602083013567ffffffffffffffff81111561375b5761375a6130ca565b5b61376785828601613389565b9150509250929050565b600081519050919050565b600082825260208201905092915050565b6000819050602082019050919050565b6137a681613204565b82525050565b60006137b8838361379d565b60208301905092915050565b6000602082019050919050565b60006137dc82613771565b6137e6818561377c565b93506137f18361378d565b8060005b8381101561382257815161380988826137ac565b9750613814836137c4565b9250506001810190506137f5565b5085935050505092915050565b60006040820190508181036000830152613849818561367e565b9050818103602083015261385d81846137d1565b90509392505050565b600080600080600060a08688031215613882576138816130c5565b5b600086013567ffffffffffffffff8111156138a05761389f6130ca565b5b6138ac88828901613389565b955050602086013567ffffffffffffffff8111156138cd576138cc6130ca565b5b6138d988828901613389565b94505060406138ea888289016130f0565b935050606086013567ffffffffffffffff81111561390b5761390a6130ca565b5b61391788828901613389565b92505060806139288882890161322d565b9150509295509295909350565b6000806040838503121561394c5761394b6130c5565b5b600083013567ffffffffffffffff81111561396a576139696130ca565b5b613976858286016134b8565b92505060206139878582860161322d565b9150509250929050565b61399a81613204565b82525050565b60008115159050919050565b6139b5816139a0565b82525050565b600060c0820190506139d06000830189613991565b81810360208301526139e28188613189565b905081810360408301526139f68187613189565b9050613a0560608301866139ac565b613a1260808301856139ac565b81810360a0830152613a248184613189565b9050979650505050505050565b6000602082019050613a4660008301846139ac565b92915050565b60008060408385031215613a6357613a626130c5565b5b600083013567ffffffffffffffff811115613a8157613a806130ca565b5b613a8d85828601613389565b9250506020613a9e858286016130f0565b9150509250929050565b6000602082019050613abd6000830184613991565b92915050565b613acc816130cf565b82525050565b7f4e487b7100000000000000000000000000000000000000000000000000000000600052602160045260246000fd5b60038110613b1257613b11613ad2565b5b50565b6000819050613b2382613b01565b919050565b6000613b3382613b15565b9050919050565b613b4381613b28565b82525050565b6000610100820190508181036000830152613b64818b613189565b90508181036020830152613b78818a613189565b9050613b876040830189613ac3565b8181036060830152613b998188613189565b90508181036080830152613bad8187613189565b9050613bbc60a0830186613991565b613bc960c0830185613b3a565b613bd660e08301846139ac565b9998505050505050505050565b60008060008060808587031215613bfd57613bfc6130c5565b5b6000613c0b8782880161322d565b945050602085013567ffffffffffffffff811115613c2c57613c2b6130ca565b5b613c3887828801613389565b935050604085013567ffffffffffffffff811115613c5957613c586130ca565b5b613c6587828801613389565b925050606085013567ffffffffffffffff811115613c8657613c856130ca565b5b613c9287828801613389565b91505092959194509250565b60048110613caf57613cae613ad2565b5b50565b6000819050613cc082613c9e565b919050565b6000613cd082613cb2565b9050919050565b613ce081613cc5565b82525050565b6000602082019050613cfb6000830184613cd7565b92915050565b7f4e487b7100000000000000000000000000000000000000000000000000000000600052602260045260246000fd5b60006002820490506001821680613d4857607f821691505b602082108103613d5b57613d5a613d01565b5b50919050565b600081905092915050565b6000613d7782613132565b613d818185613d61565b9350613d9181856020860161314e565b80840191505092915050565b6000613da98284613d6c565b915081905092915050565b60008190508160005260206000209050919050565b60006020601f8301049050919050565b600082821b905092915050565b600060088302613e167fffffffffffffffffffffffffffffffffffffffffffffffffffffffffffffffff82613dd9565b613e208683613dd9565b95508019841693508086168417925050509392505050565b6000819050919050565b6000613e5d613e58613e53846130cf565b613e38565b6130cf565b9050919050565b6000819050919050565b613e7783613e42565b613e8b613e8382613e64565b848454613de6565b825550505050565b600090565b613ea0613e93565b613eab818484613e6e565b505050565b5b81811015613ecf57613ec4600082613e98565b600181019050613eb1565b5050565b601f821115613f1457613ee581613db4565b613eee84613dc9565b81016020851015613efd578190505b613f11613f0985613dc9565b830182613eb0565b50505b505050565b600082821c905092915050565b6000613f3760001984600802613f19565b1980831691505092915050565b6000613f508383613f26565b9150826002028217905092915050565b613f6982613132565b67ffffffffffffffff811115613f8257613f8161328c565b5b613f8c8254613d30565b613f97828285613ed3565b600060209050601f831160018114613fca5760008415613fb8578287015190505b613fc28582613f44565b86555061402a565b601f198416613fd886613db4565b60005b8281101561400057848901518255600182019150602085019450602081019050613fdb565b8683101561401d5784890151614019601f891682613f26565b8355505b6001600288020188555050505b505050505050565b7f4e487b7100000000000000000000000000000000000000000000000000000000600052603260045260246000fd5b7f4e487b7100000000000000000000000000000000000000000000000000000000600052601160045260246000fd5b600061409b826130cf565b91507fffffffffffffffffffffffffffffffffffffffffffffffffffffffffffffffff82036140cd576140cc614061565b5b600182019050919050565b6000815490506140e781613d30565b9050919050565b60008190508160005260206000209050919050565b8181036141115750506141e9565b61411a826140d8565b67ffffffffffffffff8111156141335761413261328c565b5b61413d8254613d30565b614148828285613ed3565b6000601f8311600181146141775760008415614165578287015490505b61416f8582613f44565b8655506141e2565b601f198416614185876140ee565b965061419086613db4565b60005b828110156141b857848901548255600182019150600185019450602081019050614193565b868310156141d557848901546141d1601f891682613f26565b8355505b6001600288020188555050505b5050505050505b565b50565b60006141fb600083613d61565b9150614206826141eb565b600082019050919050565b600061421c826141ee565b9150819050919050565b60008154905061423581613d30565b9050919050565b81810361424a575050614322565b61425382614226565b67ffffffffffffffff81111561426c5761426b61328c565b5b6142768254613d30565b614281828285613ed3565b6000601f8311600181146142b0576000841561429e578287015490505b6142a88582613f44565b86555061431b565b601f1984166142be87613db4565b96506142c986613db4565b60005b828110156142f1578489015482556001820191506001850194506020810190506142cc565b8683101561430e578489015461430a601f891682613f26565b8355505b6001600288020188555050505b5050505050505b565b6000815461433181613d30565b61433b8186613d61565b94506001821660008114614356576001811461436b5761439e565b60ff198316865281151582028601935061439e565b61437485613db4565b60005b8381101561439657815481890152600182019150602081019050614377565b838801955050505b50505092915050565b60006143b38284614324565b915081905092915050565b60006143c9826130cf565b91506143d4836130cf565b92508282039050818111156143ec576143eb614061565b5b92915050565b7f4e487b7100000000000000000000000000000000000000000000000000000000600052603160045260246000fdfea2646970667358221220dd365e5b24dfad7dc81f7fd46b9fc25bdbcaac579fb36254f39dba010fd20a4164736f6c63430008130033",
  "immutableReferences": {},
  "source": "// SPDX-License-Identifier: GPL-3.0\r\npragma solidity >=0.8.1 <0.9.0;\r\n\r\ncontract Land {\r\n\r\n    address owner;\r\n\r\n    uint countOfGovtOfficials;\r\n\r\n    struct User {\r\n        address id;\r\n        string name;\r\n        string email;\r\n        bool isMember;\r\n        bool isOfficial;\r\n        string govtId;\r\n    }\r\n\r\n    enum LandStatus {\r\n        Registered,\r\n        Approved,\r\n        Rejected\r\n    }\r\n\r\n    enum RequestStatus {\r\n        Pending,\r\n        Accepted,\r\n        Rejected,\r\n        Sell\r\n    }\r\n\r\n    struct LandDetails {\r\n        string id;\r\n        string landAddress;\r\n        uint price;\r\n        string ipfsHash;\r\n        string ownerName;\r\n        address ownerAccount;\r\n        LandStatus status;\r\n        bool sell;\r\n    }\r\n\r\n    mapping(address => User) public Users;\r\n    mapping(address => User) public GovtOfficial;\r\n    mapping(address => string[]) public UserAssets;\r\n    mapping(string => LandDetails) public Lands;\r\n    mapping(string => address[]) public InterestedBuyers;\r\n    mapping(address => mapping(string => RequestStatus)) public LandRequestAccess;\r\n    mapping(LandStatus => string[]) Status;\r\n    mapping(address => string[]) public requestedLands;\r\n    mapping(string => bool) public ipfs;\r\n\r\n    string[] public LandsforSale;\r\n\r\n    constructor() {\r\n        owner = msg.sender;\r\n    }\r\n\r\n    function addUser(address _id, string memory _name, string memory _email, string memory _govtId) public {\r\n        bool isofficial = keccak256(abi.encodePacked(_govtId)) == keccak256(abi.encodePacked('')) ? false : true;\r\n        Users[_id] = User(_id, _name, _email, true, isofficial, _govtId);\r\n        if (isofficial) {\r\n            GovtOfficial[_id] = Users[_id];\r\n            countOfGovtOfficials++;\r\n        }\r\n    }\r\n\r\n    function getRegisteredLands() public view returns (string[] memory) {\r\n        return Status[LandStatus.Registered];\r\n    }\r\n\r\n    function registerLand(string memory _id, string memory _landAddress, uint _price, string memory _ipfsHash, address _ownerAccount) public {\r\n        Lands[_id] = LandDetails(_id, _landAddress, _price, _ipfsHash, Users[_ownerAccount].name, _ownerAccount, LandStatus.Registered, false);\r\n        ipfs[_ipfsHash] = true;\r\n        UserAssets[_ownerAccount].push(_id);\r\n        Status[LandStatus.Registered].push(_id);\r\n    }\r\n\r\n    function removeFromRegistered(string memory _id) private {\r\n        for (uint i = 0; i < Status[LandStatus.Registered].length; i++) {\r\n            if (keccak256(abi.encodePacked(Status[LandStatus.Registered][i])) == keccak256(abi.encodePacked(_id))) {\r\n                Status[LandStatus.Registered][i] = Status[LandStatus.Registered][Status[LandStatus.Registered].length - 1];\r\n                break;\r\n            }\r\n        }\r\n        Status[LandStatus.Registered].pop();\r\n    }\r\n\r\n    function changeStatus(string[] memory _approvedLands, string[] memory _rejectedLands) public {\r\n        for (uint i = 0; i < _approvedLands.length; i++) {\r\n            Lands[_approvedLands[i]].status = LandStatus.Approved;\r\n            Status[LandStatus.Approved].push(_approvedLands[i]);\r\n            removeFromRegistered(_approvedLands[i]);\r\n        }\r\n        for (uint i = 0; i < _rejectedLands.length; i++) {\r\n            Lands[_rejectedLands[i]].status = LandStatus.Rejected;\r\n            Status[LandStatus.Rejected].push(_rejectedLands[i]);\r\n            removeFromRegistered(_rejectedLands[i]);\r\n        }\r\n    }\r\n\r\n    function auctionLand(string memory _id) public {\r\n        if (Lands[_id].status == LandStatus.Approved) {\r\n            Lands[_id].sell = true;\r\n            LandsforSale.push(_id);\r\n        }\r\n    }\r\n\r\n    function getAllLandsforSale() public view returns (string[] memory) {\r\n        return LandsforSale;\r\n    }\r\n\r\n    function getUserAssets(address _id) public view returns (string[] memory) {\r\n        return UserAssets[_id];\r\n    }\r\n\r\n    function requestLandDetails(string memory _id, address _account) public {\r\n        LandRequestAccess[_account][_id] = RequestStatus.Pending;\r\n        requestedLands[_account].push(_id);\r\n        InterestedBuyers[_id].push(_account);\r\n    }\r\n\r\n    function getLandRequestAccess(string[] memory _id, address _account) public view returns (string[] memory) {\r\n        string[] memory access = new string[](_id.length);\r\n        for (uint i = 0; i < _id.length; i++) {\r\n            RequestStatus x = LandRequestAccess[_account][_id[i]];\r\n            access[i] = (x == RequestStatus.Pending ? \"Pending\" : (x == RequestStatus.Accepted ? \"Accepted\" : (x == RequestStatus.Rejected ? \"Pending\" : \"Sell\")));\r\n        }\r\n        return access;\r\n    }\r\n\r\n    function getRequestedLands(address _account) public view returns (string[] memory) {\r\n        return requestedLands[_account];\r\n    }\r\n\r\n    function sellLand(string memory _id, address _account) public {\r\n        LandRequestAccess[_account][_id] = RequestStatus.Sell;\r\n    }\r\n\r\n    function interested(string memory _id) public view returns (string[] memory, address[] memory) {\r\n        string[] memory userNames = new string[](InterestedBuyers[_id].length);\r\n        address[] memory userIds = new address[](InterestedBuyers[_id].length);\r\n        for (uint i = 0; i < InterestedBuyers[_id].length; i++) {\r\n            userNames[i] = Users[InterestedBuyers[_id][i]].name;\r\n            userIds[i] = InterestedBuyers[_id][i];\r\n        }\r\n        return (userNames, userIds);\r\n    }\r\n\r\n    function requestApprove(address _account, string memory _id) public {\r\n        LandRequestAccess[_account][_id] = RequestStatus.Accepted;\r\n    }\r\n\r\n    function requestReject(address _account, string memory _id) public {\r\n        LandRequestAccess[_account][_id] = RequestStatus.Rejected;\r\n    }\r\n\r\n    function removeAsset(address _account, string memory _id) private {\r\n        for (uint i = 0; i < UserAssets[_account].length; i++) {\r\n            if (keccak256(abi.encodePacked(UserAssets[_account][i])) == keccak256(abi.encodePacked(_id))) {\r\n                UserAssets[_account][i] = UserAssets[_account][UserAssets[_account].length - 1];\r\n                break;\r\n            }\r\n        }\r\n        UserAssets[_account].pop();\r\n    }\r\n\r\n    function removeRequestAccess(string memory _id) private {\r\n        for (uint i = 0; i < InterestedBuyers[_id].length; i++) {\r\n            delete LandRequestAccess[InterestedBuyers[_id][i]][_id];\r\n        }\r\n    }\r\n\r\n    function removeFromLandForSale(string memory _id) private {\r\n        if (LandsforSale.length == 1 && keccak256(abi.encodePacked(LandsforSale[0])) == keccak256(abi.encodePacked(_id))) {\r\n            LandsforSale = new string[](0);\r\n        }\r\n        else {\r\n            for (uint i = 0; i < LandsforSale.length; i++) {\r\n                if (keccak256(abi.encodePacked(LandsforSale[i])) == keccak256(abi.encodePacked(_id))) {\r\n                    LandsforSale[i] = LandsforSale[LandsforSale.length - 1];\r\n                    break;\r\n                }\r\n            }\r\n            LandsforSale.pop();\r\n        }\r\n    }\r\n\r\n    function changeOwnership(string memory _id, address _newAccount) public {\r\n        removeAsset(Lands[_id].ownerAccount, _id);\r\n        Lands[_id].sell = false;\r\n        Lands[_id].ownerName = Users[_newAccount].name;\r\n        Lands[_id].ownerAccount = _newAccount;\r\n        UserAssets[_newAccount].push(_id);\r\n        removeRequestAccess(_id);\r\n        delete InterestedBuyers[_id];\r\n        removeFromLandForSale(_id);\r\n    }\r\n}\r\n",
  "sourcePath": "D:\\Programs\\Blockchain\\freeCodeCamp\\Ethereum_based_Land_Management_System\\contracts\\Land.sol",
  "compiler": {
    "name": "solc",
    "version": "0.8.19+commit.7dd6d404.Emscripten.clang"
  },
  "schemaVersion": "3.4.13",
  "updatedAt": "2023-04-19T23:49:07.731Z",
  "networkType": "ethereum",
  "devdoc": {
    "kind": "dev",
    "methods": {},
    "version": 1
  },
  "userdoc": {
    "kind": "user",
    "methods": {},
    "version": 1
  }
}