{
  "contractName": "Land",
  "abi": [
    {
      "inputs": [],
      "stateMutability": "nonpayable",
      "type": "constructor"
    },
    {
      "inputs": [
        {
          "internalType": "address",
          "name": "",
          "type": "address"
        }
      ],
      "name": "GovtOfficial",
      "outputs": [
        {
          "internalType": "address",
          "name": "id",
          "type": "address"
        },
        {
          "internalType": "string",
          "name": "name",
          "type": "string"
        },
        {
          "internalType": "string",
          "name": "email",
          "type": "string"
        },
        {
          "internalType": "bool",
          "name": "isMember",
          "type": "bool"
        },
        {
          "internalType": "bool",
          "name": "isOfficial",
          "type": "bool"
        },
        {
          "internalType": "string",
          "name": "govtId",
          "type": "string"
        }
      ],
      "stateMutability": "view",
      "type": "function"
    },
    {
      "inputs": [
        {
          "internalType": "string",
          "name": "",
          "type": "string"
        },
        {
          "internalType": "uint256",
          "name": "",
          "type": "uint256"
        }
      ],
      "name": "InterestedBuyers",
      "outputs": [
        {
          "internalType": "address",
          "name": "",
          "type": "address"
        }
      ],
      "stateMutability": "view",
      "type": "function"
    },
    {
      "inputs": [
        {
          "internalType": "address",
          "name": "",
          "type": "address"
        },
        {
          "internalType": "string",
          "name": "",
          "type": "string"
        }
      ],
      "name": "LandRequestAccess",
      "outputs": [
        {
          "internalType": "enum Land.RequestStatus",
          "name": "",
          "type": "uint8"
        }
      ],
      "stateMutability": "view",
      "type": "function"
    },
    {
      "inputs": [
        {
          "internalType": "string",
          "name": "",
          "type": "string"
        }
      ],
      "name": "Lands",
      "outputs": [
        {
          "internalType": "string",
          "name": "id",
          "type": "string"
        },
        {
          "internalType": "string",
          "name": "landAddress",
          "type": "string"
        },
        {
          "internalType": "uint256",
          "name": "price",
          "type": "uint256"
        },
        {
          "internalType": "string",
          "name": "ipfsHash",
          "type": "string"
        },
        {
          "internalType": "string",
          "name": "ownerName",
          "type": "string"
        },
        {
          "internalType": "address",
          "name": "ownerAccount",
          "type": "address"
        },
        {
          "internalType": "enum Land.LandStatus",
          "name": "status",
          "type": "uint8"
        },
        {
          "internalType": "bool",
          "name": "sell",
          "type": "bool"
        }
      ],
      "stateMutability": "view",
      "type": "function"
    },
    {
      "inputs": [
        {
          "internalType": "uint256",
          "name": "",
          "type": "uint256"
        }
      ],
      "name": "LandsforSale",
      "outputs": [
        {
          "internalType": "string",
          "name": "",
          "type": "string"
        }
      ],
      "stateMutability": "view",
      "type": "function"
    },
    {
      "inputs": [
        {
          "internalType": "address",
          "name": "",
          "type": "address"
        },
        {
          "internalType": "uint256",
          "name": "",
          "type": "uint256"
        }
      ],
      "name": "UserAssets",
      "outputs": [
        {
          "internalType": "string",
          "name": "",
          "type": "string"
        }
      ],
      "stateMutability": "view",
      "type": "function"
    },
    {
      "inputs": [
        {
          "internalType": "address",
          "name": "",
          "type": "address"
        }
      ],
      "name": "Users",
      "outputs": [
        {
          "internalType": "address",
          "name": "id",
          "type": "address"
        },
        {
          "internalType": "string",
          "name": "name",
          "type": "string"
        },
        {
          "internalType": "string",
          "name": "email",
          "type": "string"
        },
        {
          "internalType": "bool",
          "name": "isMember",
          "type": "bool"
        },
        {
          "internalType": "bool",
          "name": "isOfficial",
          "type": "bool"
        },
        {
          "internalType": "string",
          "name": "govtId",
          "type": "string"
        }
      ],
      "stateMutability": "view",
      "type": "function"
    },
    {
      "inputs": [
        {
          "internalType": "address",
          "name": "_id",
          "type": "address"
        },
        {
          "internalType": "string",
          "name": "_name",
          "type": "string"
        },
        {
          "internalType": "string",
          "name": "_email",
          "type": "string"
        },
        {
          "internalType": "string",
          "name": "_govtId",
          "type": "string"
        }
      ],
      "name": "addUser",
      "outputs": [],
      "stateMutability": "nonpayable",
      "type": "function"
    },
    {
      "inputs": [],
      "name": "getRegisteredLands",
      "outputs": [
        {
          "internalType": "string[]",
          "name": "",
          "type": "string[]"
        }
      ],
      "stateMutability": "view",
      "type": "function"
    },
    {
      "inputs": [
        {
          "internalType": "string",
          "name": "_id",
          "type": "string"
        },
        {
          "internalType": "string",
          "name": "_landAddress",
          "type": "string"
        },
        {
          "internalType": "uint256",
          "name": "_price",
          "type": "uint256"
        },
        {
          "internalType": "string",
          "name": "_ipfsHash",
          "type": "string"
        },
        {
          "internalType": "address",
          "name": "_ownerAccount",
          "type": "address"
        }
      ],
      "name": "registerLand",
      "outputs": [],
      "stateMutability": "nonpayable",
      "type": "function"
    },
    {
      "inputs": [
        {
          "internalType": "string[]",
          "name": "_approvedLands",
          "type": "string[]"
        },
        {
          "internalType": "string[]",
          "name": "_rejectedLands",
          "type": "string[]"
        }
      ],
      "name": "changeStatus",
      "outputs": [],
      "stateMutability": "nonpayable",
      "type": "function"
    },
    {
      "inputs": [
        {
          "internalType": "string",
          "name": "_id",
          "type": "string"
        }
      ],
      "name": "auctionLand",
      "outputs": [],
      "stateMutability": "nonpayable",
      "type": "function"
    },
    {
      "inputs": [],
      "name": "getAllLandsforSale",
      "outputs": [
        {
          "internalType": "string[]",
          "name": "",
          "type": "string[]"
        }
      ],
      "stateMutability": "view",
      "type": "function"
    },
    {
      "inputs": [
        {
          "internalType": "address",
          "name": "_id",
          "type": "address"
        }
      ],
      "name": "getUserAssets",
      "outputs": [
        {
          "internalType": "string[]",
          "name": "",
          "type": "string[]"
        }
      ],
      "stateMutability": "view",
      "type": "function"
    },
    {
      "inputs": [
        {
          "internalType": "string",
          "name": "_id",
          "type": "string"
        },
        {
          "internalType": "address",
          "name": "_account",
          "type": "address"
        }
      ],
      "name": "requestLandDetails",
      "outputs": [],
      "stateMutability": "nonpayable",
      "type": "function"
    },
    {
      "inputs": [
        {
          "internalType": "string",
          "name": "_id",
          "type": "string"
        },
        {
          "internalType": "address",
          "name": "_account",
          "type": "address"
        },
        {
          "internalType": "enum Land.RequestStatus",
          "name": "_status",
          "type": "uint8"
        }
      ],
      "name": "showLandRequests",
      "outputs": [],
      "stateMutability": "nonpayable",
      "type": "function"
    },
    {
      "inputs": [
        {
          "internalType": "string",
          "name": "_id",
          "type": "string"
        },
        {
          "internalType": "address",
          "name": "_oldAccount",
          "type": "address"
        },
        {
          "internalType": "address",
          "name": "_newAccount",
          "type": "address"
        },
        {
          "internalType": "bool",
          "name": "_transfered",
          "type": "bool"
        }
      ],
      "name": "changeOwnership",
      "outputs": [],
      "stateMutability": "nonpayable",
      "type": "function"
    }
  ],
  "bytecode": "0x608060405234801561001057600080fd5b50336000806101000a81548173ffffffffffffffffffffffffffffffffffffffff021916908373ffffffffffffffffffffffffffffffffffffffff16021790555061377d806100606000396000f3fe608060405234801561001057600080fd5b506004361061010b5760003560e01c806399b956a0116100a2578063bd99108f11610071578063bd99108f146102e4578063c6361c221461031b578063ce073c1f14610337578063e92cc75714610355578063f8c7742d146103715761010b565b806399b956a01461022e5780639de9f63814610263578063a23092b414610298578063a77d76ec146102b45761010b565b8063765ff061116100de578063765ff06114610196578063813eff26146101c65780638800eeec146101e25780638de082fd146102125761010b565b806307176f63146101105780631bcae1b2146101405780632aee199b1461015c57806365e6af3214610178575b600080fd5b61012a60048036038101906101259190612454565b6103a1565b6040516101379190612511565b60405180910390f35b61015a60048036038101906101559190612668565b61044d565b005b61017660048036038101906101719190612797565b61051a565b005b610180610775565b60405161018d919061291b565b60405180910390f35b6101b060048036038101906101ab919061299b565b61084e565b6040516101bd919061291b565b60405180910390f35b6101e060048036038101906101db91906129ed565b610966565b005b6101fc60048036038101906101f79190612a5c565b6109ee565b6040516102099190612511565b60405180910390f35b61022c60048036038101906102279190612a9c565b610aa7565b005b6102486004803603810190610243919061299b565b610dd4565b60405161025a96959493929190612b95565b60405180910390f35b61027d6004803603810190610278919061299b565b610fe2565b60405161028f96959493929190612b95565b60405180910390f35b6102b260048036038101906102ad9190612c0b565b6111f0565b005b6102ce60048036038101906102c99190612c67565b611278565b6040516102db9190612cc3565b60405180910390f35b6102fe60048036038101906102f99190612668565b6112dc565b604051610312989796959493929190612d64565b60405180910390f35b61033560048036038101906103309190612dfe565b611594565b005b61033f6118ed565b60405161034c919061291b565b60405180910390f35b61036f600480360381019061036a9190612ee5565b6119fb565b005b61038b60048036038101906103869190612f68565b611b5a565b604051610398919061300c565b60405180910390f35b600981815481106103b157600080fd5b9060005260206000200160009150905080546103cc90613056565b80601f01602080910402602001604051908101604052809291908181526020018280546103f890613056565b80156104455780601f1061041a57610100808354040283529160200191610445565b820191906000526020600020905b81548152906001019060200180831161042857829003601f168201915b505050505081565b6001600281111561046157610460612ced565b5b60058260405161047191906130c3565b908152602001604051809103902060050160149054906101000a900460ff1660028111156104a2576104a1612ced565b5b036105175760016005826040516104b991906130c3565b908152602001604051809103902060050160156101000a81548160ff0219169083151502179055506009819080600181540180825580915050600190039060005260206000200160009091909190915090816105159190613286565b505b50565b60005b8251811015610645576001600584838151811061053d5761053c613358565b5b602002602001015160405161055291906130c3565b908152602001604051809103902060050160146101000a81548160ff0219169083600281111561058557610584612ced565b5b021790555060086000600160028111156105a2576105a1612ced565b5b60028111156105b4576105b3612ced565b5b81526020019081526020016000208382815181106105d5576105d4613358565b5b602002602001015190806001815401808255809150506001900390600052602060002001600090919091909150908161060e9190613286565b5061063283828151811061062557610624613358565b5b6020026020010151611b9f565b808061063d906133b6565b91505061051d565b5060005b8151811015610770576002600583838151811061066957610668613358565b5b602002602001015160405161067e91906130c3565b908152602001604051809103902060050160146101000a81548160ff021916908360028111156106b1576106b0612ced565b5b0217905550600860006002808111156106cd576106cc612ced565b5b60028111156106df576106de612ced565b5b8152602001908152602001600020828281518110610700576106ff613358565b5b60200260200101519080600181540180825580915050600190039060005260206000200160009091909190915090816107399190613286565b5061075d8282815181106107505761074f613358565b5b6020026020010151611b9f565b8080610768906133b6565b915050610649565b505050565b60606009805480602002602001604051908101604052809291908181526020016000905b828210156108455783829060005260206000200180546107b890613056565b80601f01602080910402602001604051908101604052809291908181526020018280546107e490613056565b80156108315780601f1061080657610100808354040283529160200191610831565b820191906000526020600020905b81548152906001019060200180831161081457829003601f168201915b505050505081526020019060010190610799565b50505050905090565b6060600460008373ffffffffffffffffffffffffffffffffffffffff1673ffffffffffffffffffffffffffffffffffffffff168152602001908152602001600020805480602002602001604051908101604052809291908181526020016000905b8282101561095b5783829060005260206000200180546108ce90613056565b80601f01602080910402602001604051908101604052809291908181526020018280546108fa90613056565b80156109475780601f1061091c57610100808354040283529160200191610947565b820191906000526020600020905b81548152906001019060200180831161092a57829003601f168201915b5050505050815260200190600101906108af565b505050509050919050565b80600760008473ffffffffffffffffffffffffffffffffffffffff1673ffffffffffffffffffffffffffffffffffffffff168152602001908152602001600020846040516109b491906130c3565b908152602001604051809103902060006101000a81548160ff021916908360028111156109e4576109e3612ced565b5b0217905550505050565b60046020528160005260406000208181548110610a0a57600080fd5b90600052602060002001600091509150508054610a2690613056565b80601f0160208091040260200160405190810160405280929190818152602001828054610a5290613056565b8015610a9f5780601f10610a7457610100808354040283529160200191610a9f565b820191906000526020600020905b815481529060010190602001808311610a8257829003601f168201915b505050505081565b604051806101000160405280868152602001858152602001848152602001838152602001600260008473ffffffffffffffffffffffffffffffffffffffff1673ffffffffffffffffffffffffffffffffffffffff1681526020019081526020016000206001018054610b1890613056565b80601f0160208091040260200160405190810160405280929190818152602001828054610b4490613056565b8015610b915780601f10610b6657610100808354040283529160200191610b91565b820191906000526020600020905b815481529060010190602001808311610b7457829003601f168201915b505050505081526020018273ffffffffffffffffffffffffffffffffffffffff16815260200160006002811115610bcb57610bca612ced565b5b815260200160001515815250600586604051610be791906130c3565b90815260200160405180910390206000820151816000019081610c0a9190613286565b506020820151816001019081610c209190613286565b50604082015181600201556060820151816003019081610c409190613286565b506080820151816004019081610c569190613286565b5060a08201518160050160006101000a81548173ffffffffffffffffffffffffffffffffffffffff021916908373ffffffffffffffffffffffffffffffffffffffff16021790555060c08201518160050160146101000a81548160ff02191690836002811115610cc957610cc8612ced565b5b021790555060e08201518160050160156101000a81548160ff021916908315150217905550905050600460008273ffffffffffffffffffffffffffffffffffffffff1673ffffffffffffffffffffffffffffffffffffffff16815260200190815260200160002085908060018154018082558091505060019003906000526020600020016000909190919091509081610d629190613286565b5060086000806002811115610d7a57610d79612ced565b5b6002811115610d8c57610d8b612ced565b5b815260200190815260200160002085908060018154018082558091505060019003906000526020600020016000909190919091509081610dcc9190613286565b505050505050565b60026020528060005260406000206000915090508060000160009054906101000a900473ffffffffffffffffffffffffffffffffffffffff1690806001018054610e1d90613056565b80601f0160208091040260200160405190810160405280929190818152602001828054610e4990613056565b8015610e965780601f10610e6b57610100808354040283529160200191610e96565b820191906000526020600020905b815481529060010190602001808311610e7957829003601f168201915b505050505090806002018054610eab90613056565b80601f0160208091040260200160405190810160405280929190818152602001828054610ed790613056565b8015610f245780601f10610ef957610100808354040283529160200191610f24565b820191906000526020600020905b815481529060010190602001808311610f0757829003601f168201915b5050505050908060030160009054906101000a900460ff16908060030160019054906101000a900460ff1690806004018054610f5f90613056565b80601f0160208091040260200160405190810160405280929190818152602001828054610f8b90613056565b8015610fd85780601f10610fad57610100808354040283529160200191610fd8565b820191906000526020600020905b815481529060010190602001808311610fbb57829003601f168201915b5050505050905086565b60036020528060005260406000206000915090508060000160009054906101000a900473ffffffffffffffffffffffffffffffffffffffff169080600101805461102b90613056565b80601f016020809104026020016040519081016040528092919081815260200182805461105790613056565b80156110a45780601f10611079576101008083540402835291602001916110a4565b820191906000526020600020905b81548152906001019060200180831161108757829003601f168201915b5050505050908060020180546110b990613056565b80601f01602080910402602001604051908101604052809291908181526020018280546110e590613056565b80156111325780601f1061110757610100808354040283529160200191611132565b820191906000526020600020905b81548152906001019060200180831161111557829003601f168201915b5050505050908060030160009054906101000a900460ff16908060030160019054906101000a900460ff169080600401805461116d90613056565b80601f016020809104026020016040519081016040528092919081815260200182805461119990613056565b80156111e65780601f106111bb576101008083540402835291602001916111e6565b820191906000526020600020905b8154815290600101906020018083116111c957829003601f168201915b5050505050905086565b6000600760008373ffffffffffffffffffffffffffffffffffffffff1673ffffffffffffffffffffffffffffffffffffffff1681526020019081526020016000208360405161123f91906130c3565b908152602001604051809103902060006101000a81548160ff0219169083600281111561126f5761126e612ced565b5b02179055505050565b60068280516020810182018051848252602083016020850120818352809550505050505081815481106112aa57600080fd5b906000526020600020016000915091509054906101000a900473ffffffffffffffffffffffffffffffffffffffff1681565b60058180516020810182018051848252602083016020850120818352809550505050505060009150905080600001805461131590613056565b80601f016020809104026020016040519081016040528092919081815260200182805461134190613056565b801561138e5780601f106113635761010080835404028352916020019161138e565b820191906000526020600020905b81548152906001019060200180831161137157829003601f168201915b5050505050908060010180546113a390613056565b80601f01602080910402602001604051908101604052809291908181526020018280546113cf90613056565b801561141c5780601f106113f15761010080835404028352916020019161141c565b820191906000526020600020905b8154815290600101906020018083116113ff57829003601f168201915b50505050509080600201549080600301805461143790613056565b80601f016020809104026020016040519081016040528092919081815260200182805461146390613056565b80156114b05780601f10611485576101008083540402835291602001916114b0565b820191906000526020600020905b81548152906001019060200180831161149357829003601f168201915b5050505050908060040180546114c590613056565b80601f01602080910402602001604051908101604052809291908181526020018280546114f190613056565b801561153e5780601f106115135761010080835404028352916020019161153e565b820191906000526020600020905b81548152906001019060200180831161152157829003601f168201915b5050505050908060050160009054906101000a900473ffffffffffffffffffffffffffffffffffffffff16908060050160149054906101000a900460ff16908060050160159054906101000a900460ff16905088565b60006040516020016115a590613424565b60405160208183030381529060405280519060200120826040516020016115cc91906130c3565b60405160208183030381529060405280519060200120146115ee5760016115f1565b60005b90506040518060c001604052808673ffffffffffffffffffffffffffffffffffffffff168152602001858152602001848152602001600115158152602001821515815260200183815250600260008773ffffffffffffffffffffffffffffffffffffffff1673ffffffffffffffffffffffffffffffffffffffff16815260200190815260200160002060008201518160000160006101000a81548173ffffffffffffffffffffffffffffffffffffffff021916908373ffffffffffffffffffffffffffffffffffffffff16021790555060208201518160010190816116d69190613286565b5060408201518160020190816116ec9190613286565b5060608201518160030160006101000a81548160ff02191690831515021790555060808201518160030160016101000a81548160ff02191690831515021790555060a08201518160040190816117429190613286565b5090505080156118e657600260008673ffffffffffffffffffffffffffffffffffffffff1673ffffffffffffffffffffffffffffffffffffffff168152602001908152602001600020600360008773ffffffffffffffffffffffffffffffffffffffff1673ffffffffffffffffffffffffffffffffffffffff1681526020019081526020016000206000820160009054906101000a900473ffffffffffffffffffffffffffffffffffffffff168160000160006101000a81548173ffffffffffffffffffffffffffffffffffffffff021916908373ffffffffffffffffffffffffffffffffffffffff16021790555060018201816001019081611845919061344f565b506002820181600201908161185a919061344f565b506003820160009054906101000a900460ff168160030160006101000a81548160ff0219169083151502179055506003820160019054906101000a900460ff168160030160016101000a81548160ff021916908315150217905550600482018160040190816118c9919061344f565b50905050600160008154809291906118e0906133b6565b91905055505b5050505050565b60606008600080600281111561190657611905612ced565b5b600281111561191857611917612ced565b5b8152602001908152602001600020805480602002602001604051908101604052809291908181526020016000905b828210156119f257838290600052602060002001805461196590613056565b80601f016020809104026020016040519081016040528092919081815260200182805461199190613056565b80156119de5780601f106119b3576101008083540402835291602001916119de565b820191906000526020600020905b8154815290600101906020018083116119c157829003601f168201915b505050505081526020019060010190611946565b50505050905090565b8015611b545781600585604051611a1291906130c3565b908152602001604051809103902060050160006101000a81548173ffffffffffffffffffffffffffffffffffffffff021916908373ffffffffffffffffffffffffffffffffffffffff160217905550611a6b8385611e03565b600460008373ffffffffffffffffffffffffffffffffffffffff1673ffffffffffffffffffffffffffffffffffffffff16815260200190815260200160002084908060018154018082558091505060019003906000526020600020016000909190919091509081611adc9190613286565b50611ae6846120e1565b600684604051611af691906130c3565b90815260200160405180910390206000611b10919061230f565b611b19846121e9565b6000600585604051611b2b91906130c3565b908152602001604051809103902060050160156101000a81548160ff0219169083151502179055505b50505050565b6007602052816000526040600020818051602081018201805184825260208301602085012081835280955050505050506000915091509054906101000a900460ff1681565b60005b60086000806002811115611bb957611bb8612ced565b5b6002811115611bcb57611bca612ced565b5b815260200190815260200160002080549050811015611d9a5781604051602001611bf591906130c3565b6040516020818303038152906040528051906020012060086000806002811115611c2257611c21612ced565b5b6002811115611c3457611c33612ced565b5b81526020019081526020016000208281548110611c5457611c53613358565b5b90600052602060002001604051602001611c6e91906135ba565b6040516020818303038152906040528051906020012003611d875760086000806002811115611ca057611c9f612ced565b5b6002811115611cb257611cb1612ced565b5b8152602001908152602001600020600160086000806002811115611cd957611cd8612ced565b5b6002811115611ceb57611cea612ced565b5b815260200190815260200160002080549050611d0791906135d1565b81548110611d1857611d17613358565b5b9060005260206000200160086000806002811115611d3957611d38612ced565b5b6002811115611d4b57611d4a612ced565b5b81526020019081526020016000208281548110611d6b57611d6a613358565b5b906000526020600020019081611d819190613630565b50611d9a565b8080611d92906133b6565b915050611ba2565b5060086000806002811115611db257611db1612ced565b5b6002811115611dc457611dc3612ced565b5b8152602001908152602001600020805480611de257611de1613718565b5b600190038181906000526020600020016000611dfe9190612330565b905550565b6000600460008473ffffffffffffffffffffffffffffffffffffffff1673ffffffffffffffffffffffffffffffffffffffff168152602001908152602001600020805490509050600080600183611e5a91906135d1565b67ffffffffffffffff811115611e7357611e7261253d565b5b604051908082528060200260200182016040528015611ea657816020015b6060815260200190600190039081611e915790505b50905060005b838110156120855784604051602001611ec591906130c3565b60405160208183030381529060405280519060200120600460008873ffffffffffffffffffffffffffffffffffffffff1673ffffffffffffffffffffffffffffffffffffffff1681526020019081526020016000208281548110611f2c57611f2b613358565b5b90600052602060002001604051602001611f4691906135ba565b604051602081830303815290604052805190602001200361207257600460008773ffffffffffffffffffffffffffffffffffffffff1673ffffffffffffffffffffffffffffffffffffffff1681526020019081526020016000208181548110611fb257611fb1613358565b5b906000526020600020018054611fc790613056565b80601f0160208091040260200160405190810160405280929190818152602001828054611ff390613056565b80156120405780601f1061201557610100808354040283529160200191612040565b820191906000526020600020905b81548152906001019060200180831161202357829003601f168201915b505050505082848151811061205857612057613358565b5b6020026020010181905250828061206e906133b6565b9350505b808061207d906133b6565b915050611eac565b5080600460008773ffffffffffffffffffffffffffffffffffffffff1673ffffffffffffffffffffffffffffffffffffffff16815260200190815260200160002090805190602001906120d9929190612370565b505050505050565b60005b6006826040516120f491906130c3565b9081526020016040518091039020805490508110156121e5576007600060068460405161212191906130c3565b9081526020016040518091039020838154811061214157612140613358565b5b9060005260206000200160009054906101000a900473ffffffffffffffffffffffffffffffffffffffff1673ffffffffffffffffffffffffffffffffffffffff1673ffffffffffffffffffffffffffffffffffffffff168152602001908152602001600020826040516121b491906130c3565b908152602001604051809103902060006101000a81549060ff021916905580806121dd906133b6565b9150506120e4565b5050565b60005b6009805490508110156122db578160405160200161220a91906130c3565b604051602081830303815290604052805190602001206009828154811061223457612233613358565b5b9060005260206000200160405160200161224e91906135ba565b60405160208183030381529060405280519060200120036122c8576009600160098054905061227d91906135d1565b8154811061228e5761228d613358565b5b90600052602060002001600982815481106122ac576122ab613358565b5b9060005260206000200190816122c29190613630565b506122db565b80806122d3906133b6565b9150506121ec565b5060098054806122ee576122ed613718565b5b60019003818190600052602060002001600061230a9190612330565b905550565b508054600082559060005260206000209081019061232d91906123c9565b50565b50805461233c90613056565b6000825580601f1061234e575061236d565b601f01602090049060005260206000209081019061236c91906123c9565b5b50565b8280548282559060005260206000209081019282156123b8579160200282015b828111156123b75782518290816123a79190613286565b5091602001919060010190612390565b5b5090506123c591906123e6565b5090565b5b808211156123e25760008160009055506001016123ca565b5090565b5b8082111561240657600081816123fd9190612330565b506001016123e7565b5090565b6000604051905090565b600080fd5b600080fd5b6000819050919050565b6124318161241e565b811461243c57600080fd5b50565b60008135905061244e81612428565b92915050565b60006020828403121561246a57612469612414565b5b60006124788482850161243f565b91505092915050565b600081519050919050565b600082825260208201905092915050565b60005b838110156124bb5780820151818401526020810190506124a0565b60008484015250505050565b6000601f19601f8301169050919050565b60006124e382612481565b6124ed818561248c565b93506124fd81856020860161249d565b612506816124c7565b840191505092915050565b6000602082019050818103600083015261252b81846124d8565b905092915050565b600080fd5b600080fd5b7f4e487b7100000000000000000000000000000000000000000000000000000000600052604160045260246000fd5b612575826124c7565b810181811067ffffffffffffffff821117156125945761259361253d565b5b80604052505050565b60006125a761240a565b90506125b3828261256c565b919050565b600067ffffffffffffffff8211156125d3576125d261253d565b5b6125dc826124c7565b9050602081019050919050565b82818337600083830152505050565b600061260b612606846125b8565b61259d565b90508281526020810184848401111561262757612626612538565b5b6126328482856125e9565b509392505050565b600082601f83011261264f5761264e612533565b5b813561265f8482602086016125f8565b91505092915050565b60006020828403121561267e5761267d612414565b5b600082013567ffffffffffffffff81111561269c5761269b612419565b5b6126a88482850161263a565b91505092915050565b600067ffffffffffffffff8211156126cc576126cb61253d565b5b602082029050602081019050919050565b600080fd5b60006126f56126f0846126b1565b61259d565b90508083825260208201905060208402830185811115612718576127176126dd565b5b835b8181101561275f57803567ffffffffffffffff81111561273d5761273c612533565b5b80860161274a898261263a565b8552602085019450505060208101905061271a565b5050509392505050565b600082601f83011261277e5761277d612533565b5b813561278e8482602086016126e2565b91505092915050565b600080604083850312156127ae576127ad612414565b5b600083013567ffffffffffffffff8111156127cc576127cb612419565b5b6127d885828601612769565b925050602083013567ffffffffffffffff8111156127f9576127f8612419565b5b61280585828601612769565b9150509250929050565b600081519050919050565b600082825260208201905092915050565b6000819050602082019050919050565b600082825260208201905092915050565b600061285782612481565b612861818561283b565b935061287181856020860161249d565b61287a816124c7565b840191505092915050565b6000612891838361284c565b905092915050565b6000602082019050919050565b60006128b18261280f565b6128bb818561281a565b9350836020820285016128cd8561282b565b8060005b8581101561290957848403895281516128ea8582612885565b94506128f583612899565b925060208a019950506001810190506128d1565b50829750879550505050505092915050565b6000602082019050818103600083015261293581846128a6565b905092915050565b600073ffffffffffffffffffffffffffffffffffffffff82169050919050565b60006129688261293d565b9050919050565b6129788161295d565b811461298357600080fd5b50565b6000813590506129958161296f565b92915050565b6000602082840312156129b1576129b0612414565b5b60006129bf84828501612986565b91505092915050565b600381106129d557600080fd5b50565b6000813590506129e7816129c8565b92915050565b600080600060608486031215612a0657612a05612414565b5b600084013567ffffffffffffffff811115612a2457612a23612419565b5b612a308682870161263a565b9350506020612a4186828701612986565b9250506040612a52868287016129d8565b9150509250925092565b60008060408385031215612a7357612a72612414565b5b6000612a8185828601612986565b9250506020612a928582860161243f565b9150509250929050565b600080600080600060a08688031215612ab857612ab7612414565b5b600086013567ffffffffffffffff811115612ad657612ad5612419565b5b612ae28882890161263a565b955050602086013567ffffffffffffffff811115612b0357612b02612419565b5b612b0f8882890161263a565b9450506040612b208882890161243f565b935050606086013567ffffffffffffffff811115612b4157612b40612419565b5b612b4d8882890161263a565b9250506080612b5e88828901612986565b9150509295509295909350565b612b748161295d565b82525050565b60008115159050919050565b612b8f81612b7a565b82525050565b600060c082019050612baa6000830189612b6b565b8181036020830152612bbc81886124d8565b90508181036040830152612bd081876124d8565b9050612bdf6060830186612b86565b612bec6080830185612b86565b81810360a0830152612bfe81846124d8565b9050979650505050505050565b60008060408385031215612c2257612c21612414565b5b600083013567ffffffffffffffff811115612c4057612c3f612419565b5b612c4c8582860161263a565b9250506020612c5d85828601612986565b9150509250929050565b60008060408385031215612c7e57612c7d612414565b5b600083013567ffffffffffffffff811115612c9c57612c9b612419565b5b612ca88582860161263a565b9250506020612cb98582860161243f565b9150509250929050565b6000602082019050612cd86000830184612b6b565b92915050565b612ce78161241e565b82525050565b7f4e487b7100000000000000000000000000000000000000000000000000000000600052602160045260246000fd5b60038110612d2d57612d2c612ced565b5b50565b6000819050612d3e82612d1c565b919050565b6000612d4e82612d30565b9050919050565b612d5e81612d43565b82525050565b6000610100820190508181036000830152612d7f818b6124d8565b90508181036020830152612d93818a6124d8565b9050612da26040830189612cde565b8181036060830152612db481886124d8565b90508181036080830152612dc881876124d8565b9050612dd760a0830186612b6b565b612de460c0830185612d55565b612df160e0830184612b86565b9998505050505050505050565b60008060008060808587031215612e1857612e17612414565b5b6000612e2687828801612986565b945050602085013567ffffffffffffffff811115612e4757612e46612419565b5b612e538782880161263a565b935050604085013567ffffffffffffffff811115612e7457612e73612419565b5b612e808782880161263a565b925050606085013567ffffffffffffffff811115612ea157612ea0612419565b5b612ead8782880161263a565b91505092959194509250565b612ec281612b7a565b8114612ecd57600080fd5b50565b600081359050612edf81612eb9565b92915050565b60008060008060808587031215612eff57612efe612414565b5b600085013567ffffffffffffffff811115612f1d57612f1c612419565b5b612f298782880161263a565b9450506020612f3a87828801612986565b9350506040612f4b87828801612986565b9250506060612f5c87828801612ed0565b91505092959194509250565b60008060408385031215612f7f57612f7e612414565b5b6000612f8d85828601612986565b925050602083013567ffffffffffffffff811115612fae57612fad612419565b5b612fba8582860161263a565b9150509250929050565b60038110612fd557612fd4612ced565b5b50565b6000819050612fe682612fc4565b919050565b6000612ff682612fd8565b9050919050565b61300681612feb565b82525050565b60006020820190506130216000830184612ffd565b92915050565b7f4e487b7100000000000000000000000000000000000000000000000000000000600052602260045260246000fd5b6000600282049050600182168061306e57607f821691505b60208210810361308157613080613027565b5b50919050565b600081905092915050565b600061309d82612481565b6130a78185613087565b93506130b781856020860161249d565b80840191505092915050565b60006130cf8284613092565b915081905092915050565b60008190508160005260206000209050919050565b60006020601f8301049050919050565b600082821b905092915050565b60006008830261313c7fffffffffffffffffffffffffffffffffffffffffffffffffffffffffffffffff826130ff565b61314686836130ff565b95508019841693508086168417925050509392505050565b6000819050919050565b600061318361317e6131798461241e565b61315e565b61241e565b9050919050565b6000819050919050565b61319d83613168565b6131b16131a98261318a565b84845461310c565b825550505050565b600090565b6131c66131b9565b6131d1818484613194565b505050565b5b818110156131f5576131ea6000826131be565b6001810190506131d7565b5050565b601f82111561323a5761320b816130da565b613214846130ef565b81016020851015613223578190505b61323761322f856130ef565b8301826131d6565b50505b505050565b600082821c905092915050565b600061325d6000198460080261323f565b1980831691505092915050565b6000613276838361324c565b9150826002028217905092915050565b61328f82612481565b67ffffffffffffffff8111156132a8576132a761253d565b5b6132b28254613056565b6132bd8282856131f9565b600060209050601f8311600181146132f057600084156132de578287015190505b6132e8858261326a565b865550613350565b601f1984166132fe866130da565b60005b8281101561332657848901518255600182019150602085019450602081019050613301565b86831015613343578489015161333f601f89168261324c565b8355505b6001600288020188555050505b505050505050565b7f4e487b7100000000000000000000000000000000000000000000000000000000600052603260045260246000fd5b7f4e487b7100000000000000000000000000000000000000000000000000000000600052601160045260246000fd5b60006133c18261241e565b91507fffffffffffffffffffffffffffffffffffffffffffffffffffffffffffffffff82036133f3576133f2613387565b5b600182019050919050565b50565b600061340e600083613087565b9150613419826133fe565b600082019050919050565b600061342f82613401565b9150819050919050565b60008154905061344881613056565b9050919050565b81810361345d575050613535565b61346682613439565b67ffffffffffffffff81111561347f5761347e61253d565b5b6134898254613056565b6134948282856131f9565b6000601f8311600181146134c357600084156134b1578287015490505b6134bb858261326a565b86555061352e565b601f1984166134d1876130da565b96506134dc866130da565b60005b82811015613504578489015482556001820191506001850194506020810190506134df565b86831015613521578489015461351d601f89168261324c565b8355505b6001600288020188555050505b5050505050505b565b6000815461354481613056565b61354e8186613087565b94506001821660008114613569576001811461357e576135b1565b60ff19831686528115158202860193506135b1565b613587856130da565b60005b838110156135a95781548189015260018201915060208101905061358a565b838801955050505b50505092915050565b60006135c68284613537565b915081905092915050565b60006135dc8261241e565b91506135e78361241e565b92508282039050818111156135ff576135fe613387565b5b92915050565b60008154905061361481613056565b9050919050565b60008190508160005260206000209050919050565b81810361363e575050613716565b61364782613605565b67ffffffffffffffff8111156136605761365f61253d565b5b61366a8254613056565b6136758282856131f9565b6000601f8311600181146136a45760008415613692578287015490505b61369c858261326a565b86555061370f565b601f1984166136b28761361b565b96506136bd866130da565b60005b828110156136e5578489015482556001820191506001850194506020810190506136c0565b8683101561370257848901546136fe601f89168261324c565b8355505b6001600288020188555050505b5050505050505b565b7f4e487b7100000000000000000000000000000000000000000000000000000000600052603160045260246000fdfea2646970667358221220599d677e076868db9d822491d755953cc8c90c3f4cf90a6188b40424fbf4000964736f6c63430008130033",
  "immutableReferences": {},
  "source": "// SPDX-License-Identifier: GPL-3.0\r\npragma solidity >=0.8.1 <0.9.0;\r\n\r\ncontract Land {\r\n\r\n    address owner;\r\n\r\n    uint countOfGovtOfficials;\r\n\r\n    struct User {\r\n        address id;\r\n        string name;\r\n        string email;\r\n        bool isMember;\r\n        bool isOfficial;\r\n        string govtId;\r\n    }\r\n\r\n    enum LandStatus {\r\n        Registered,\r\n        Approved,\r\n        Rejected\r\n    }\r\n\r\n    enum RequestStatus {\r\n        Pending,\r\n        Accepted,\r\n        Rejected\r\n    }\r\n\r\n    struct LandDetails {\r\n        string id;\r\n        string landAddress;\r\n        uint price;\r\n        string ipfsHash;\r\n        string ownerName;\r\n        address ownerAccount;\r\n        LandStatus status;\r\n        bool sell;\r\n    }\r\n\r\n    mapping(address => User) public Users;\r\n    mapping(address => User) public GovtOfficial;\r\n    mapping(address => string[]) public UserAssets;\r\n    mapping(string => LandDetails) public Lands;\r\n    mapping(string => address[]) public InterestedBuyers;\r\n    mapping(address => mapping(string => RequestStatus)) public LandRequestAccess;\r\n    mapping(LandStatus => string[]) Status;\r\n\r\n    string[] public LandsforSale;\r\n\r\n    constructor() {\r\n        owner = msg.sender;\r\n    }\r\n\r\n    function addUser(address _id, string memory _name, string memory _email, string memory _govtId) public {\r\n        bool isofficial = keccak256(abi.encodePacked(_govtId)) == keccak256(abi.encodePacked('')) ? false : true;\r\n        Users[_id] = User(_id, _name, _email, true, isofficial, _govtId);\r\n        if (isofficial) {\r\n            GovtOfficial[_id] = Users[_id];\r\n            countOfGovtOfficials++;\r\n        }\r\n    }\r\n\r\n    function getRegisteredLands() public view returns (string[] memory) {\r\n        return Status[LandStatus.Registered];\r\n    }\r\n\r\n    function registerLand(string memory _id, string memory _landAddress, uint _price, string memory _ipfsHash, address _ownerAccount) public {\r\n        Lands[_id] = LandDetails(_id, _landAddress, _price, _ipfsHash, Users[_ownerAccount].name, _ownerAccount, LandStatus.Registered, false);\r\n        UserAssets[_ownerAccount].push(_id);\r\n        Status[LandStatus.Registered].push(_id);\r\n    }\r\n\r\n    function removeFromRegistered(string memory _id) private {\r\n        for (uint i = 0; i < Status[LandStatus.Registered].length; i++) {\r\n            if (keccak256(abi.encodePacked(Status[LandStatus.Registered][i])) == keccak256(abi.encodePacked(_id))) {\r\n                Status[LandStatus.Registered][i] = Status[LandStatus.Registered][Status[LandStatus.Registered].length - 1];\r\n                break;\r\n            }\r\n        }\r\n        Status[LandStatus.Registered].pop();\r\n    }\r\n\r\n    function changeStatus(string[] memory _approvedLands, string[] memory _rejectedLands) public {\r\n        for (uint i = 0; i < _approvedLands.length; i++) {\r\n            Lands[_approvedLands[i]].status = LandStatus.Approved;\r\n            Status[LandStatus.Approved].push(_approvedLands[i]);\r\n            removeFromRegistered(_approvedLands[i]);\r\n        }\r\n        for (uint i = 0; i < _rejectedLands.length; i++) {\r\n            Lands[_rejectedLands[i]].status = LandStatus.Rejected;\r\n            Status[LandStatus.Rejected].push(_rejectedLands[i]);\r\n            removeFromRegistered(_rejectedLands[i]);\r\n        }\r\n    }\r\n\r\n    function auctionLand(string memory _id) public {\r\n        if (Lands[_id].status == LandStatus.Approved) {\r\n            Lands[_id].sell = true;\r\n            LandsforSale.push(_id);\r\n        }\r\n    }\r\n\r\n    function getAllLandsforSale() public view returns (string[] memory) {\r\n        return LandsforSale;\r\n    }\r\n\r\n    function getUserAssets(address _id) public view returns (string[] memory) {\r\n        return UserAssets[_id];\r\n    }\r\n\r\n    function requestLandDetails(string memory _id, address _account) public {\r\n        LandRequestAccess[_account][_id] = RequestStatus.Pending;\r\n    }\r\n\r\n    function showLandRequests(string memory _id, address _account, RequestStatus _status) public {\r\n        LandRequestAccess[_account][_id] = _status;\r\n    }\r\n\r\n    function removeAsset(address _account, string memory _value) private {\r\n        uint len = UserAssets[_account].length;\r\n        uint j = 0;\r\n        string[] memory tempArray = new string[](len - 1);\r\n        for (uint i = 0; i < len; i++) {\r\n            if (\r\n                keccak256(abi.encodePacked(UserAssets[_account][i])) ==\r\n                keccak256(abi.encodePacked(_value))\r\n            ) {\r\n                tempArray[j] = (UserAssets[_account][i]);\r\n                j++;\r\n            }\r\n        }\r\n        UserAssets[_account] = tempArray;\r\n    }\r\n\r\n    function removeRequestAccess(string memory _id) private {\r\n        for (uint i = 0; i < InterestedBuyers[_id].length; i++) {\r\n            delete LandRequestAccess[InterestedBuyers[_id][i]][_id];\r\n        }\r\n    }\r\n\r\n    function removeFromLandForSale(string memory _id) private {\r\n        for (uint i = 0; i < LandsforSale.length; i++) {\r\n            if (keccak256(abi.encodePacked(LandsforSale[i])) == keccak256(abi.encodePacked(_id))) {\r\n                LandsforSale[i] = LandsforSale[LandsforSale.length - 1];\r\n                break;\r\n            }\r\n        }\r\n        LandsforSale.pop();\r\n    }\r\n\r\n    function changeOwnership(string memory _id, address _oldAccount, address _newAccount, bool _transfered) public {\r\n        if (_transfered) {\r\n            Lands[_id].ownerAccount = _newAccount;\r\n            removeAsset(_oldAccount, _id);\r\n            UserAssets[_newAccount].push(_id);\r\n            removeRequestAccess(_id);\r\n            delete InterestedBuyers[_id];\r\n            removeFromLandForSale(_id);\r\n            Lands[_id].sell = false;\r\n        }\r\n    }\r\n}\r\n",
  "sourcePath": "D:\\Programs\\Blockchain\\freeCodeCamp\\Ethereum_based_Land_Management_System\\contracts\\Land.sol",
  "compiler": {
    "name": "solc",
    "version": "0.8.19+commit.7dd6d404.Emscripten.clang"
  },
  "schemaVersion": "3.4.13",
  "updatedAt": "2023-04-19T09:06:03.927Z",
  "devdoc": {
    "kind": "dev",
    "methods": {},
    "version": 1
  },
  "userdoc": {
    "kind": "user",
    "methods": {},
    "version": 1
  }
}