{
  "contractName": "Land",
  "abi": [
    {
      "inputs": [],
      "stateMutability": "nonpayable",
      "type": "constructor"
    },
    {
      "inputs": [
        {
          "internalType": "uint256",
          "name": "",
          "type": "uint256"
        }
      ],
      "name": "ApprovedList",
      "outputs": [
        {
          "internalType": "string",
          "name": "id",
          "type": "string"
        },
        {
          "internalType": "string",
          "name": "oldAadhaar",
          "type": "string"
        },
        {
          "internalType": "string",
          "name": "newAadhaar",
          "type": "string"
        },
        {
          "internalType": "string",
          "name": "time",
          "type": "string"
        },
        {
          "internalType": "string",
          "name": "approvedBy",
          "type": "string"
        }
      ],
      "stateMutability": "view",
      "type": "function",
      "constant": true
    },
    {
      "inputs": [
        {
          "internalType": "string",
          "name": "",
          "type": "string"
        }
      ],
      "name": "GovtOfficial",
      "outputs": [
        {
          "internalType": "address",
          "name": "account",
          "type": "address"
        },
        {
          "internalType": "string",
          "name": "name",
          "type": "string"
        },
        {
          "internalType": "string",
          "name": "email",
          "type": "string"
        },
        {
          "internalType": "string",
          "name": "aadhaar",
          "type": "string"
        },
        {
          "internalType": "string",
          "name": "pan",
          "type": "string"
        },
        {
          "internalType": "string",
          "name": "image",
          "type": "string"
        },
        {
          "internalType": "string",
          "name": "phoneno",
          "type": "string"
        },
        {
          "internalType": "bool",
          "name": "registered",
          "type": "bool"
        },
        {
          "internalType": "bool",
          "name": "isMember",
          "type": "bool"
        },
        {
          "internalType": "bool",
          "name": "isOfficial",
          "type": "bool"
        },
        {
          "internalType": "string",
          "name": "govtId",
          "type": "string"
        }
      ],
      "stateMutability": "view",
      "type": "function",
      "constant": true
    },
    {
      "inputs": [
        {
          "internalType": "string",
          "name": "",
          "type": "string"
        },
        {
          "internalType": "uint256",
          "name": "",
          "type": "uint256"
        }
      ],
      "name": "InterestedBuyers",
      "outputs": [
        {
          "internalType": "string",
          "name": "",
          "type": "string"
        }
      ],
      "stateMutability": "view",
      "type": "function",
      "constant": true
    },
    {
      "inputs": [
        {
          "internalType": "string",
          "name": "",
          "type": "string"
        },
        {
          "internalType": "string",
          "name": "",
          "type": "string"
        },
        {
          "internalType": "string",
          "name": "",
          "type": "string"
        }
      ],
      "name": "LandRequestAccess",
      "outputs": [
        {
          "internalType": "enum Land.RequestStatus",
          "name": "",
          "type": "uint8"
        }
      ],
      "stateMutability": "view",
      "type": "function",
      "constant": true
    },
    {
      "inputs": [
        {
          "internalType": "string",
          "name": "",
          "type": "string"
        }
      ],
      "name": "Lands",
      "outputs": [
        {
          "internalType": "string",
          "name": "id",
          "type": "string"
        },
        {
          "internalType": "string",
          "name": "landAddress",
          "type": "string"
        },
        {
          "internalType": "string",
          "name": "registeredBy",
          "type": "string"
        },
        {
          "internalType": "string",
          "name": "registrationTime",
          "type": "string"
        },
        {
          "internalType": "uint256",
          "name": "price",
          "type": "uint256"
        },
        {
          "internalType": "string",
          "name": "ipfsHash",
          "type": "string"
        },
        {
          "internalType": "bool",
          "name": "jointOwnership",
          "type": "bool"
        }
      ],
      "stateMutability": "view",
      "type": "function",
      "constant": true
    },
    {
      "inputs": [
        {
          "internalType": "uint256",
          "name": "",
          "type": "uint256"
        }
      ],
      "name": "LandsforSale",
      "outputs": [
        {
          "internalType": "string",
          "name": "",
          "type": "string"
        }
      ],
      "stateMutability": "view",
      "type": "function",
      "constant": true
    },
    {
      "inputs": [
        {
          "internalType": "uint256",
          "name": "",
          "type": "uint256"
        }
      ],
      "name": "TransferList",
      "outputs": [
        {
          "internalType": "string",
          "name": "id",
          "type": "string"
        },
        {
          "internalType": "string",
          "name": "oldAadhaar",
          "type": "string"
        },
        {
          "internalType": "string",
          "name": "newAadhaar",
          "type": "string"
        }
      ],
      "stateMutability": "view",
      "type": "function",
      "constant": true
    },
    {
      "inputs": [
        {
          "internalType": "string",
          "name": "",
          "type": "string"
        },
        {
          "internalType": "uint256",
          "name": "",
          "type": "uint256"
        }
      ],
      "name": "UserAssets",
      "outputs": [
        {
          "internalType": "string",
          "name": "",
          "type": "string"
        }
      ],
      "stateMutability": "view",
      "type": "function",
      "constant": true
    },
    {
      "inputs": [
        {
          "internalType": "string",
          "name": "",
          "type": "string"
        }
      ],
      "name": "Users",
      "outputs": [
        {
          "internalType": "address",
          "name": "account",
          "type": "address"
        },
        {
          "internalType": "string",
          "name": "name",
          "type": "string"
        },
        {
          "internalType": "string",
          "name": "email",
          "type": "string"
        },
        {
          "internalType": "string",
          "name": "aadhaar",
          "type": "string"
        },
        {
          "internalType": "string",
          "name": "pan",
          "type": "string"
        },
        {
          "internalType": "string",
          "name": "image",
          "type": "string"
        },
        {
          "internalType": "string",
          "name": "phoneno",
          "type": "string"
        },
        {
          "internalType": "bool",
          "name": "registered",
          "type": "bool"
        },
        {
          "internalType": "bool",
          "name": "isMember",
          "type": "bool"
        },
        {
          "internalType": "bool",
          "name": "isOfficial",
          "type": "bool"
        },
        {
          "internalType": "string",
          "name": "govtId",
          "type": "string"
        }
      ],
      "stateMutability": "view",
      "type": "function",
      "constant": true
    },
    {
      "inputs": [
        {
          "internalType": "uint256",
          "name": "",
          "type": "uint256"
        }
      ],
      "name": "UsersRegistered",
      "outputs": [
        {
          "internalType": "string",
          "name": "",
          "type": "string"
        }
      ],
      "stateMutability": "view",
      "type": "function",
      "constant": true
    },
    {
      "inputs": [
        {
          "internalType": "string",
          "name": "",
          "type": "string"
        },
        {
          "internalType": "uint256",
          "name": "",
          "type": "uint256"
        }
      ],
      "name": "requestedLands",
      "outputs": [
        {
          "internalType": "string",
          "name": "",
          "type": "string"
        }
      ],
      "stateMutability": "view",
      "type": "function",
      "constant": true
    },
    {
      "inputs": [
        {
          "internalType": "string",
          "name": "_id",
          "type": "string"
        }
      ],
      "name": "getLandOwners",
      "outputs": [
        {
          "internalType": "string[]",
          "name": "",
          "type": "string[]"
        }
      ],
      "stateMutability": "view",
      "type": "function",
      "constant": true
    },
    {
      "inputs": [
        {
          "internalType": "string",
          "name": "_id",
          "type": "string"
        }
      ],
      "name": "getShares",
      "outputs": [
        {
          "internalType": "uint256[]",
          "name": "",
          "type": "uint256[]"
        }
      ],
      "stateMutability": "view",
      "type": "function",
      "constant": true
    },
    {
      "inputs": [
        {
          "internalType": "string",
          "name": "_id",
          "type": "string"
        }
      ],
      "name": "getStatus",
      "outputs": [
        {
          "internalType": "string[]",
          "name": "",
          "type": "string[]"
        }
      ],
      "stateMutability": "view",
      "type": "function",
      "constant": true
    },
    {
      "inputs": [
        {
          "internalType": "string",
          "name": "_id",
          "type": "string"
        }
      ],
      "name": "getOwnerNames",
      "outputs": [
        {
          "internalType": "string[]",
          "name": "",
          "type": "string[]"
        }
      ],
      "stateMutability": "view",
      "type": "function",
      "constant": true
    },
    {
      "inputs": [
        {
          "internalType": "string",
          "name": "_id",
          "type": "string"
        }
      ],
      "name": "getOwnerEmails",
      "outputs": [
        {
          "internalType": "string[]",
          "name": "",
          "type": "string[]"
        }
      ],
      "stateMutability": "view",
      "type": "function",
      "constant": true
    },
    {
      "inputs": [
        {
          "internalType": "string",
          "name": "_id",
          "type": "string"
        }
      ],
      "name": "getSellerNames",
      "outputs": [
        {
          "internalType": "string[]",
          "name": "",
          "type": "string[]"
        }
      ],
      "stateMutability": "view",
      "type": "function",
      "constant": true
    },
    {
      "inputs": [
        {
          "internalType": "string",
          "name": "_id",
          "type": "string"
        }
      ],
      "name": "getSellerEmail",
      "outputs": [
        {
          "internalType": "string[]",
          "name": "",
          "type": "string[]"
        }
      ],
      "stateMutability": "view",
      "type": "function",
      "constant": true
    },
    {
      "inputs": [
        {
          "internalType": "string",
          "name": "_id",
          "type": "string"
        }
      ],
      "name": "getSaleBy",
      "outputs": [
        {
          "internalType": "string[]",
          "name": "",
          "type": "string[]"
        }
      ],
      "stateMutability": "view",
      "type": "function",
      "constant": true
    },
    {
      "inputs": [
        {
          "internalType": "address",
          "name": "_account",
          "type": "address"
        },
        {
          "internalType": "string",
          "name": "_name",
          "type": "string"
        },
        {
          "internalType": "string",
          "name": "_email",
          "type": "string"
        },
        {
          "internalType": "string",
          "name": "_aadhaar",
          "type": "string"
        },
        {
          "internalType": "string",
          "name": "_pan",
          "type": "string"
        },
        {
          "internalType": "string",
          "name": "_image",
          "type": "string"
        },
        {
          "internalType": "string",
          "name": "_phoneno",
          "type": "string"
        },
        {
          "internalType": "string",
          "name": "_govtId",
          "type": "string"
        }
      ],
      "name": "registerUser",
      "outputs": [],
      "stateMutability": "nonpayable",
      "type": "function"
    },
    {
      "inputs": [
        {
          "internalType": "string",
          "name": "_aadhaar",
          "type": "string"
        }
      ],
      "name": "addUser",
      "outputs": [],
      "stateMutability": "nonpayable",
      "type": "function"
    },
    {
      "inputs": [],
      "name": "getRegisteredUsers",
      "outputs": [
        {
          "internalType": "string[]",
          "name": "",
          "type": "string[]"
        }
      ],
      "stateMutability": "view",
      "type": "function",
      "constant": true
    },
    {
      "inputs": [
        {
          "internalType": "string",
          "name": "_id",
          "type": "string"
        },
        {
          "internalType": "string",
          "name": "_landAddress",
          "type": "string"
        },
        {
          "internalType": "string",
          "name": "_registeredBy",
          "type": "string"
        },
        {
          "internalType": "string",
          "name": "_registrationTime",
          "type": "string"
        },
        {
          "internalType": "uint256",
          "name": "_price",
          "type": "uint256"
        },
        {
          "internalType": "string",
          "name": "_ipfsHash",
          "type": "string"
        },
        {
          "internalType": "string[]",
          "name": "_ownerAadhaar",
          "type": "string[]"
        },
        {
          "internalType": "uint256[]",
          "name": "_share",
          "type": "uint256[]"
        },
        {
          "internalType": "bool",
          "name": "_jointOwnerShip",
          "type": "bool"
        }
      ],
      "name": "registerLand",
      "outputs": [],
      "stateMutability": "nonpayable",
      "type": "function"
    },
    {
      "inputs": [
        {
          "internalType": "string",
          "name": "_aadhaar",
          "type": "string"
        },
        {
          "internalType": "string",
          "name": "_id",
          "type": "string"
        }
      ],
      "name": "auctionLand",
      "outputs": [],
      "stateMutability": "nonpayable",
      "type": "function"
    },
    {
      "inputs": [],
      "name": "getAllLandsforSale",
      "outputs": [
        {
          "internalType": "string[]",
          "name": "",
          "type": "string[]"
        }
      ],
      "stateMutability": "view",
      "type": "function",
      "constant": true
    },
    {
      "inputs": [
        {
          "internalType": "string",
          "name": "_aadhaar",
          "type": "string"
        }
      ],
      "name": "getUserAssets",
      "outputs": [
        {
          "internalType": "string[]",
          "name": "",
          "type": "string[]"
        }
      ],
      "stateMutability": "view",
      "type": "function",
      "constant": true
    },
    {
      "inputs": [
        {
          "internalType": "string",
          "name": "_id",
          "type": "string"
        },
        {
          "internalType": "string",
          "name": "_aadhaar",
          "type": "string"
        },
        {
          "internalType": "string",
          "name": "_seller",
          "type": "string"
        }
      ],
      "name": "requestLandDetails",
      "outputs": [],
      "stateMutability": "nonpayable",
      "type": "function"
    },
    {
      "inputs": [
        {
          "internalType": "string",
          "name": "_id",
          "type": "string"
        },
        {
          "internalType": "string",
          "name": "_aadhaar",
          "type": "string"
        },
        {
          "internalType": "string",
          "name": "_seller",
          "type": "string"
        }
      ],
      "name": "getLandRequestAccess",
      "outputs": [
        {
          "internalType": "string",
          "name": "",
          "type": "string"
        }
      ],
      "stateMutability": "view",
      "type": "function",
      "constant": true
    },
    {
      "inputs": [
        {
          "internalType": "string",
          "name": "_aadhaar",
          "type": "string"
        }
      ],
      "name": "getRequestedLands",
      "outputs": [
        {
          "internalType": "string[]",
          "name": "",
          "type": "string[]"
        }
      ],
      "stateMutability": "view",
      "type": "function",
      "constant": true
    },
    {
      "inputs": [
        {
          "internalType": "string",
          "name": "_id",
          "type": "string"
        },
        {
          "internalType": "string",
          "name": "_aadhaar",
          "type": "string"
        },
        {
          "internalType": "string",
          "name": "_seller",
          "type": "string"
        }
      ],
      "name": "sellLand",
      "outputs": [],
      "stateMutability": "nonpayable",
      "type": "function"
    },
    {
      "inputs": [
        {
          "internalType": "string",
          "name": "_id",
          "type": "string"
        }
      ],
      "name": "interested",
      "outputs": [
        {
          "internalType": "string[]",
          "name": "",
          "type": "string[]"
        },
        {
          "internalType": "string[]",
          "name": "",
          "type": "string[]"
        }
      ],
      "stateMutability": "view",
      "type": "function",
      "constant": true
    },
    {
      "inputs": [
        {
          "internalType": "string",
          "name": "_aadhaar",
          "type": "string"
        },
        {
          "internalType": "string",
          "name": "_id",
          "type": "string"
        },
        {
          "internalType": "string",
          "name": "_seller",
          "type": "string"
        }
      ],
      "name": "requestApprove",
      "outputs": [],
      "stateMutability": "nonpayable",
      "type": "function"
    },
    {
      "inputs": [
        {
          "internalType": "string",
          "name": "_aadhaar",
          "type": "string"
        },
        {
          "internalType": "string",
          "name": "_id",
          "type": "string"
        },
        {
          "internalType": "string",
          "name": "_seller",
          "type": "string"
        }
      ],
      "name": "requestReject",
      "outputs": [],
      "stateMutability": "nonpayable",
      "type": "function"
    },
    {
      "inputs": [
        {
          "internalType": "string",
          "name": "_id",
          "type": "string"
        },
        {
          "internalType": "string",
          "name": "_newAadhaar",
          "type": "string"
        },
        {
          "internalType": "string",
          "name": "_oldAadhaar",
          "type": "string"
        }
      ],
      "name": "transferRequest",
      "outputs": [],
      "stateMutability": "nonpayable",
      "type": "function"
    },
    {
      "inputs": [],
      "name": "getAllTransferRequest",
      "outputs": [
        {
          "internalType": "string[]",
          "name": "",
          "type": "string[]"
        },
        {
          "internalType": "string[]",
          "name": "",
          "type": "string[]"
        },
        {
          "internalType": "string[]",
          "name": "",
          "type": "string[]"
        }
      ],
      "stateMutability": "view",
      "type": "function",
      "constant": true
    },
    {
      "inputs": [
        {
          "internalType": "string",
          "name": "_id",
          "type": "string"
        },
        {
          "internalType": "string",
          "name": "_newAadhaar",
          "type": "string"
        },
        {
          "internalType": "string",
          "name": "_oldAadhaar",
          "type": "string"
        },
        {
          "internalType": "bool",
          "name": "_status",
          "type": "bool"
        },
        {
          "internalType": "string",
          "name": "_time",
          "type": "string"
        },
        {
          "internalType": "string",
          "name": "_approver",
          "type": "string"
        }
      ],
      "name": "transfer",
      "outputs": [],
      "stateMutability": "nonpayable",
      "type": "function"
    },
    {
      "inputs": [
        {
          "internalType": "string",
          "name": "_id",
          "type": "string"
        },
        {
          "internalType": "string",
          "name": "_newAadhaar",
          "type": "string"
        },
        {
          "internalType": "string",
          "name": "_oldAadhaar",
          "type": "string"
        }
      ],
      "name": "changeOwnership",
      "outputs": [],
      "stateMutability": "nonpayable",
      "type": "function"
    }
  ],
  "bytecode": "0x608060405234801561001057600080fd5b50600080546001600160a01b03191633179055615d3d80620000336000396000f3fe608060405234801561001057600080fd5b50600436106102765760003560e01c80637073c07211610160578063b033b64c116100d8578063dd34da261161008c578063ea3c5c2c11610071578063ea3c5c2c146105c2578063f0ad6118146105e6578063f923925c146105f957600080fd5b8063dd34da2614610542578063e467de0e1461055557600080fd5b8063c413f6f8116100bd578063c413f6f8146104fa578063c53c23df1461050d578063d57a12561461052f57600080fd5b8063b033b64c146104c1578063bd99108f146104d457600080fd5b8063a0e860921161012f578063a77d76ec11610114578063a77d76ec14610488578063a80edf5e1461049b578063abc03056146104ae57600080fd5b8063a0e8609214610462578063a76f2a171461047557600080fd5b80637073c07214610413578063767189b31461041b5780637c35236b1461042e57806398d230111461044f57600080fd5b80631c9f4b4d116101f3578063372bc9cf116101c257806357816fc1116101a757806357816fc1146103e557806365e6af32146103f857806368fdd8df1461040057600080fd5b8063372bc9cf146103bf5780634841d3e4146103d257600080fd5b80631c9f4b4d1461036f5780631d43ef841461038257806322b05ed214610399578063286de559146103ac57600080fd5b806309995c8f1161024a57806316aa11c21161022f57806316aa11c214610329578063189ba49f1461033c57806318b8275a1461035c57600080fd5b806309995c8f146102f657806313db45bb1461031657600080fd5b8062f4a5631461027b57806307176f6314610290578063076faab4146102b957806309255529146102e3575b600080fd5b61028e610289366004615031565b61060c565b005b6102a361029e3660046150b9565b610689565b6040516102b09190615122565b60405180910390f35b6102cc6102c736600461513c565b610735565b6040516102b09b9a99989796959493929190615179565b61028e6102f1366004615031565b610b61565b61030961030436600461513c565b610c56565b6040516102b09190615299565b61028e610324366004615031565b610d50565b61030961033736600461513c565b610d7e565b61034f61034a36600461513c565b610e6a565b6040516102b091906152ac565b61028e61036a36600461513c565b610edd565b61028e61037d366004615305565b610f23565b61038a6112d7565b6040516102b0939291906153e6565b6103096103a736600461513c565b61165e565b6102a36103ba366004615429565b611904565b6103096103cd36600461513c565b61194b565b6103096103e036600461513c565b611b02565b6102cc6103f336600461513c565b611cb9565b610309611cf0565b61030961040e36600461513c565b611dc9565b610309611eb8565b61028e610429366004615031565b611f88565b61044161043c36600461513c565b611f9a565b6040516102b092919061546e565b61028e61045d366004615031565b6122a3565b61028e610470366004615031565b612431565b61030961048336600461513c565b612624565b6102a3610496366004615429565b6127db565b6102a36104a93660046150b9565b612806565b6102a36104bc366004615031565b612816565b6103096104cf36600461513c565b6129ae565b6104e76104e236600461513c565b612b65565b6040516102b09796959493929190615493565b61030961050836600461513c565b612e55565b61052061051b3660046150b9565b612f41565b6040516102b093929190615511565b6102a361053d366004615429565b613113565b61028e61055036600461554a565b61313e565b6105b5610563366004615031565b8251602081850181018051600782529282019582019590952091909452825180840185018051928152908501938501939093209252805180820184018051938152908401919093012091525460ff1681565b6040516102b091906155c4565b6105d56105d03660046150b9565b6132ec565b6040516102b09594939291906155ec565b61028e6105f4366004615768565b6135da565b61028e6106073660046158b5565b613839565b600360078460405161061e91906159e1565b90815260200160405180910390208360405161063a91906159e1565b90815260200160405180910390208260405161065691906159e1565b908152604051908190036020019020805460ff1916600183600481111561067f5761067f6155ae565b0217905550505050565b600a818154811061069957600080fd5b9060005260206000200160009150905080546106b4906159fd565b80601f01602080910402602001604051908101604052809291908181526020018280546106e0906159fd565b801561072d5780601f106107025761010080835404028352916020019161072d565b820191906000526020600020905b81548152906001019060200180831161071057829003601f168201915b505050505081565b8051602081830181018051600282529282019190930120915280546001820180546001600160a01b03909216929161076c906159fd565b80601f0160208091040260200160405190810160405280929190818152602001828054610798906159fd565b80156107e55780601f106107ba576101008083540402835291602001916107e5565b820191906000526020600020905b8154815290600101906020018083116107c857829003601f168201915b5050505050908060020180546107fa906159fd565b80601f0160208091040260200160405190810160405280929190818152602001828054610826906159fd565b80156108735780601f1061084857610100808354040283529160200191610873565b820191906000526020600020905b81548152906001019060200180831161085657829003601f168201915b505050505090806003018054610888906159fd565b80601f01602080910402602001604051908101604052809291908181526020018280546108b4906159fd565b80156109015780601f106108d657610100808354040283529160200191610901565b820191906000526020600020905b8154815290600101906020018083116108e457829003601f168201915b505050505090806004018054610916906159fd565b80601f0160208091040260200160405190810160405280929190818152602001828054610942906159fd565b801561098f5780601f106109645761010080835404028352916020019161098f565b820191906000526020600020905b81548152906001019060200180831161097257829003601f168201915b5050505050908060050180546109a4906159fd565b80601f01602080910402602001604051908101604052809291908181526020018280546109d0906159fd565b8015610a1d5780601f106109f257610100808354040283529160200191610a1d565b820191906000526020600020905b815481529060010190602001808311610a0057829003601f168201915b505050505090806006018054610a32906159fd565b80601f0160208091040260200160405190810160405280929190818152602001828054610a5e906159fd565b8015610aab5780601f10610a8057610100808354040283529160200191610aab565b820191906000526020600020905b815481529060010190602001808311610a8e57829003601f168201915b5050506007840154600885018054949560ff808416966101008504821696506201000090940416935091610ade906159fd565b80601f0160208091040260200160405190810160405280929190818152602001828054610b0a906159fd565b8015610b575780601f10610b2c57610100808354040283529160200191610b57565b820191906000526020600020905b815481529060010190602001808311610b3a57829003601f168201915b505050505090508b565b6001600783604051610b7391906159e1565b908152602001604051809103902084604051610b8f91906159e1565b908152602001604051809103902082604051610bab91906159e1565b908152604051908190036020019020805460ff19166001836004811115610bd457610bd46155ae565b0217905550600882604051610be991906159e1565b908152604051602091819003820190208054600181018255600091825291902001610c148482615a7d565b50600683604051610c2591906159e1565b908152604051602091819003820190208054600181018255600091825291902001610c508382615a7d565b50505050565b6060600582604051610c6891906159e1565b9081526020016040518091039020600601805480602002602001604051908101604052809291908181526020016000905b82821015610d45578382906000526020600020018054610cb8906159fd565b80601f0160208091040260200160405190810160405280929190818152602001828054610ce4906159fd565b8015610d315780601f10610d0657610100808354040283529160200191610d31565b820191906000526020600020905b815481529060010190602001808311610d1457829003601f168201915b505050505081526020019060010190610c99565b505050509050919050565b6004600783604051610d6291906159e1565b90815260200160405180910390208460405161063a91906159e1565b6060600482604051610d9091906159e1565b9081526020016040518091039020805480602002602001604051908101604052809291908181526020016000905b82821015610d45578382906000526020600020018054610ddd906159fd565b80601f0160208091040260200160405190810160405280929190818152602001828054610e09906159fd565b8015610e565780601f10610e2b57610100808354040283529160200191610e56565b820191906000526020600020905b815481529060010190602001808311610e3957829003601f168201915b505050505081526020019060010190610dbe565b6060600582604051610e7c91906159e1565b9081526040805191829003602090810183206007018054808302850183019093528284529190830182828015610ed157602002820191906000526020600020905b815481526020019060010190808311610ebd575b50505050509050919050565b610ee681613bc8565b6001600282604051610ef891906159e1565b90815260405190819003602001902060070180549115156101000261ff001990921691909117905550565b82151560010361116d576000611029600588604051610f4291906159e1565b9081526020016040518091039020600a01805480602002602001604051908101604052809291908181526020016000905b8282101561101f578382906000526020600020018054610f92906159fd565b80601f0160208091040260200160405190810160405280929190818152602001828054610fbe906159fd565b801561100b5780601f10610fe05761010080835404028352916020019161100b565b820191906000526020600020905b815481529060010190602001808311610fee57829003601f168201915b505050505081526020019060010190610f73565b5050505086613d26565b9050600260058860405161103d91906159e1565b9081526020016040518091039020600901828154811061105f5761105f615b3d565b90600052602060002090602091828204019190066101000a81548160ff02191690836003811115611092576110926155ae565b02179055506110a2878688613dc4565b6040805160a081018252888152602081018790529081018790526060810184905260808101839052600c8054600181018255600091909152815160059091027fdf6966c971051c3d54ec59162606531493a51404a002842f56009d7e5cf4a8c7019081906111109082615a7d565b50602082015160018201906111259082615a7d565b506040820151600282019061113a9082615a7d565b506060820151600382019061114f9082615a7d565b50608082015160048201906111649082615a7d565b505050506112cf565b600061125f60058860405161118291906159e1565b9081526020016040518091039020600a01805480602002602001604051908101604052809291908181526020016000905b8282101561101f5783829060005260206000200180546111d2906159fd565b80601f01602080910402602001604051908101604052809291908181526020018280546111fe906159fd565b801561124b5780601f106112205761010080835404028352916020019161124b565b820191906000526020600020905b81548152906001019060200180831161122e57829003601f168201915b5050505050815260200190600101906111b3565b9050600360058860405161127391906159e1565b9081526020016040518091039020600901828154811061129557611295615b3d565b90600052602060002090602091828204019190066101000a81548160ff021916908360038111156112c8576112c86155ae565b0217905550505b505050505050565b600b546060908190819060008167ffffffffffffffff8111156112fc576112fc614f7a565b60405190808252806020026020018201604052801561132f57816020015b606081526020019060019003908161131a5790505b50905060008267ffffffffffffffff81111561134d5761134d614f7a565b60405190808252806020026020018201604052801561138057816020015b606081526020019060019003908161136b5790505b50905060008367ffffffffffffffff81111561139e5761139e614f7a565b6040519080825280602002602001820160405280156113d157816020015b60608152602001906001900390816113bc5790505b50905060005b8481101561165057600b81815481106113f2576113f2615b3d565b9060005260206000209060030201600001805461140e906159fd565b80601f016020809104026020016040519081016040528092919081815260200182805461143a906159fd565b80156114875780601f1061145c57610100808354040283529160200191611487565b820191906000526020600020905b81548152906001019060200180831161146a57829003601f168201915b505050505084828151811061149e5761149e615b3d565b6020026020010181905250600b81815481106114bc576114bc615b3d565b906000526020600020906003020160010180546114d8906159fd565b80601f0160208091040260200160405190810160405280929190818152602001828054611504906159fd565b80156115515780601f1061152657610100808354040283529160200191611551565b820191906000526020600020905b81548152906001019060200180831161153457829003601f168201915b505050505083828151811061156857611568615b3d565b6020026020010181905250600b818154811061158657611586615b3d565b906000526020600020906003020160020180546115a2906159fd565b80601f01602080910402602001604051908101604052809291908181526020018280546115ce906159fd565b801561161b5780601f106115f05761010080835404028352916020019161161b565b820191906000526020600020905b8154815290600101906020018083116115fe57829003601f168201915b505050505082828151811061163257611632615b3d565b6020026020010181905250808061164890615b69565b9150506113d7565b509196909550909350915050565b6060600060058360405161167291906159e1565b9081526040519081900360200190206009015467ffffffffffffffff81111561169d5761169d614f7a565b6040519080825280602002602001820160405280156116d057816020015b60608152602001906001900390816116bb5790505b50905060005b6005846040516116e691906159e1565b908152604051908190036020019020600901548110156118fd57600060058560405161171291906159e1565b9081526020016040518091039020600901828154811061173457611734615b3d565b90600052602060002090602091828204019190069054906101000a900460ff166003811115611765576117656155ae565b146118af57600160058560405161177c91906159e1565b9081526020016040518091039020600901828154811061179e5761179e615b3d565b90600052602060002090602091828204019190069054906101000a900460ff1660038111156117cf576117cf6155ae565b1461188a5760026005856040516117e691906159e1565b9081526020016040518091039020600901828154811061180857611808615b3d565b90600052602060002090602091828204019190069054906101000a900460ff166003811115611839576118396155ae565b14611864576040518060400160405280600881526020016714995a9958dd195960c21b8152506118cd565b604051806040016040528060088152602001671058d8d95c1d195960c21b8152506118cd565b6040518060400160405280600781526020016650656e64696e6760c81b8152506118cd565b604051806040016040528060048152602001634e6f6e6560e01b8152505b8282815181106118df576118df615b3d565b602002602001018190525080806118f590615b69565b9150506116d6565b5092915050565b8151602081840181018051600482529282019185019190912091905280548290811061192f57600080fd5b906000526020600020016000915091505080546106b4906159fd565b6060600060058360405161195f91906159e1565b9081526040519081900360200190206006015467ffffffffffffffff81111561198a5761198a614f7a565b6040519080825280602002602001820160405280156119bd57816020015b60608152602001906001900390816119a85790505b50905060005b6005846040516119d391906159e1565b908152604051908190036020019020600601548110156118fd5760026005856040516119ff91906159e1565b90815260200160405180910390206006018281548110611a2157611a21615b3d565b90600052602060002001604051611a389190615b82565b90815260200160405180910390206002018054611a54906159fd565b80601f0160208091040260200160405190810160405280929190818152602001828054611a80906159fd565b8015611acd5780601f10611aa257610100808354040283529160200191611acd565b820191906000526020600020905b815481529060010190602001808311611ab057829003601f168201915b5050505050828281518110611ae457611ae4615b3d565b60200260200101819052508080611afa90615b69565b9150506119c3565b60606000600583604051611b1691906159e1565b9081526040519081900360200190206006015467ffffffffffffffff811115611b4157611b41614f7a565b604051908082528060200260200182016040528015611b7457816020015b6060815260200190600190039081611b5f5790505b50905060005b600584604051611b8a91906159e1565b908152604051908190036020019020600601548110156118fd576002600585604051611bb691906159e1565b90815260200160405180910390206006018281548110611bd857611bd8615b3d565b90600052602060002001604051611bef9190615b82565b90815260200160405180910390206002018054611c0b906159fd565b80601f0160208091040260200160405190810160405280929190818152602001828054611c37906159fd565b8015611c845780601f10611c5957610100808354040283529160200191611c84565b820191906000526020600020905b815481529060010190602001808311611c6757829003601f168201915b5050505050828281518110611c9b57611c9b615b3d565b60200260200101819052508080611cb190615b69565b915050611b7a565b8051602081830181018051600382529282019190930120915280546001820180546001600160a01b03909216929161076c906159fd565b6060600a805480602002602001604051908101604052809291908181526020016000905b82821015611dc0578382906000526020600020018054611d33906159fd565b80601f0160208091040260200160405190810160405280929190818152602001828054611d5f906159fd565b8015611dac5780601f10611d8157610100808354040283529160200191611dac565b820191906000526020600020905b815481529060010190602001808311611d8f57829003601f168201915b505050505081526020019060010190611d14565b50505050905090565b6060600582604051611ddb91906159e1565b9081526020016040518091039020600a01805480602002602001604051908101604052809291908181526020016000905b82821015610d45578382906000526020600020018054611e2b906159fd565b80601f0160208091040260200160405190810160405280929190818152602001828054611e57906159fd565b8015611ea45780601f10611e7957610100808354040283529160200191611ea4565b820191906000526020600020905b815481529060010190602001808311611e8757829003601f168201915b505050505081526020019060010190611e0c565b60606009805480602002602001604051908101604052809291908181526020016000905b82821015611dc0578382906000526020600020018054611efb906159fd565b80601f0160208091040260200160405190810160405280929190818152602001828054611f27906159fd565b8015611f745780601f10611f4957610100808354040283529160200191611f74565b820191906000526020600020905b815481529060010190602001808311611f5757829003601f168201915b505050505081526020019060010190611edc565b600260078460405161061e91906159e1565b6060806000600684604051611faf91906159e1565b9081526040519081900360200190205467ffffffffffffffff811115611fd757611fd7614f7a565b60405190808252806020026020018201604052801561200a57816020015b6060815260200190600190039081611ff55790505b509050600060068560405161201f91906159e1565b9081526040519081900360200190205467ffffffffffffffff81111561204757612047614f7a565b60405190808252806020026020018201604052801561207a57816020015b60608152602001906001900390816120655790505b50905060005b60068660405161209091906159e1565b908152604051908190036020019020548110156122985760026006876040516120b991906159e1565b908152602001604051809103902082815481106120d8576120d8615b3d565b906000526020600020016040516120ef9190615b82565b9081526020016040518091039020600101805461210b906159fd565b80601f0160208091040260200160405190810160405280929190818152602001828054612137906159fd565b80156121845780601f1061215957610100808354040283529160200191612184565b820191906000526020600020905b81548152906001019060200180831161216757829003601f168201915b505050505083828151811061219b5761219b615b3d565b60200260200101819052506006866040516121b691906159e1565b908152602001604051809103902081815481106121d5576121d5615b3d565b9060005260206000200180546121ea906159fd565b80601f0160208091040260200160405190810160405280929190818152602001828054612216906159fd565b80156122635780601f1061223857610100808354040283529160200191612263565b820191906000526020600020905b81548152906001019060200180831161224657829003601f168201915b505050505082828151811061227a5761227a615b3d565b6020026020010181905250808061229090615b69565b915050612080565b509094909350915050565b600061239f6005856040516122b891906159e1565b9081526020016040518091039020600601805480602002602001604051908101604052809291908181526020016000905b82821015612395578382906000526020600020018054612308906159fd565b80601f0160208091040260200160405190810160405280929190818152602001828054612334906159fd565b80156123815780601f1061235657610100808354040283529160200191612381565b820191906000526020600020905b81548152906001019060200180831161236457829003601f168201915b5050505050815260200190600101906122e9565b5050505083613d26565b90506123ac84848361402b565b6123b6828561441a565b6123c08483614605565b6123ca84846146dd565b6123d48483614892565b6005846040516123e491906159e1565b908152604051908190036020019020600a0154600003610c505761240784614bd0565b60068460405161241791906159e1565b90815260200160405180910390206000610c509190614da1565b600061252360058560405161244691906159e1565b9081526020016040518091039020600a01805480602002602001604051908101604052809291908181526020016000905b82821015612395578382906000526020600020018054612496906159fd565b80601f01602080910402602001604051908101604052809291908181526020018280546124c2906159fd565b801561250f5780601f106124e45761010080835404028352916020019161250f565b820191906000526020600020905b8154815290600101906020018083116124f257829003601f168201915b505050505081526020019060010190612477565b9050600160058560405161253791906159e1565b9081526020016040518091039020600901828154811061255957612559615b3d565b90600052602060002090602091828204019190066101000a81548160ff0219169083600381111561258c5761258c6155ae565b02179055506040805160608101825285815260208101849052908101849052600b8054600181018255600091909152815160039091027f0175b7a638427703f0dbe7bb9bbf987a2551717b34e79f33b5b1008d1fa01db9019081906125f19082615a7d565b50602082015160018201906126069082615a7d565b506040820151600282019061261b9082615a7d565b50505050505050565b6060600060058360405161263891906159e1565b908152604051908190036020019020600a015467ffffffffffffffff81111561266357612663614f7a565b60405190808252806020026020018201604052801561269657816020015b60608152602001906001900390816126815790505b50905060005b6005846040516126ac91906159e1565b908152604051908190036020019020600a01548110156118fd5760026005856040516126d891906159e1565b9081526020016040518091039020600a0182815481106126fa576126fa615b3d565b906000526020600020016040516127119190615b82565b9081526020016040518091039020600101805461272d906159fd565b80601f0160208091040260200160405190810160405280929190818152602001828054612759906159fd565b80156127a65780601f1061277b576101008083540402835291602001916127a6565b820191906000526020600020905b81548152906001019060200180831161278957829003601f168201915b50505050508282815181106127bd576127bd615b3d565b602002602001018190525080806127d390615b69565b91505061269c565b8151602081840181018051600682529282019185019190912091905280548290811061192f57600080fd5b6009818154811061069957600080fd5b6060600060078460405161282a91906159e1565b90815260200160405180910390208560405161284691906159e1565b90815260200160405180910390208360405161286291906159e1565b9081526040519081900360200190205460ff169050600081600481111561288b5761288b6155ae565b146129875760018160048111156128a4576128a46155ae565b146129625760028160048111156128bd576128bd6155ae565b1461293c5760038160048111156128d6576128d66155ae565b14612916576040518060400160405280600481526020017f53656c6c000000000000000000000000000000000000000000000000000000008152506129a5565b6040518060400160405280600881526020016714995a9958dd195960c21b8152506129a5565b604051806040016040528060088152602001671058d8d95c1d195960c21b8152506129a5565b6040518060400160405280600781526020016650656e64696e6760c81b8152506129a5565b604051806040016040528060048152602001634e6f6e6560e01b8152505b95945050505050565b606060006005836040516129c291906159e1565b9081526040519081900360200190206006015467ffffffffffffffff8111156129ed576129ed614f7a565b604051908082528060200260200182016040528015612a2057816020015b6060815260200190600190039081612a0b5790505b50905060005b600584604051612a3691906159e1565b908152604051908190036020019020600601548110156118fd576002600585604051612a6291906159e1565b90815260200160405180910390206006018281548110612a8457612a84615b3d565b90600052602060002001604051612a9b9190615b82565b90815260200160405180910390206001018054612ab7906159fd565b80601f0160208091040260200160405190810160405280929190818152602001828054612ae3906159fd565b8015612b305780601f10612b0557610100808354040283529160200191612b30565b820191906000526020600020905b815481529060010190602001808311612b1357829003601f168201915b5050505050828281518110612b4757612b47615b3d565b60200260200101819052508080612b5d90615b69565b915050612a26565b8051602081830181018051600582529282019190930120915280548190612b8b906159fd565b80601f0160208091040260200160405190810160405280929190818152602001828054612bb7906159fd565b8015612c045780601f10612bd957610100808354040283529160200191612c04565b820191906000526020600020905b815481529060010190602001808311612be757829003601f168201915b505050505090806001018054612c19906159fd565b80601f0160208091040260200160405190810160405280929190818152602001828054612c45906159fd565b8015612c925780601f10612c6757610100808354040283529160200191612c92565b820191906000526020600020905b815481529060010190602001808311612c7557829003601f168201915b505050505090806002018054612ca7906159fd565b80601f0160208091040260200160405190810160405280929190818152602001828054612cd3906159fd565b8015612d205780601f10612cf557610100808354040283529160200191612d20565b820191906000526020600020905b815481529060010190602001808311612d0357829003601f168201915b505050505090806003018054612d35906159fd565b80601f0160208091040260200160405190810160405280929190818152602001828054612d61906159fd565b8015612dae5780601f10612d8357610100808354040283529160200191612dae565b820191906000526020600020905b815481529060010190602001808311612d9157829003601f168201915b505050505090806004015490806005018054612dc9906159fd565b80601f0160208091040260200160405190810160405280929190818152602001828054612df5906159fd565b8015612e425780601f10612e1757610100808354040283529160200191612e42565b820191906000526020600020905b815481529060010190602001808311612e2557829003601f168201915b5050506008909301549192505060ff1687565b6060600882604051612e6791906159e1565b9081526020016040518091039020805480602002602001604051908101604052809291908181526020016000905b82821015610d45578382906000526020600020018054612eb4906159fd565b80601f0160208091040260200160405190810160405280929190818152602001828054612ee0906159fd565b8015612f2d5780601f10612f0257610100808354040283529160200191612f2d565b820191906000526020600020905b815481529060010190602001808311612f1057829003601f168201915b505050505081526020019060010190612e95565b600b8181548110612f5157600080fd5b9060005260206000209060030201600091509050806000018054612f74906159fd565b80601f0160208091040260200160405190810160405280929190818152602001828054612fa0906159fd565b8015612fed5780601f10612fc257610100808354040283529160200191612fed565b820191906000526020600020905b815481529060010190602001808311612fd057829003601f168201915b505050505090806001018054613002906159fd565b80601f016020809104026020016040519081016040528092919081815260200182805461302e906159fd565b801561307b5780601f106130505761010080835404028352916020019161307b565b820191906000526020600020905b81548152906001019060200180831161305e57829003601f168201915b505050505090806002018054613090906159fd565b80601f01602080910402602001604051908101604052809291908181526020018280546130bc906159fd565b80156131095780601f106130de57610100808354040283529160200191613109565b820191906000526020600020905b8154815290600101906020018083116130ec57829003601f168201915b5050505050905083565b8151602081840181018051600882529282019185019190912091905280548290811061192f57600080fd5b613219600a805480602002602001604051908101604052809291908181526020016000905b8282101561320f578382906000526020600020018054613182906159fd565b80601f01602080910402602001604051908101604052809291908181526020018280546131ae906159fd565b80156131fb5780601f106131d0576101008083540402835291602001916131fb565b820191906000526020600020905b8154815290600101906020018083116131de57829003601f168201915b505050505081526020019060010190613163565b5050505083614d0c565b61325b57600a80546001810182556000919091527fc65a7bb8d6351c1cf70c95a316cc6a92839c986682d98bc35f958f4883f9d2a8016132598282615a7d565b505b60058160405161326b91906159e1565b90815260405160209181900382019020600a0180546001810182556000918252919020016132998382615a7d565b506005816040516132aa91906159e1565b9081526040516020918190038201902060090180546001810182556000918252908290209181049091018054601f9092166101000a60ff021990911690555050565b600c81815481106132fc57600080fd5b906000526020600020906005020160009150905080600001805461331f906159fd565b80601f016020809104026020016040519081016040528092919081815260200182805461334b906159fd565b80156133985780601f1061336d57610100808354040283529160200191613398565b820191906000526020600020905b81548152906001019060200180831161337b57829003601f168201915b5050505050908060010180546133ad906159fd565b80601f01602080910402602001604051908101604052809291908181526020018280546133d9906159fd565b80156134265780601f106133fb57610100808354040283529160200191613426565b820191906000526020600020905b81548152906001019060200180831161340957829003601f168201915b50505050509080600201805461343b906159fd565b80601f0160208091040260200160405190810160405280929190818152602001828054613467906159fd565b80156134b45780601f10613489576101008083540402835291602001916134b4565b820191906000526020600020905b81548152906001019060200180831161349757829003601f168201915b5050505050908060030180546134c9906159fd565b80601f01602080910402602001604051908101604052809291908181526020018280546134f5906159fd565b80156135425780601f1061351757610100808354040283529160200191613542565b820191906000526020600020905b81548152906001019060200180831161352557829003601f168201915b505050505090806004018054613557906159fd565b80601f0160208091040260200160405190810160405280929190818152602001828054613583906159fd565b80156135d05780601f106135a5576101008083540402835291602001916135d0565b820191906000526020600020905b8154815290600101906020018083116135b357829003601f168201915b5050505050905085565b6040518061016001604052808a81526020018981526020018881526020018781526020018681526020018581526020018481526020018381526020018215158152602001600067ffffffffffffffff81111561363857613638614f7a565b604051908082528060200260200182016040528015613661578160200160208202803683370190505b508152602001600060405190808252806020026020018201604052801561369c57816020015b60608152602001906001900390816136875790505b5081525060058a6040516136b091906159e1565b908152604051908190036020019020815181906136cd9082615a7d565b50602082015160018201906136e29082615a7d565b50604082015160028201906136f79082615a7d565b506060820151600382019061370c9082615a7d565b506080820151600482015560a0820151600582019061372b9082615a7d565b5060c08201518051613747916006840191602090910190614dc2565b5060e08201518051613763916007840191602090910190614e18565b5061010082015160088201805460ff19169115159190911790556101208201518051613799916009840191602090910190614e5f565b5061014082015180516137b691600a840191602090910190614dc2565b5090505060005b835181101561382d5760048482815181106137da576137da615b3d565b60200260200101516040516137ef91906159e1565b90815260405160209181900382019020805460018101825560009182529190200161381a8b82615a7d565b508061382581615b69565b9150506137bd565b50505050505050505050565b60408051600080825260208201808452825190209092909161385d918591016159e1565b604051602081830303815290604052805190602001201461387f576001613882565b60005b90506040518061016001604052808a6001600160a01b03168152602001898152602001888152602001878152602001868152602001858152602001848152602001600115158152602001826138d85760006138db565b60015b151581526020018215158152602001838152506002876040516138fe91906159e1565b908152604051602091819003820190208251815473ffffffffffffffffffffffffffffffffffffffff19166001600160a01b0390911617815590820151600182019061394a9082615a7d565b506040820151600282019061395f9082615a7d565b50606082015160038201906139749082615a7d565b50608082015160048201906139899082615a7d565b5060a0820151600582019061399e9082615a7d565b5060c082015160068201906139b39082615a7d565b5060e08201516007820180546101008086015161012087015161ffff1990931694151561ff00191694909417931515029290921762ff0000191662010000921515929092029190911790556101408201516008820190613a139082615a7d565b509050508015613b8157600286604051613a2d91906159e1565b9081526020016040518091039020600387604051613a4b91906159e1565b9081526040519081900360200190208154815473ffffffffffffffffffffffffffffffffffffffff19166001600160a01b03909116178155600180820190613a9590840182615bf8565b50600281810190613aa890840182615bf8565b50600381810190613abb90840182615bf8565b50600481810190613ace90840182615bf8565b50600581810190613ae190840182615bf8565b50600681810190613af490840182615bf8565b5060078281018054918301805460ff938416151560ff19821681178355835461010090819004861615150261ff001990911661ffff19909216919091171780825591546201000090819004909316151590920262ff000019909116179055600880820190613b6490840182615bf8565b50506001805491506000613b7783615b69565b9190505550613bbd565b600980546001810182556000919091527f6e1540171b6c0c960b71a7020d9f60077f6af931a8bbf590da0223dacf75c7af0161382d8782615a7d565b505050505050505050565b6000613c9b6009805480602002602001604051908101604052809291908181526020016000905b82821015612395578382906000526020600020018054613c0e906159fd565b80601f0160208091040260200160405190810160405280929190818152602001828054613c3a906159fd565b8015613c875780601f10613c5c57610100808354040283529160200191613c87565b820191906000526020600020905b815481529060010190602001808311613c6a57829003601f168201915b505050505081526020019060010190613bef565b6009805491925090613caf90600190615ccb565b81548110613cbf57613cbf615b3d565b9060005260206000200160098281548110613cdc57613cdc615b3d565b906000526020600020019081613cf29190615bf8565b506009805480613d0457613d04615cde565b600190038181906000526020600020016000613d209190614f0e565b90555050565b6000805b8351811015613db85782604051602001613d4491906159e1565b60405160208183030381529060405280519060200120848281518110613d6c57613d6c615b3d565b6020026020010151604051602001613d8491906159e1565b6040516020818303038152906040528051906020012003613da6579050613dbe565b80613db081615b69565b915050613d2a565b50600090505b92915050565b60005b600b54811015613fd45783604051602001613de291906159e1565b60405160208183030381529060405280519060200120600b8281548110613e0b57613e0b615b3d565b9060005260206000209060030201600001604051602001613e2c9190615b82565b60405160208183030381529060405280519060200120148015613ebd575082604051602001613e5b91906159e1565b60405160208183030381529060405280519060200120600b8281548110613e8457613e84615b3d565b9060005260206000209060030201600101604051602001613ea59190615b82565b60405160208183030381529060405280519060200120145b8015613f37575081604051602001613ed591906159e1565b60405160208183030381529060405280519060200120600b8281548110613efe57613efe615b3d565b9060005260206000209060030201600201604051602001613f1f9190615b82565b60405160208183030381529060405280519060200120145b15613fc257600b8054613f4c90600190615ccb565b81548110613f5c57613f5c615b3d565b9060005260206000209060030201600b8281548110613f7d57613f7d615b3d565b6000918252602090912060039091020180613f988382615bf8565b50600181810190613fab90840182615bf8565b50600281810190613fbe90840182615bf8565b5050505b80613fcc81615b69565b915050613dc7565b50600b805480613fe657613fe6615cde565b600082815260208120600019909201916003830201906140068282614f0e565b614014600183016000614f0e565b614022600283016000614f0e565b50509055505050565b6000805b60058560405161403f91906159e1565b90815260405190819003602001902060060154811015614190578360405160200161406a91906159e1565b6040516020818303038152906040528051906020012060058660405161409091906159e1565b908152602001604051809103902060060182815481106140b2576140b2615b3d565b906000526020600020016040516020016140cc9190615b82565b604051602081830303815290604052805190602001200361417e576005856040516140f791906159e1565b9081526020016040518091039020600701838154811061411957614119615b3d565b906000526020600020015460058660405161413491906159e1565b9081526020016040518091039020600701828154811061415657614156615b3d565b90600052602060002001600082825461416f9190615cf4565b90915550600192506141909050565b8061418881615b69565b91505061402f565b50801561438e576005846040516141a791906159e1565b908152602001604051809103902060060160016005866040516141ca91906159e1565b908152604051908190036020019020600601546141e79190615ccb565b815481106141f7576141f7615b3d565b9060005260206000200160058560405161421191906159e1565b9081526020016040518091039020600601838154811061423357614233615b3d565b9060005260206000200190816142499190615bf8565b5060058460405161425a91906159e1565b908152602001604051809103902060060180548061427a5761427a615cde565b6001900381819060005260206000200160006142969190614f0e565b90556005846040516142a891906159e1565b908152602001604051809103902060070160016005866040516142cb91906159e1565b908152604051908190036020019020600701546142e89190615ccb565b815481106142f8576142f8615b3d565b906000526020600020015460058560405161431391906159e1565b9081526020016040518091039020600701838154811061433557614335615b3d565b906000526020600020018190555060058460405161435391906159e1565b908152602001604051809103902060070180548061437357614373615cde565b60019003818190600052602060002001600090559055610c50565b8260058560405161439f91906159e1565b908152602001604051809103902060060183815481106143c1576143c1615b3d565b9060005260206000200190816143d79190615a7d565b506004836040516143e891906159e1565b9081526040516020918190038201902080546001810182556000918252919020016144138582615a7d565b5050505050565b600061450960048460405161442f91906159e1565b9081526020016040518091039020805480602002602001604051908101604052809291908181526020016000905b8282101561239557838290600052602060002001805461447c906159fd565b80601f01602080910402602001604051908101604052809291908181526020018280546144a8906159fd565b80156144f55780601f106144ca576101008083540402835291602001916144f5565b820191906000526020600020905b8154815290600101906020018083116144d857829003601f168201915b50505050508152602001906001019061445d565b905060048360405161451b91906159e1565b9081526020016040518091039020600160048560405161453b91906159e1565b908152604051908190036020019020546145559190615ccb565b8154811061456557614565615b3d565b9060005260206000200160048460405161457f91906159e1565b9081526020016040518091039020828154811061459e5761459e615b3d565b9060005260206000200190816145b49190615bf8565b506004836040516145c591906159e1565b90815260200160405180910390208054806145e2576145e2615cde565b6001900381819060005260206000200160006145fe9190614f0e565b9055505050565b60005b60068360405161461891906159e1565b908152604051908190036020019020548110156146d857600760068460405161464191906159e1565b9081526020016040518091039020828154811061466057614660615b3d565b906000526020600020016040516146779190615b82565b90815260200160405180910390208360405161469391906159e1565b9081526020016040518091039020826040516146af91906159e1565b908152604051908190036020019020805460ff19169055806146d081615b69565b915050614608565b505050565b60006147d66008836040516146f291906159e1565b9081526020016040518091039020805480602002602001604051908101604052809291908181526020016000905b828210156147cc57838290600052602060002001805461473f906159fd565b80601f016020809104026020016040519081016040528092919081815260200182805461476b906159fd565b80156147b85780601f1061478d576101008083540402835291602001916147b8565b820191906000526020600020905b81548152906001019060200180831161479b57829003601f168201915b505050505081526020019060010190614720565b5050505084613d26565b90506008826040516147e891906159e1565b9081526020016040518091039020600160088460405161480891906159e1565b908152604051908190036020019020546148229190615ccb565b8154811061483257614832615b3d565b9060005260206000200160088360405161484c91906159e1565b9081526020016040518091039020828154811061486b5761486b615b3d565b9060005260206000200190816148819190615bf8565b506008826040516145c591906159e1565b60006149846005846040516148a791906159e1565b9081526020016040518091039020600601805480602002602001604051908101604052809291908181526020016000905b828210156123955783829060005260206000200180546148f7906159fd565b80601f0160208091040260200160405190810160405280929190818152602001828054614923906159fd565b80156149705780601f1061494557610100808354040283529160200191614970565b820191906000526020600020905b81548152906001019060200180831161495357829003601f168201915b5050505050815260200190600101906148d8565b905060058360405161499691906159e1565b9081526020016040518091039020600a0160016005856040516149b991906159e1565b908152604051908190036020019020600a01546149d69190615ccb565b815481106149e6576149e6615b3d565b90600052602060002001600584604051614a0091906159e1565b9081526020016040518091039020600a018281548110614a2257614a22615b3d565b906000526020600020019081614a389190615bf8565b50600583604051614a4991906159e1565b9081526020016040518091039020600a01805480614a6957614a69615cde565b600190038181906000526020600020016000614a859190614f0e565b9055600583604051614a9791906159e1565b90815260200160405180910390206009016001600585604051614aba91906159e1565b90815260405190819003602001902060090154614ad79190615ccb565b81548110614ae757614ae7615b3d565b90600052602060002090602091828204019190069054906101000a900460ff16600584604051614b1791906159e1565b90815260200160405180910390206009018281548110614b3957614b39615b3d565b90600052602060002090602091828204019190066101000a81548160ff02191690836003811115614b6c57614b6c6155ae565b0217905550600583604051614b8191906159e1565b9081526020016040518091039020600901805480614ba157614ba1615cde565b60019003818190600052602060002090602091828204019190066101000a81549060ff02191690559055505050565b6000614ca3600a805480602002602001604051908101604052809291908181526020016000905b82821015612395578382906000526020600020018054614c16906159fd565b80601f0160208091040260200160405190810160405280929190818152602001828054614c42906159fd565b8015614c8f5780601f10614c6457610100808354040283529160200191614c8f565b820191906000526020600020905b815481529060010190602001808311614c7257829003601f168201915b505050505081526020019060010190614bf7565b600a805491925090614cb790600190615ccb565b81548110614cc757614cc7615b3d565b90600052602060002001600a8281548110614ce457614ce4615b3d565b906000526020600020019081614cfa9190615bf8565b50600a805480613d0457613d04615cde565b6000805b8351811015613db85782604051602001614d2a91906159e1565b60405160208183030381529060405280519060200120848281518110614d5257614d52615b3d565b6020026020010151604051602001614d6a91906159e1565b6040516020818303038152906040528051906020012003614d8f576001915050613dbe565b80614d9981615b69565b915050614d10565b5080546000825590600052602060002090810190614dbf9190614f48565b50565b828054828255906000526020600020908101928215614e08579160200282015b82811115614e085782518290614df89082615a7d565b5091602001919060010190614de2565b50614e14929150614f48565b5090565b828054828255906000526020600020908101928215614e53579160200282015b82811115614e53578251825591602001919060010190614e38565b50614e14929150614f65565b82805482825590600052602060002090601f01602090048101928215614e535791602002820160005b83821115614ed457835183826101000a81548160ff02191690836003811115614eb357614eb36155ae565b02179055509260200192600101602081600001049283019260010302614e88565b8015614f015782816101000a81549060ff0219169055600101602081600001049283019260010302614ed4565b5050614e14929150614f65565b508054614f1a906159fd565b6000825580601f10614f2a575050565b601f016020900490600052602060002090810190614dbf9190614f65565b80821115614e14576000614f5c8282614f0e565b50600101614f48565b5b80821115614e145760008155600101614f66565b634e487b7160e01b600052604160045260246000fd5b604051601f8201601f1916810167ffffffffffffffff81118282101715614fb957614fb9614f7a565b604052919050565b600082601f830112614fd257600080fd5b813567ffffffffffffffff811115614fec57614fec614f7a565b614fff601f8201601f1916602001614f90565b81815284602083860101111561501457600080fd5b816020850160208301376000918101602001919091529392505050565b60008060006060848603121561504657600080fd5b833567ffffffffffffffff8082111561505e57600080fd5b61506a87838801614fc1565b9450602086013591508082111561508057600080fd5b61508c87838801614fc1565b935060408601359150808211156150a257600080fd5b506150af86828701614fc1565b9150509250925092565b6000602082840312156150cb57600080fd5b5035919050565b60005b838110156150ed5781810151838201526020016150d5565b50506000910152565b6000815180845261510e8160208601602086016150d2565b601f01601f19169290920160200192915050565b60208152600061513560208301846150f6565b9392505050565b60006020828403121561514e57600080fd5b813567ffffffffffffffff81111561516557600080fd5b61517184828501614fc1565b949350505050565b6001600160a01b038c168152600061016080602084015261519c8184018e6150f6565b905082810360408401526151b0818d6150f6565b905082810360608401526151c4818c6150f6565b905082810360808401526151d8818b6150f6565b905082810360a08401526151ec818a6150f6565b905082810360c084015261520081896150f6565b87151560e0850152905085151561010084015284151561012084015282810361014084015261522f81856150f6565b9e9d5050505050505050505050505050565b600082825180855260208086019550808260051b84010181860160005b8481101561528c57601f1986840301895261527a8383516150f6565b9884019892509083019060010161525e565b5090979650505050505050565b6020815260006151356020830184615241565b6020808252825182820181905260009190848201906040850190845b818110156152e4578351835292840192918401916001016152c8565b50909695505050505050565b8035801515811461530057600080fd5b919050565b60008060008060008060c0878903121561531e57600080fd5b863567ffffffffffffffff8082111561533657600080fd5b6153428a838b01614fc1565b9750602089013591508082111561535857600080fd5b6153648a838b01614fc1565b9650604089013591508082111561537a57600080fd5b6153868a838b01614fc1565b955061539460608a016152f0565b945060808901359150808211156153aa57600080fd5b6153b68a838b01614fc1565b935060a08901359150808211156153cc57600080fd5b506153d989828a01614fc1565b9150509295509295509295565b6060815260006153f96060830186615241565b828103602084015261540b8186615241565b9050828103604084015261541f8185615241565b9695505050505050565b6000806040838503121561543c57600080fd5b823567ffffffffffffffff81111561545357600080fd5b61545f85828601614fc1565b95602094909401359450505050565b6040815260006154816040830185615241565b82810360208401526129a58185615241565b60e0815260006154a660e083018a6150f6565b82810360208401526154b8818a6150f6565b905082810360408401526154cc81896150f6565b905082810360608401526154e081886150f6565b905085608084015282810360a08401526154fa81866150f6565b91505082151560c083015298975050505050505050565b60608152600061552460608301866150f6565b828103602084015261553681866150f6565b9050828103604084015261541f81856150f6565b6000806040838503121561555d57600080fd5b823567ffffffffffffffff8082111561557557600080fd5b61558186838701614fc1565b9350602085013591508082111561559757600080fd5b506155a485828601614fc1565b9150509250929050565b634e487b7160e01b600052602160045260246000fd5b60208101600583106155e657634e487b7160e01b600052602160045260246000fd5b91905290565b60a0815260006155ff60a08301886150f6565b828103602084015261561181886150f6565b9050828103604084015261562581876150f6565b9050828103606084015261563981866150f6565b9050828103608084015261564d81856150f6565b98975050505050505050565b600067ffffffffffffffff82111561567357615673614f7a565b5060051b60200190565b600082601f83011261568e57600080fd5b813560206156a361569e83615659565b614f90565b82815260059290921b840181019181810190868411156156c257600080fd5b8286015b8481101561570257803567ffffffffffffffff8111156156e65760008081fd5b6156f48986838b0101614fc1565b8452509183019183016156c6565b509695505050505050565b600082601f83011261571e57600080fd5b8135602061572e61569e83615659565b82815260059290921b8401810191818101908684111561574d57600080fd5b8286015b848110156157025780358352918301918301615751565b60008060008060008060008060006101208a8c03121561578757600080fd5b893567ffffffffffffffff8082111561579f57600080fd5b6157ab8d838e01614fc1565b9a5060208c01359150808211156157c157600080fd5b6157cd8d838e01614fc1565b995060408c01359150808211156157e357600080fd5b6157ef8d838e01614fc1565b985060608c013591508082111561580557600080fd5b6158118d838e01614fc1565b975060808c0135965060a08c013591508082111561582e57600080fd5b61583a8d838e01614fc1565b955060c08c013591508082111561585057600080fd5b61585c8d838e0161567d565b945060e08c013591508082111561587257600080fd5b5061587f8c828d0161570d565b92505061588f6101008b016152f0565b90509295985092959850929598565b80356001600160a01b038116811461530057600080fd5b600080600080600080600080610100898b0312156158d257600080fd5b6158db8961589e565b9750602089013567ffffffffffffffff808211156158f857600080fd5b6159048c838d01614fc1565b985060408b013591508082111561591a57600080fd5b6159268c838d01614fc1565b975060608b013591508082111561593c57600080fd5b6159488c838d01614fc1565b965060808b013591508082111561595e57600080fd5b61596a8c838d01614fc1565b955060a08b013591508082111561598057600080fd5b61598c8c838d01614fc1565b945060c08b01359150808211156159a257600080fd5b6159ae8c838d01614fc1565b935060e08b01359150808211156159c457600080fd5b506159d18b828c01614fc1565b9150509295985092959890939650565b600082516159f38184602087016150d2565b9190910192915050565b600181811c90821680615a1157607f821691505b602082108103615a3157634e487b7160e01b600052602260045260246000fd5b50919050565b601f8211156146d857600081815260208120601f850160051c81016020861015615a5e5750805b601f850160051c820191505b818110156112cf57828155600101615a6a565b815167ffffffffffffffff811115615a9757615a97614f7a565b615aab81615aa584546159fd565b84615a37565b602080601f831160018114615ae05760008415615ac85750858301515b600019600386901b1c1916600185901b1785556112cf565b600085815260208120601f198616915b82811015615b0f57888601518255948401946001909101908401615af0565b5085821015615b2d5787850151600019600388901b60f8161c191681555b5050505050600190811b01905550565b634e487b7160e01b600052603260045260246000fd5b634e487b7160e01b600052601160045260246000fd5b600060018201615b7b57615b7b615b53565b5060010190565b6000808354615b90816159fd565b60018281168015615ba85760018114615bbd57615bec565b60ff1984168752821515830287019450615bec565b8760005260208060002060005b85811015615be35781548a820152908401908201615bca565b50505082870194505b50929695505050505050565b818103615c03575050565b615c0d82546159fd565b67ffffffffffffffff811115615c2557615c25614f7a565b615c3381615aa584546159fd565b6000601f821160018114615c675760008315615c4f5750848201545b600019600385901b1c1916600184901b178455614413565b600085815260209020601f19841690600086815260209020845b83811015615ca15782860154825560019586019590910190602001615c81565b5085831015615b2d5793015460001960f8600387901b161c19169092555050600190811b01905550565b81810381811115613dbe57613dbe615b53565b634e487b7160e01b600052603160045260246000fd5b80820180821115613dbe57613dbe615b5356fea2646970667358221220bbb0918ef25448c80a9090e67c1d9b0d8293c821a3d4fb3d243441e8478d538b64736f6c63430008130033",
  "immutableReferences": {},
  "source": "// SPDX-License-Identifier: GPL-3.0\r\npragma solidity >=0.8.1 <0.9.0;\r\n\r\ncontract Land {\r\n\r\n    address owner;\r\n    uint countOfGovtOfficials;\r\n    \r\n    struct User {\r\n        address account;\r\n        string name;\r\n        string email;\r\n        string aadhaar;\r\n        string pan;\r\n        string image;\r\n        string phoneno;\r\n        bool registered;\r\n        bool isMember;\r\n        bool isOfficial;\r\n        string govtId;\r\n    }\r\n    \r\n    enum ChangeStatus {\r\n        None,\r\n        Pending,\r\n        Accepted, \r\n        Rejected\r\n    }\r\n    \r\n    enum RequestStatus {\r\n        None,\r\n        Pending,\r\n        Accepted,\r\n        Rejected,\r\n        Sell\r\n    }\r\n    \r\n    struct LandDetails {\r\n        string id;\r\n        string landAddress;\r\n        string registeredBy;\r\n        string registrationTime;\r\n        uint price;\r\n        string ipfsHash;\r\n        string[] ownerAadhaar;\r\n        uint[] share;\r\n        bool jointOwnership;\r\n        ChangeStatus[] status;\r\n        string[] saleBy;\r\n    }\r\n\r\n    struct TransferDetails {\r\n        string id;\r\n        string oldAadhaar;\r\n        string newAadhaar;\r\n    }\r\n\r\n    struct OwnershipChange {\r\n        string id;\r\n        string oldAadhaar;\r\n        string newAadhaar;\r\n        string time;\r\n        string approvedBy;\r\n    }\r\n    \r\n    mapping(string => User) public Users;\r\n    mapping(string => User) public GovtOfficial;\r\n    mapping(string => string[]) public UserAssets;\r\n    mapping(string => LandDetails) public Lands;\r\n    mapping(string => string[]) public InterestedBuyers;\r\n    mapping(string => mapping(string => mapping(string => RequestStatus))) public LandRequestAccess;\r\n    mapping(string => string[]) public requestedLands;\r\n    \r\n    string[] public UsersRegistered;\r\n    string[] public LandsforSale; \r\n    TransferDetails[] public TransferList;\r\n    OwnershipChange[] public ApprovedList;\r\n    \r\n    constructor() {\r\n        owner = msg.sender;\r\n    }\r\n    \r\n    function findIndex(string[] memory array, string memory value) private pure returns (uint) {\r\n        for (uint i = 0; i < array.length; i++) {\r\n            if (keccak256(abi.encodePacked(array[i])) == keccak256(abi.encodePacked(value))) {\r\n                return i;\r\n            }\r\n        }\r\n        return 0;\r\n    }\r\n\r\n    function checkInArray(string[] memory _array, string memory _id) private pure returns (bool) {\r\n        for (uint i = 0; i < _array.length; i++) {\r\n            if (keccak256(abi.encodePacked(_array[i])) == keccak256(abi.encodePacked(_id))) {\r\n                return true;\r\n            }\r\n        }\r\n        return false;\r\n    }\r\n\r\n    function getLandOwners(string memory _id) public view returns(string[] memory) {\r\n        return Lands[_id].ownerAadhaar;\r\n    }\r\n    \r\n    function getShares(string memory _id) public view returns (uint[] memory) {\r\n        return Lands[_id].share;\r\n    }\r\n    \r\n    function getStatus(string memory _id) public view returns (string[] memory) {\r\n        string[] memory statusList = new string[](Lands[_id].status.length);\r\n        for (uint i = 0; i < Lands[_id].status.length; i++) {\r\n            statusList[i] = (Lands[_id].status[i] == ChangeStatus.None ? \"None\" : (Lands[_id].status[i] == ChangeStatus.Pending ? \"Pending\" : (Lands[_id].status[i] == ChangeStatus.Accepted ? \"Accepted\" : \"Rejected\")));\r\n        }\r\n        return statusList;\r\n    }\r\n\r\n    function getOwnerNames(string memory _id) public view returns (string[] memory) {\r\n        string[] memory names = new string[](Lands[_id].ownerAadhaar.length);\r\n        for (uint i = 0; i < Lands[_id].ownerAadhaar.length; i++) {\r\n            names[i] = Users[Lands[_id].ownerAadhaar[i]].name;\r\n        }\r\n        return names;\r\n    }\r\n\r\n    function getOwnerEmails(string memory _id) public view returns (string[] memory) {\r\n        string[] memory emails = new string[](Lands[_id].ownerAadhaar.length);\r\n        for (uint i = 0; i < Lands[_id].ownerAadhaar.length; i++) {\r\n            emails[i] = Users[Lands[_id].ownerAadhaar[i]].email;\r\n        }\r\n        return emails;\r\n    }\r\n\r\n    function getSellerNames(string memory _id) public view returns (string[] memory) {\r\n        string[] memory names = new string[](Lands[_id].saleBy.length);\r\n        for (uint i = 0; i < Lands[_id].saleBy.length; i++) {\r\n            names[i] = Users[Lands[_id].saleBy[i]].name;\r\n        }\r\n        return names;\r\n    }\r\n\r\n    function getSellerEmail(string memory _id) public view returns (string[] memory) {\r\n        string[] memory emails = new string[](Lands[_id].ownerAadhaar.length);\r\n        for (uint i = 0; i < Lands[_id].ownerAadhaar.length; i++) {\r\n            emails[i] = Users[Lands[_id].ownerAadhaar[i]].email;\r\n        }\r\n        return emails;\r\n    }\r\n    \r\n    function getSaleBy(string memory _id) public view returns (string[] memory) {\r\n        return Lands[_id].saleBy;\r\n    }\r\n    \r\n    function registerUser(address _account, string memory _name, string memory _email, string memory _aadhaar, string memory _pan, string memory _image, string memory _phoneno, string memory _govtId) public {\r\n        bool isofficial = keccak256(abi.encodePacked(_govtId)) == keccak256(abi.encodePacked('')) ? false : true;\r\n        Users[_aadhaar] = User(_account, _name, _email, _aadhaar, _pan, _image, _phoneno, true, (isofficial ? true : false), isofficial, _govtId);\r\n        if (isofficial) {\r\n            GovtOfficial[_aadhaar] = Users[_aadhaar];\r\n            countOfGovtOfficials++;\r\n        }\r\n        else {\r\n            UsersRegistered.push(_aadhaar);\r\n        }\r\n    }\r\n    \r\n    function removeFromRegistered(string memory _aadhaar) private {\r\n        uint i = findIndex(UsersRegistered, _aadhaar);\r\n        UsersRegistered[i] = UsersRegistered[UsersRegistered.length - 1];\r\n        UsersRegistered.pop();\r\n    }\r\n    \r\n    function addUser(string memory _aadhaar) public {\r\n        removeFromRegistered(_aadhaar);\r\n        Users[_aadhaar].isMember = true;\r\n    }\r\n    \r\n    function getRegisteredUsers() public view returns (string[] memory) {\r\n        return UsersRegistered;\r\n    }\r\n    \r\n    function registerLand(string memory _id, string memory _landAddress, string memory _registeredBy, string memory _registrationTime, uint _price, string memory _ipfsHash, string[] memory _ownerAadhaar, uint[] memory _share, bool _jointOwnerShip) public {\r\n        Lands[_id] = LandDetails(_id, _landAddress, _registeredBy, _registrationTime, _price, _ipfsHash, _ownerAadhaar, _share, _jointOwnerShip, new ChangeStatus[](0), new string[](0));\r\n        for (uint i = 0; i < _ownerAadhaar.length; i++) {\r\n            UserAssets[_ownerAadhaar[i]].push(_id);\r\n        }\r\n    }\r\n    \r\n    function auctionLand(string memory _aadhaar, string memory _id) public {\r\n        if (!checkInArray(LandsforSale, _aadhaar)) {\r\n            LandsforSale.push(_id);\r\n        }\r\n        Lands[_id].saleBy.push(_aadhaar);\r\n        Lands[_id].status.push(ChangeStatus.None);\r\n    }\r\n    \r\n    function getAllLandsforSale() public view returns (string[] memory) {\r\n        return LandsforSale;\r\n    }\r\n    \r\n    function getUserAssets(string memory _aadhaar) public view returns (string[] memory) {\r\n        return UserAssets[_aadhaar];\r\n    }    \r\n    \r\n    function requestLandDetails(string memory _id, string memory _aadhaar, string memory _seller) public {\r\n        LandRequestAccess[_aadhaar][_id][_seller] = RequestStatus.Pending;\r\n        requestedLands[_aadhaar].push(_id);\r\n        InterestedBuyers[_id].push(_aadhaar);\r\n    }\r\n    \r\n    function getLandRequestAccess(string memory _id, string memory _aadhaar, string memory _seller) public view returns (string memory) {   \r\n        RequestStatus x = LandRequestAccess[_aadhaar][_id][_seller];\r\n        return (x == RequestStatus.None ? \"None\" : (x == RequestStatus.Pending ? \"Pending\" : (x == RequestStatus.Accepted ? \"Accepted\" : (x == RequestStatus.Rejected ? \"Rejected\" : \"Sell\"))));\r\n    }\r\n    \r\n    function getRequestedLands(string memory _aadhaar) public view returns (string[] memory) {\r\n        return requestedLands[_aadhaar];\r\n    }\r\n    \r\n    function sellLand(string memory _id, string memory _aadhaar, string memory _seller) public {\r\n        LandRequestAccess[_aadhaar][_id][_seller] = RequestStatus.Sell;\r\n    }\r\n    \r\n    function interested(string memory _id) public view returns (string[] memory, string[] memory) {\r\n        string[] memory usersNames = new string[](InterestedBuyers[_id].length);\r\n        string[] memory usersAadhaar = new string[](InterestedBuyers[_id].length);\r\n        for (uint i = 0; i < InterestedBuyers[_id].length; i++) {\r\n            usersNames[i] = Users[InterestedBuyers[_id][i]].name;\r\n            usersAadhaar[i] = InterestedBuyers[_id][i];\r\n        }\r\n        return (usersNames, usersAadhaar);\r\n    }\r\n    \r\n    function requestApprove(string memory _aadhaar, string memory _id, string memory _seller) public {\r\n        LandRequestAccess[_aadhaar][_id][_seller] = RequestStatus.Accepted;\r\n    }\r\n    \r\n    function requestReject(string memory _aadhaar, string memory _id, string memory _seller) public {\r\n        LandRequestAccess[_aadhaar][_id][_seller] = RequestStatus.Rejected;\r\n    }\r\n    \r\n    function removeAsset(string memory _aadhaar, string memory _id) private {\r\n        uint i = findIndex(UserAssets[_aadhaar], _id);\r\n        UserAssets[_aadhaar][i] = UserAssets[_aadhaar][UserAssets[_aadhaar].length - 1];\r\n        UserAssets[_aadhaar].pop();\r\n    }\r\n    \r\n    function removeRequestAccess(string memory _id, string memory _seller) private {\r\n        for (uint i = 0; i < InterestedBuyers[_id].length; i++) {\r\n            delete LandRequestAccess[InterestedBuyers[_id][i]][_id][_seller];\r\n        }\r\n    }\r\n    \r\n    function changeInLandDetails(string memory _id, string memory _aadhaar) private {\r\n        uint i = findIndex(Lands[_id].ownerAadhaar, _aadhaar);\r\n        Lands[_id].saleBy[i] = Lands[_id].saleBy[Lands[_id].saleBy.length - 1];\r\n        Lands[_id].saleBy.pop();\r\n        Lands[_id].status[i] = Lands[_id].status[Lands[_id].status.length - 1];\r\n        Lands[_id].status.pop();\r\n    }\r\n    \r\n    function check(string memory _id, string memory _aadhaar, uint i) private {\r\n        bool exist = false;\r\n        for (uint j = 0; j < Lands[_id].ownerAadhaar.length; j++) {\r\n            if (keccak256(abi.encodePacked(Lands[_id].ownerAadhaar[j])) == keccak256(abi.encodePacked(_aadhaar))) {\r\n                Lands[_id].share[j] += Lands[_id].share[i];\r\n                exist = true;\r\n                break;\r\n            }\r\n        }\r\n        if (exist) {\r\n            Lands[_id].ownerAadhaar[i] = Lands[_id].ownerAadhaar[Lands[_id].ownerAadhaar.length - 1];\r\n            Lands[_id].ownerAadhaar.pop();\r\n            Lands[_id].share[i] = Lands[_id].share[Lands[_id].share.length - 1];\r\n            Lands[_id].share.pop();\r\n        }\r\n        else {\r\n            Lands[_id].ownerAadhaar[i] = _aadhaar;\r\n            UserAssets[_aadhaar].push(_id);\r\n        }\r\n    }\r\n    \r\n    function removeFromLandForSale(string memory _id) private {\r\n        uint i = findIndex(LandsforSale, _id);\r\n        LandsforSale[i] = LandsforSale[LandsforSale.length - 1];\r\n        LandsforSale.pop();\r\n    }\r\n    \r\n    function removeFromRequestedLands(string memory _id, string memory _aadhaar) private {\r\n        uint i = findIndex(requestedLands[_aadhaar], _id);\r\n        requestedLands[_aadhaar][i] = requestedLands[_aadhaar][requestedLands[_aadhaar].length - 1];\r\n        requestedLands[_aadhaar].pop();\r\n    }\r\n\r\n    function removeFromTransferList(string memory _id, string memory _oldAadhaar, string memory _newAadhaar) private {\r\n        for (uint i = 0; i < TransferList.length; i++) {\r\n            if (keccak256(abi.encodePacked(TransferList[i].id)) == keccak256(abi.encodePacked(_id)) && keccak256(abi.encodePacked(TransferList[i].oldAadhaar)) == keccak256(abi.encodePacked(_oldAadhaar)) && keccak256(abi.encodePacked(TransferList[i].newAadhaar)) == keccak256(abi.encodePacked(_newAadhaar))) {\r\n                TransferList[i] = TransferList[TransferList.length - 1];\r\n            }\r\n        }\r\n        TransferList.pop();\r\n    }\r\n    \r\n    function transferRequest(string memory _id, string memory _newAadhaar, string memory _oldAadhaar) public {\r\n        uint i = findIndex(Lands[_id].saleBy, _oldAadhaar);\r\n        Lands[_id].status[i] = ChangeStatus.Pending;\r\n        TransferList.push(TransferDetails(_id, _oldAadhaar, _newAadhaar));\r\n    }\r\n\r\n    function getAllTransferRequest() public view returns (string[] memory, string[] memory, string[] memory) {\r\n        uint l = TransferList.length;\r\n        string[] memory land = new string[](l);\r\n        string[] memory oldA = new string[](l);\r\n        string[] memory newA = new string[](l);\r\n        for (uint i = 0; i < l; i++) {\r\n            land[i] = TransferList[i].id;\r\n            oldA[i] = TransferList[i].oldAadhaar;\r\n            newA[i] = TransferList[i].newAadhaar;\r\n        }\r\n        return (land, oldA, newA);\r\n    }\r\n\r\n    function transfer(string memory _id, string memory _newAadhaar, string memory _oldAadhaar, bool _status, string memory _time, string memory _approver) public {\r\n        if (_status == true) {\r\n            uint i = findIndex(Lands[_id].saleBy, _oldAadhaar);\r\n            Lands[_id].status[i] = ChangeStatus.Accepted;   \r\n            removeFromTransferList(_id, _oldAadhaar, _newAadhaar);\r\n            ApprovedList.push(OwnershipChange(_id, _oldAadhaar, _newAadhaar, _time, _approver));\r\n        }\r\n        else {\r\n            uint i = findIndex(Lands[_id].saleBy, _oldAadhaar);\r\n            Lands[_id].status[i] = ChangeStatus.Rejected;\r\n        }\r\n    }\r\n    \r\n    function changeOwnership(string memory _id, string memory _newAadhaar, string memory _oldAadhaar) public {\r\n        uint i = findIndex(Lands[_id].ownerAadhaar, _oldAadhaar);\r\n        check(_id, _newAadhaar, i);\r\n        removeAsset(_oldAadhaar, _id);\r\n        removeRequestAccess(_id, _oldAadhaar);\r\n        removeFromRequestedLands(_id, _newAadhaar);\r\n        changeInLandDetails(_id, _oldAadhaar);\r\n        if (Lands[_id].saleBy.length == 0) {\r\n            removeFromLandForSale(_id);\r\n            delete InterestedBuyers[_id];\r\n        }\r\n    }\r\n}",
  "sourcePath": "D:\\Programs\\Blockchain\\freeCodeCamp\\Ethereum_based_Land_Management_System\\contracts\\Land.sol",
  "compiler": {
    "name": "solc",
    "version": "0.8.19+commit.7dd6d404.Emscripten.clang"
  },
  "schemaVersion": "3.4.13",
  "updatedAt": "2023-04-25T06:39:41.834Z",
  "networkType": "ethereum",
  "devdoc": {
    "kind": "dev",
    "methods": {},
    "version": 1
  },
  "userdoc": {
    "kind": "user",
    "methods": {},
    "version": 1
  }
}