{
  "contractName": "Land",
  "abi": [
    {
      "inputs": [],
      "stateMutability": "nonpayable",
      "type": "constructor"
    },
    {
      "inputs": [
        {
          "internalType": "address",
          "name": "",
          "type": "address"
        }
      ],
      "name": "GovtOfficial",
      "outputs": [
        {
          "internalType": "address",
          "name": "id",
          "type": "address"
        },
        {
          "internalType": "string",
          "name": "name",
          "type": "string"
        },
        {
          "internalType": "string",
          "name": "email",
          "type": "string"
        },
        {
          "internalType": "bool",
          "name": "isMember",
          "type": "bool"
        },
        {
          "internalType": "bool",
          "name": "isOfficial",
          "type": "bool"
        },
        {
          "internalType": "string",
          "name": "govtId",
          "type": "string"
        }
      ],
      "stateMutability": "view",
      "type": "function"
    },
    {
      "inputs": [
        {
          "internalType": "string",
          "name": "",
          "type": "string"
        },
        {
          "internalType": "uint256",
          "name": "",
          "type": "uint256"
        }
      ],
      "name": "InterestedBuyers",
      "outputs": [
        {
          "internalType": "address",
          "name": "",
          "type": "address"
        }
      ],
      "stateMutability": "view",
      "type": "function"
    },
    {
      "inputs": [
        {
          "internalType": "address",
          "name": "",
          "type": "address"
        },
        {
          "internalType": "string",
          "name": "",
          "type": "string"
        }
      ],
      "name": "LandRequestAccess",
      "outputs": [
        {
          "internalType": "enum Land.RequestStatus",
          "name": "",
          "type": "uint8"
        }
      ],
      "stateMutability": "view",
      "type": "function"
    },
    {
      "inputs": [
        {
          "internalType": "string",
          "name": "",
          "type": "string"
        }
      ],
      "name": "Lands",
      "outputs": [
        {
          "internalType": "string",
          "name": "id",
          "type": "string"
        },
        {
          "internalType": "string",
          "name": "landAddress",
          "type": "string"
        },
        {
          "internalType": "uint256",
          "name": "price",
          "type": "uint256"
        },
        {
          "internalType": "string",
          "name": "ipfsHash",
          "type": "string"
        },
        {
          "internalType": "address",
          "name": "ownerAccount",
          "type": "address"
        },
        {
          "internalType": "enum Land.LandStatus",
          "name": "status",
          "type": "uint8"
        },
        {
          "internalType": "uint256",
          "name": "approved",
          "type": "uint256"
        },
        {
          "internalType": "uint256",
          "name": "rejected",
          "type": "uint256"
        },
        {
          "internalType": "bool",
          "name": "sell",
          "type": "bool"
        }
      ],
      "stateMutability": "view",
      "type": "function"
    },
    {
      "inputs": [
        {
          "internalType": "uint256",
          "name": "",
          "type": "uint256"
        }
      ],
      "name": "LandsforSale",
      "outputs": [
        {
          "internalType": "string",
          "name": "",
          "type": "string"
        }
      ],
      "stateMutability": "view",
      "type": "function"
    },
    {
      "inputs": [
        {
          "internalType": "address",
          "name": "",
          "type": "address"
        },
        {
          "internalType": "uint256",
          "name": "",
          "type": "uint256"
        }
      ],
      "name": "UserAssets",
      "outputs": [
        {
          "internalType": "string",
          "name": "",
          "type": "string"
        }
      ],
      "stateMutability": "view",
      "type": "function"
    },
    {
      "inputs": [
        {
          "internalType": "address",
          "name": "",
          "type": "address"
        }
      ],
      "name": "Users",
      "outputs": [
        {
          "internalType": "address",
          "name": "id",
          "type": "address"
        },
        {
          "internalType": "string",
          "name": "name",
          "type": "string"
        },
        {
          "internalType": "string",
          "name": "email",
          "type": "string"
        },
        {
          "internalType": "bool",
          "name": "isMember",
          "type": "bool"
        },
        {
          "internalType": "bool",
          "name": "isOfficial",
          "type": "bool"
        },
        {
          "internalType": "string",
          "name": "govtId",
          "type": "string"
        }
      ],
      "stateMutability": "view",
      "type": "function"
    },
    {
      "inputs": [
        {
          "internalType": "address",
          "name": "_id",
          "type": "address"
        },
        {
          "internalType": "string",
          "name": "_name",
          "type": "string"
        },
        {
          "internalType": "string",
          "name": "_email",
          "type": "string"
        },
        {
          "internalType": "string",
          "name": "_govtId",
          "type": "string"
        }
      ],
      "name": "addUser",
      "outputs": [],
      "stateMutability": "nonpayable",
      "type": "function"
    },
    {
      "inputs": [],
      "name": "getRegisteredLands",
      "outputs": [
        {
          "internalType": "string[]",
          "name": "",
          "type": "string[]"
        }
      ],
      "stateMutability": "view",
      "type": "function"
    },
    {
      "inputs": [
        {
          "internalType": "string",
          "name": "_id",
          "type": "string"
        },
        {
          "internalType": "string",
          "name": "_landAddress",
          "type": "string"
        },
        {
          "internalType": "uint256",
          "name": "_price",
          "type": "uint256"
        },
        {
          "internalType": "string",
          "name": "_ipfsHash",
          "type": "string"
        },
        {
          "internalType": "address",
          "name": "_ownerAccount",
          "type": "address"
        }
      ],
      "name": "registerLand",
      "outputs": [],
      "stateMutability": "nonpayable",
      "type": "function"
    },
    {
      "inputs": [
        {
          "internalType": "string[]",
          "name": "_approvedLands",
          "type": "string[]"
        },
        {
          "internalType": "string[]",
          "name": "_rejectedLands",
          "type": "string[]"
        }
      ],
      "name": "changeStatus",
      "outputs": [],
      "stateMutability": "nonpayable",
      "type": "function"
    },
    {
      "inputs": [
        {
          "internalType": "string",
          "name": "_id",
          "type": "string"
        }
      ],
      "name": "auctionLand",
      "outputs": [],
      "stateMutability": "nonpayable",
      "type": "function"
    },
    {
      "inputs": [],
      "name": "getAllLandsforSale",
      "outputs": [
        {
          "internalType": "string[]",
          "name": "",
          "type": "string[]"
        }
      ],
      "stateMutability": "view",
      "type": "function"
    },
    {
      "inputs": [
        {
          "internalType": "string",
          "name": "_id",
          "type": "string"
        },
        {
          "internalType": "address",
          "name": "_account",
          "type": "address"
        }
      ],
      "name": "requestLandDetails",
      "outputs": [],
      "stateMutability": "nonpayable",
      "type": "function"
    },
    {
      "inputs": [
        {
          "internalType": "string",
          "name": "_id",
          "type": "string"
        },
        {
          "internalType": "address",
          "name": "_account",
          "type": "address"
        },
        {
          "internalType": "enum Land.RequestStatus",
          "name": "_status",
          "type": "uint8"
        }
      ],
      "name": "showLandRequests",
      "outputs": [],
      "stateMutability": "nonpayable",
      "type": "function"
    },
    {
      "inputs": [
        {
          "internalType": "string",
          "name": "_id",
          "type": "string"
        },
        {
          "internalType": "address",
          "name": "_oldAccount",
          "type": "address"
        },
        {
          "internalType": "address",
          "name": "_newAccount",
          "type": "address"
        },
        {
          "internalType": "bool",
          "name": "_transfered",
          "type": "bool"
        }
      ],
      "name": "changeOwnership",
      "outputs": [],
      "stateMutability": "nonpayable",
      "type": "function"
    }
  ],
  "bytecode": "0x608060405234801561001057600080fd5b50336000806101000a81548173ffffffffffffffffffffffffffffffffffffffff021916908373ffffffffffffffffffffffffffffffffffffffff1602179055506130f0806100606000396000f3fe608060405234801561001057600080fd5b50600436106101005760003560e01c80639de9f63811610097578063c6361c2211610066578063c6361c22146102e1578063ce073c1f146102fd578063e92cc7571461031b578063f8c7742d1461033757610100565b80639de9f63814610228578063a23092b41461025d578063a77d76ec14610279578063bd99108f146102a957610100565b8063813eff26116100d3578063813eff261461018b5780638800eeec146101a75780638de082fd146101d757806399b956a0146101f357610100565b806307176f63146101055780631bcae1b2146101355780632aee199b1461015157806365e6af321461016d575b600080fd5b61011f600480360381019061011a9190611ea1565b610367565b60405161012c9190611f5e565b60405180910390f35b61014f600480360381019061014a91906120b5565b610413565b005b61016b600480360381019061016691906121e4565b6104e0565b005b61017561060c565b6040516101829190612368565b60405180910390f35b6101a560048036038101906101a0919061240d565b6106e5565b005b6101c160048036038101906101bc919061247c565b61076d565b6040516101ce9190611f5e565b60405180910390f35b6101f160048036038101906101ec91906124bc565b610826565b005b61020d6004803603810190610208919061258b565b610a90565b60405161021f969594939291906125e2565b60405180910390f35b610242600480360381019061023d919061258b565b610c9e565b604051610254969594939291906125e2565b60405180910390f35b61027760048036038101906102729190612658565b610eac565b005b610293600480360381019061028e91906126b4565b610f34565b6040516102a09190612710565b60405180910390f35b6102c360048036038101906102be91906120b5565b610f98565b6040516102d8999897969594939291906127b1565b60405180910390f35b6102fb60048036038101906102f69190612853565b6111ce565b005b610305611527565b6040516103129190612368565b60405180910390f35b6103356004803603810190610330919061293a565b611635565b005b610351600480360381019061034c91906129bd565b611751565b60405161035e9190612a61565b60405180910390f35b6009818154811061037757600080fd5b90600052602060002001600091509050805461039290612aab565b80601f01602080910402602001604051908101604052809291908181526020018280546103be90612aab565b801561040b5780601f106103e05761010080835404028352916020019161040b565b820191906000526020600020905b8154815290600101906020018083116103ee57829003601f168201915b505050505081565b600160028111156104275761042661273a565b5b6005826040516104379190612b18565b908152602001604051809103902060040160149054906101000a900460ff1660028111156104685761046761273a565b5b036104dd57600160058260405161047f9190612b18565b908152602001604051809103902060070160006101000a81548160ff0219169083151502179055506009819080600181540180825580915050600190039060005260206000200160009091909190915090816104db9190612cdb565b505b50565b60005b825181101561057357600583828151811061050157610500612dad565b5b60200260200101516040516105169190612b18565b9081526020016040518091039020600501600081548092919061053890612e0b565b919050555061056083828151811061055357610552612dad565b5b6020026020010151611796565b808061056b90612e0b565b9150506104e3565b5060005b815181101561060757600582828151811061059557610594612dad565b5b60200260200101516040516105aa9190612b18565b908152602001604051809103902060060160008154809291906105cc90612e0b565b91905055506105f48282815181106105e7576105e6612dad565b5b6020026020010151611796565b80806105ff90612e0b565b915050610577565b505050565b60606009805480602002602001604051908101604052809291908181526020016000905b828210156106dc57838290600052602060002001805461064f90612aab565b80601f016020809104026020016040519081016040528092919081815260200182805461067b90612aab565b80156106c85780601f1061069d576101008083540402835291602001916106c8565b820191906000526020600020905b8154815290600101906020018083116106ab57829003601f168201915b505050505081526020019060010190610630565b50505050905090565b80600760008473ffffffffffffffffffffffffffffffffffffffff1673ffffffffffffffffffffffffffffffffffffffff168152602001908152602001600020846040516107339190612b18565b908152602001604051809103902060006101000a81548160ff021916908360028111156107635761076261273a565b5b0217905550505050565b6004602052816000526040600020818154811061078957600080fd5b906000526020600020016000915091505080546107a590612aab565b80601f01602080910402602001604051908101604052809291908181526020018280546107d190612aab565b801561081e5780601f106107f35761010080835404028352916020019161081e565b820191906000526020600020905b81548152906001019060200180831161080157829003601f168201915b505050505081565b6040518061012001604052808681526020018581526020018481526020018381526020018273ffffffffffffffffffffffffffffffffffffffff1681526020016000600281111561087a5761087961273a565b5b81526020016000815260200160008152602001600015158152506005866040516108a49190612b18565b908152602001604051809103902060008201518160000190816108c79190612cdb565b5060208201518160010190816108dd9190612cdb565b506040820151816002015560608201518160030190816108fd9190612cdb565b5060808201518160040160006101000a81548173ffffffffffffffffffffffffffffffffffffffff021916908373ffffffffffffffffffffffffffffffffffffffff16021790555060a08201518160040160146101000a81548160ff021916908360028111156109705761096f61273a565b5b021790555060c0820151816005015560e082015181600601556101008201518160070160006101000a81548160ff021916908315150217905550905050600460008273ffffffffffffffffffffffffffffffffffffffff1673ffffffffffffffffffffffffffffffffffffffff16815260200190815260200160002085908060018154018082558091505060019003906000526020600020016000909190919091509081610a1e9190612cdb565b5060086000806002811115610a3657610a3561273a565b5b6002811115610a4857610a4761273a565b5b815260200190815260200160002085908060018154018082558091505060019003906000526020600020016000909190919091509081610a889190612cdb565b505050505050565b60026020528060005260406000206000915090508060000160009054906101000a900473ffffffffffffffffffffffffffffffffffffffff1690806001018054610ad990612aab565b80601f0160208091040260200160405190810160405280929190818152602001828054610b0590612aab565b8015610b525780601f10610b2757610100808354040283529160200191610b52565b820191906000526020600020905b815481529060010190602001808311610b3557829003601f168201915b505050505090806002018054610b6790612aab565b80601f0160208091040260200160405190810160405280929190818152602001828054610b9390612aab565b8015610be05780601f10610bb557610100808354040283529160200191610be0565b820191906000526020600020905b815481529060010190602001808311610bc357829003601f168201915b5050505050908060030160009054906101000a900460ff16908060030160019054906101000a900460ff1690806004018054610c1b90612aab565b80601f0160208091040260200160405190810160405280929190818152602001828054610c4790612aab565b8015610c945780601f10610c6957610100808354040283529160200191610c94565b820191906000526020600020905b815481529060010190602001808311610c7757829003601f168201915b5050505050905086565b60036020528060005260406000206000915090508060000160009054906101000a900473ffffffffffffffffffffffffffffffffffffffff1690806001018054610ce790612aab565b80601f0160208091040260200160405190810160405280929190818152602001828054610d1390612aab565b8015610d605780601f10610d3557610100808354040283529160200191610d60565b820191906000526020600020905b815481529060010190602001808311610d4357829003601f168201915b505050505090806002018054610d7590612aab565b80601f0160208091040260200160405190810160405280929190818152602001828054610da190612aab565b8015610dee5780601f10610dc357610100808354040283529160200191610dee565b820191906000526020600020905b815481529060010190602001808311610dd157829003601f168201915b5050505050908060030160009054906101000a900460ff16908060030160019054906101000a900460ff1690806004018054610e2990612aab565b80601f0160208091040260200160405190810160405280929190818152602001828054610e5590612aab565b8015610ea25780601f10610e7757610100808354040283529160200191610ea2565b820191906000526020600020905b815481529060010190602001808311610e8557829003601f168201915b5050505050905086565b6000600760008373ffffffffffffffffffffffffffffffffffffffff1673ffffffffffffffffffffffffffffffffffffffff16815260200190815260200160002083604051610efb9190612b18565b908152602001604051809103902060006101000a81548160ff02191690836002811115610f2b57610f2a61273a565b5b02179055505050565b6006828051602081018201805184825260208301602085012081835280955050505050508181548110610f6657600080fd5b906000526020600020016000915091509054906101000a900473ffffffffffffffffffffffffffffffffffffffff1681565b600581805160208101820180518482526020830160208501208183528095505050505050600091509050806000018054610fd190612aab565b80601f0160208091040260200160405190810160405280929190818152602001828054610ffd90612aab565b801561104a5780601f1061101f5761010080835404028352916020019161104a565b820191906000526020600020905b81548152906001019060200180831161102d57829003601f168201915b50505050509080600101805461105f90612aab565b80601f016020809104026020016040519081016040528092919081815260200182805461108b90612aab565b80156110d85780601f106110ad576101008083540402835291602001916110d8565b820191906000526020600020905b8154815290600101906020018083116110bb57829003601f168201915b5050505050908060020154908060030180546110f390612aab565b80601f016020809104026020016040519081016040528092919081815260200182805461111f90612aab565b801561116c5780601f106111415761010080835404028352916020019161116c565b820191906000526020600020905b81548152906001019060200180831161114f57829003601f168201915b5050505050908060040160009054906101000a900473ffffffffffffffffffffffffffffffffffffffff16908060040160149054906101000a900460ff16908060050154908060060154908060070160009054906101000a900460ff16905089565b60006040516020016111df90612e79565b60405160208183030381529060405280519060200120826040516020016112069190612b18565b604051602081830303815290604052805190602001201461122857600161122b565b60005b90506040518060c001604052808673ffffffffffffffffffffffffffffffffffffffff168152602001858152602001848152602001600115158152602001821515815260200183815250600260008773ffffffffffffffffffffffffffffffffffffffff1673ffffffffffffffffffffffffffffffffffffffff16815260200190815260200160002060008201518160000160006101000a81548173ffffffffffffffffffffffffffffffffffffffff021916908373ffffffffffffffffffffffffffffffffffffffff16021790555060208201518160010190816113109190612cdb565b5060408201518160020190816113269190612cdb565b5060608201518160030160006101000a81548160ff02191690831515021790555060808201518160030160016101000a81548160ff02191690831515021790555060a082015181600401908161137c9190612cdb565b50905050801561152057600260008673ffffffffffffffffffffffffffffffffffffffff1673ffffffffffffffffffffffffffffffffffffffff168152602001908152602001600020600360008773ffffffffffffffffffffffffffffffffffffffff1673ffffffffffffffffffffffffffffffffffffffff1681526020019081526020016000206000820160009054906101000a900473ffffffffffffffffffffffffffffffffffffffff168160000160006101000a81548173ffffffffffffffffffffffffffffffffffffffff021916908373ffffffffffffffffffffffffffffffffffffffff1602179055506001820181600101908161147f9190612ea4565b50600282018160020190816114949190612ea4565b506003820160009054906101000a900460ff168160030160006101000a81548160ff0219169083151502179055506003820160019054906101000a900460ff168160030160016101000a81548160ff021916908315150217905550600482018160040190816115039190612ea4565b509050506001600081548092919061151a90612e0b565b91905055505b5050505050565b6060600860008060028111156115405761153f61273a565b5b60028111156115525761155161273a565b5b8152602001908152602001600020805480602002602001604051908101604052809291908181526020016000905b8282101561162c57838290600052602060002001805461159f90612aab565b80601f01602080910402602001604051908101604052809291908181526020018280546115cb90612aab565b80156116185780601f106115ed57610100808354040283529160200191611618565b820191906000526020600020905b8154815290600101906020018083116115fb57829003601f168201915b505050505081526020019060010190611580565b50505050905090565b801561174b578160058560405161164c9190612b18565b908152602001604051809103902060040160006101000a81548173ffffffffffffffffffffffffffffffffffffffff021916908373ffffffffffffffffffffffffffffffffffffffff1602179055506116a58385611976565b600460008373ffffffffffffffffffffffffffffffffffffffff1673ffffffffffffffffffffffffffffffffffffffff168152602001908152602001600020849080600181540180825580915050600190039060005260206000200160009091909190915090816117169190612cdb565b5061172084611c54565b6006846040516117309190612b18565b9081526020016040518091039020600061174a9190611d5c565b5b50505050565b6007602052816000526040600020818051602081018201805184825260208301602085012081835280955050505050506000915091509054906101000a900460ff1681565b60026001546117a59190612fbb565b6005826040516117b59190612b18565b90815260200160405180910390206005015411156118875760016005826040516117df9190612b18565b908152602001604051809103902060040160146101000a81548160ff021916908360028111156118125761181161273a565b5b0217905550600860006001600281111561182f5761182e61273a565b5b60028111156118415761184061273a565b5b8152602001908152602001600020819080600181540180825580915050600190039060005260206000200160009091909190915090816118819190612cdb565b50611973565b60026001546118969190612fbb565b6005826040516118a69190612b18565b908152602001604051809103902060060154106119725760026005826040516118cf9190612b18565b908152602001604051809103902060040160146101000a81548160ff021916908360028111156119025761190161273a565b5b02179055506008600060028081111561191e5761191d61273a565b5b60028111156119305761192f61273a565b5b8152602001908152602001600020819080600181540180825580915050600190039060005260206000200160009091909190915090816119709190612cdb565b505b5b50565b6000600460008473ffffffffffffffffffffffffffffffffffffffff1673ffffffffffffffffffffffffffffffffffffffff1681526020019081526020016000208054905090506000806001836119cd9190612fec565b67ffffffffffffffff8111156119e6576119e5611f8a565b5b604051908082528060200260200182016040528015611a1957816020015b6060815260200190600190039081611a045790505b50905060005b83811015611bf85784604051602001611a389190612b18565b60405160208183030381529060405280519060200120600460008873ffffffffffffffffffffffffffffffffffffffff1673ffffffffffffffffffffffffffffffffffffffff1681526020019081526020016000208281548110611a9f57611a9e612dad565b5b90600052602060002001604051602001611ab991906130a3565b6040516020818303038152906040528051906020012003611be557600460008773ffffffffffffffffffffffffffffffffffffffff1673ffffffffffffffffffffffffffffffffffffffff1681526020019081526020016000208181548110611b2557611b24612dad565b5b906000526020600020018054611b3a90612aab565b80601f0160208091040260200160405190810160405280929190818152602001828054611b6690612aab565b8015611bb35780601f10611b8857610100808354040283529160200191611bb3565b820191906000526020600020905b815481529060010190602001808311611b9657829003601f168201915b5050505050828481518110611bcb57611bca612dad565b5b60200260200101819052508280611be190612e0b565b9350505b8080611bf090612e0b565b915050611a1f565b5080600460008773ffffffffffffffffffffffffffffffffffffffff1673ffffffffffffffffffffffffffffffffffffffff1681526020019081526020016000209080519060200190611c4c929190611d7d565b505050505050565b60005b600682604051611c679190612b18565b908152602001604051809103902080549050811015611d585760076000600684604051611c949190612b18565b90815260200160405180910390208381548110611cb457611cb3612dad565b5b9060005260206000200160009054906101000a900473ffffffffffffffffffffffffffffffffffffffff1673ffffffffffffffffffffffffffffffffffffffff1673ffffffffffffffffffffffffffffffffffffffff16815260200190815260200160002082604051611d279190612b18565b908152602001604051809103902060006101000a81549060ff02191690558080611d5090612e0b565b915050611c57565b5050565b5080546000825590600052602060002090810190611d7a9190611dd6565b50565b828054828255906000526020600020908101928215611dc5579160200282015b82811115611dc4578251829081611db49190612cdb565b5091602001919060010190611d9d565b5b509050611dd29190611df3565b5090565b5b80821115611def576000816000905550600101611dd7565b5090565b5b80821115611e135760008181611e0a9190611e17565b50600101611df4565b5090565b508054611e2390612aab565b6000825580601f10611e355750611e54565b601f016020900490600052602060002090810190611e539190611dd6565b5b50565b6000604051905090565b600080fd5b600080fd5b6000819050919050565b611e7e81611e6b565b8114611e8957600080fd5b50565b600081359050611e9b81611e75565b92915050565b600060208284031215611eb757611eb6611e61565b5b6000611ec584828501611e8c565b91505092915050565b600081519050919050565b600082825260208201905092915050565b60005b83811015611f08578082015181840152602081019050611eed565b60008484015250505050565b6000601f19601f8301169050919050565b6000611f3082611ece565b611f3a8185611ed9565b9350611f4a818560208601611eea565b611f5381611f14565b840191505092915050565b60006020820190508181036000830152611f788184611f25565b905092915050565b600080fd5b600080fd5b7f4e487b7100000000000000000000000000000000000000000000000000000000600052604160045260246000fd5b611fc282611f14565b810181811067ffffffffffffffff82111715611fe157611fe0611f8a565b5b80604052505050565b6000611ff4611e57565b90506120008282611fb9565b919050565b600067ffffffffffffffff8211156120205761201f611f8a565b5b61202982611f14565b9050602081019050919050565b82818337600083830152505050565b600061205861205384612005565b611fea565b90508281526020810184848401111561207457612073611f85565b5b61207f848285612036565b509392505050565b600082601f83011261209c5761209b611f80565b5b81356120ac848260208601612045565b91505092915050565b6000602082840312156120cb576120ca611e61565b5b600082013567ffffffffffffffff8111156120e9576120e8611e66565b5b6120f584828501612087565b91505092915050565b600067ffffffffffffffff82111561211957612118611f8a565b5b602082029050602081019050919050565b600080fd5b600061214261213d846120fe565b611fea565b905080838252602082019050602084028301858111156121655761216461212a565b5b835b818110156121ac57803567ffffffffffffffff81111561218a57612189611f80565b5b8086016121978982612087565b85526020850194505050602081019050612167565b5050509392505050565b600082601f8301126121cb576121ca611f80565b5b81356121db84826020860161212f565b91505092915050565b600080604083850312156121fb576121fa611e61565b5b600083013567ffffffffffffffff81111561221957612218611e66565b5b612225858286016121b6565b925050602083013567ffffffffffffffff81111561224657612245611e66565b5b612252858286016121b6565b9150509250929050565b600081519050919050565b600082825260208201905092915050565b6000819050602082019050919050565b600082825260208201905092915050565b60006122a482611ece565b6122ae8185612288565b93506122be818560208601611eea565b6122c781611f14565b840191505092915050565b60006122de8383612299565b905092915050565b6000602082019050919050565b60006122fe8261225c565b6123088185612267565b93508360208202850161231a85612278565b8060005b85811015612356578484038952815161233785826122d2565b9450612342836122e6565b925060208a0199505060018101905061231e565b50829750879550505050505092915050565b6000602082019050818103600083015261238281846122f3565b905092915050565b600073ffffffffffffffffffffffffffffffffffffffff82169050919050565b60006123b58261238a565b9050919050565b6123c5816123aa565b81146123d057600080fd5b50565b6000813590506123e2816123bc565b92915050565b600381106123f557600080fd5b50565b600081359050612407816123e8565b92915050565b60008060006060848603121561242657612425611e61565b5b600084013567ffffffffffffffff81111561244457612443611e66565b5b61245086828701612087565b9350506020612461868287016123d3565b9250506040612472868287016123f8565b9150509250925092565b6000806040838503121561249357612492611e61565b5b60006124a1858286016123d3565b92505060206124b285828601611e8c565b9150509250929050565b600080600080600060a086880312156124d8576124d7611e61565b5b600086013567ffffffffffffffff8111156124f6576124f5611e66565b5b61250288828901612087565b955050602086013567ffffffffffffffff81111561252357612522611e66565b5b61252f88828901612087565b945050604061254088828901611e8c565b935050606086013567ffffffffffffffff81111561256157612560611e66565b5b61256d88828901612087565b925050608061257e888289016123d3565b9150509295509295909350565b6000602082840312156125a1576125a0611e61565b5b60006125af848285016123d3565b91505092915050565b6125c1816123aa565b82525050565b60008115159050919050565b6125dc816125c7565b82525050565b600060c0820190506125f760008301896125b8565b81810360208301526126098188611f25565b9050818103604083015261261d8187611f25565b905061262c60608301866125d3565b61263960808301856125d3565b81810360a083015261264b8184611f25565b9050979650505050505050565b6000806040838503121561266f5761266e611e61565b5b600083013567ffffffffffffffff81111561268d5761268c611e66565b5b61269985828601612087565b92505060206126aa858286016123d3565b9150509250929050565b600080604083850312156126cb576126ca611e61565b5b600083013567ffffffffffffffff8111156126e9576126e8611e66565b5b6126f585828601612087565b925050602061270685828601611e8c565b9150509250929050565b600060208201905061272560008301846125b8565b92915050565b61273481611e6b565b82525050565b7f4e487b7100000000000000000000000000000000000000000000000000000000600052602160045260246000fd5b6003811061277a5761277961273a565b5b50565b600081905061278b82612769565b919050565b600061279b8261277d565b9050919050565b6127ab81612790565b82525050565b60006101208201905081810360008301526127cc818c611f25565b905081810360208301526127e0818b611f25565b90506127ef604083018a61272b565b81810360608301526128018189611f25565b905061281060808301886125b8565b61281d60a08301876127a2565b61282a60c083018661272b565b61283760e083018561272b565b6128456101008301846125d3565b9a9950505050505050505050565b6000806000806080858703121561286d5761286c611e61565b5b600061287b878288016123d3565b945050602085013567ffffffffffffffff81111561289c5761289b611e66565b5b6128a887828801612087565b935050604085013567ffffffffffffffff8111156128c9576128c8611e66565b5b6128d587828801612087565b925050606085013567ffffffffffffffff8111156128f6576128f5611e66565b5b61290287828801612087565b91505092959194509250565b612917816125c7565b811461292257600080fd5b50565b6000813590506129348161290e565b92915050565b6000806000806080858703121561295457612953611e61565b5b600085013567ffffffffffffffff81111561297257612971611e66565b5b61297e87828801612087565b945050602061298f878288016123d3565b93505060406129a0878288016123d3565b92505060606129b187828801612925565b91505092959194509250565b600080604083850312156129d4576129d3611e61565b5b60006129e2858286016123d3565b925050602083013567ffffffffffffffff811115612a0357612a02611e66565b5b612a0f85828601612087565b9150509250929050565b60038110612a2a57612a2961273a565b5b50565b6000819050612a3b82612a19565b919050565b6000612a4b82612a2d565b9050919050565b612a5b81612a40565b82525050565b6000602082019050612a766000830184612a52565b92915050565b7f4e487b7100000000000000000000000000000000000000000000000000000000600052602260045260246000fd5b60006002820490506001821680612ac357607f821691505b602082108103612ad657612ad5612a7c565b5b50919050565b600081905092915050565b6000612af282611ece565b612afc8185612adc565b9350612b0c818560208601611eea565b80840191505092915050565b6000612b248284612ae7565b915081905092915050565b60008190508160005260206000209050919050565b60006020601f8301049050919050565b600082821b905092915050565b600060088302612b917fffffffffffffffffffffffffffffffffffffffffffffffffffffffffffffffff82612b54565b612b9b8683612b54565b95508019841693508086168417925050509392505050565b6000819050919050565b6000612bd8612bd3612bce84611e6b565b612bb3565b611e6b565b9050919050565b6000819050919050565b612bf283612bbd565b612c06612bfe82612bdf565b848454612b61565b825550505050565b600090565b612c1b612c0e565b612c26818484612be9565b505050565b5b81811015612c4a57612c3f600082612c13565b600181019050612c2c565b5050565b601f821115612c8f57612c6081612b2f565b612c6984612b44565b81016020851015612c78578190505b612c8c612c8485612b44565b830182612c2b565b50505b505050565b600082821c905092915050565b6000612cb260001984600802612c94565b1980831691505092915050565b6000612ccb8383612ca1565b9150826002028217905092915050565b612ce482611ece565b67ffffffffffffffff811115612cfd57612cfc611f8a565b5b612d078254612aab565b612d12828285612c4e565b600060209050601f831160018114612d455760008415612d33578287015190505b612d3d8582612cbf565b865550612da5565b601f198416612d5386612b2f565b60005b82811015612d7b57848901518255600182019150602085019450602081019050612d56565b86831015612d985784890151612d94601f891682612ca1565b8355505b6001600288020188555050505b505050505050565b7f4e487b7100000000000000000000000000000000000000000000000000000000600052603260045260246000fd5b7f4e487b7100000000000000000000000000000000000000000000000000000000600052601160045260246000fd5b6000612e1682611e6b565b91507fffffffffffffffffffffffffffffffffffffffffffffffffffffffffffffffff8203612e4857612e47612ddc565b5b600182019050919050565b50565b6000612e63600083612adc565b9150612e6e82612e53565b600082019050919050565b6000612e8482612e56565b9150819050919050565b600081549050612e9d81612aab565b9050919050565b818103612eb2575050612f8a565b612ebb82612e8e565b67ffffffffffffffff811115612ed457612ed3611f8a565b5b612ede8254612aab565b612ee9828285612c4e565b6000601f831160018114612f185760008415612f06578287015490505b612f108582612cbf565b865550612f83565b601f198416612f2687612b2f565b9650612f3186612b2f565b60005b82811015612f5957848901548255600182019150600185019450602081019050612f34565b86831015612f765784890154612f72601f891682612ca1565b8355505b6001600288020188555050505b5050505050505b565b7f4e487b7100000000000000000000000000000000000000000000000000000000600052601260045260246000fd5b6000612fc682611e6b565b9150612fd183611e6b565b925082612fe157612fe0612f8c565b5b828204905092915050565b6000612ff782611e6b565b915061300283611e6b565b925082820390508181111561301a57613019612ddc565b5b92915050565b6000815461302d81612aab565b6130378186612adc565b9450600182166000811461305257600181146130675761309a565b60ff198316865281151582028601935061309a565b61307085612b2f565b60005b8381101561309257815481890152600182019150602081019050613073565b838801955050505b50505092915050565b60006130af8284613020565b91508190509291505056fea2646970667358221220aa7cf05021083047b000763b36545267f49c60e6be81229b74b116bfd64e330964736f6c63430008130033",
  "immutableReferences": {},
  "source": "// SPDX-License-Identifier: GPL-3.0\r\npragma solidity >=0.8.1 <0.9.0;\r\n\r\ncontract Land {\r\n\r\n    address owner;\r\n\r\n    uint countOfGovtOfficials;\r\n\r\n    struct User {\r\n        address id;\r\n        string name;\r\n        string email;\r\n        bool isMember;\r\n        bool isOfficial;\r\n        string govtId;\r\n    }\r\n\r\n    enum LandStatus {\r\n        Registered,\r\n        Approved,\r\n        Rejected\r\n    }\r\n\r\n    enum RequestStatus {\r\n        Pending,\r\n        Accepted,\r\n        Rejected\r\n    }\r\n\r\n    struct LandDetails {\r\n        string id;\r\n        string landAddress;\r\n        uint price;\r\n        string ipfsHash;\r\n        address ownerAccount;\r\n        LandStatus status;\r\n        uint approved;\r\n        uint rejected;\r\n        bool sell;\r\n    }\r\n\r\n    mapping(address => User) public Users;\r\n    mapping(address => User) public GovtOfficial;\r\n    mapping(address => string[]) public UserAssets;\r\n    mapping(string => LandDetails) public Lands;\r\n    mapping(string => address[]) public InterestedBuyers;\r\n    mapping(address => mapping(string => RequestStatus)) public LandRequestAccess;\r\n    mapping(LandStatus => string[]) Status;\r\n    \r\n    string[] public LandsforSale;\r\n\r\n    constructor() {\r\n        owner = msg.sender;\r\n    }\r\n\r\n    function addUser(address _id, string memory _name, string memory _email, string memory _govtId) public {\r\n        bool isofficial = keccak256(abi.encodePacked(_govtId)) == keccak256(abi.encodePacked('')) ? false : true;\r\n        Users[_id] = User(_id, _name, _email, true, isofficial, _govtId);\r\n        if (isofficial) {\r\n            GovtOfficial[_id] = Users[_id];\r\n            countOfGovtOfficials++;\r\n        }\r\n    }\r\n\r\n    function getRegisteredLands() public view returns (string[] memory) {\r\n        return Status[LandStatus.Registered];\r\n    }\r\n\r\n    function registerLand(string memory _id, string memory _landAddress, uint _price, string memory _ipfsHash, address _ownerAccount) public {\r\n        Lands[_id] = LandDetails(_id, _landAddress, _price, _ipfsHash, _ownerAccount, LandStatus.Registered, 0, 0, false);\r\n        UserAssets[_ownerAccount].push(_id);\r\n        Status[LandStatus.Registered].push(_id);\r\n    }\r\n\r\n    function checkStatus(string memory _id) private {\r\n        if (Lands[_id].approved > (countOfGovtOfficials / 2)) {\r\n            Lands[_id].status = LandStatus.Approved;\r\n            Status[LandStatus.Approved].push(_id);\r\n        } else if (Lands[_id].rejected >= (countOfGovtOfficials / 2)) {\r\n            Lands[_id].status = LandStatus.Rejected;\r\n            Status[LandStatus.Rejected].push(_id);\r\n        }\r\n    }\r\n\r\n    function changeStatus(string[] memory _approvedLands, string[] memory _rejectedLands) public {\r\n        for (uint i = 0; i < _approvedLands.length; i++) {\r\n            Lands[_approvedLands[i]].approved++;\r\n            checkStatus(_approvedLands[i]);\r\n        }\r\n        for (uint i = 0; i < _rejectedLands.length; i++) {\r\n            Lands[_rejectedLands[i]].rejected++;\r\n            checkStatus(_rejectedLands[i]);\r\n        }\r\n    }\r\n\r\n    function auctionLand(string memory _id) public {\r\n        if (Lands[_id].status == LandStatus.Approved) {\r\n            Lands[_id].sell = true;\r\n            LandsforSale.push(_id);\r\n        }\r\n    }\r\n\r\n    function getAllLandsforSale() public view returns (string[] memory) {\r\n        return LandsforSale;\r\n    }\r\n\r\n    function requestLandDetails(string memory _id, address _account) public {\r\n        LandRequestAccess[_account][_id] = RequestStatus.Pending;\r\n    }\r\n\r\n    function showLandRequests(string memory _id, address _account, RequestStatus _status) public {\r\n        LandRequestAccess[_account][_id] = _status;\r\n    }\r\n\r\n    function removeAsset(address _account, string memory _value) private {\r\n        uint len = UserAssets[_account].length;\r\n        uint j = 0;\r\n        string[] memory tempArray = new string[](len - 1);\r\n        for (uint i = 0; i < len; i++) {\r\n            if (\r\n                keccak256(abi.encodePacked(UserAssets[_account][i])) ==\r\n                keccak256(abi.encodePacked(_value))\r\n            ) {\r\n                tempArray[j] = (UserAssets[_account][i]);\r\n                j++;\r\n            }\r\n        }\r\n        UserAssets[_account] = tempArray;\r\n    }\r\n\r\n    function removeRequestAccess(string memory _id) private {\r\n        for (uint i = 0; i < InterestedBuyers[_id].length; i++) {\r\n            delete LandRequestAccess[InterestedBuyers[_id][i]][_id];\r\n        }\r\n    }\r\n\r\n    function changeOwnership(string memory _id, address _oldAccount, address _newAccount, bool _transfered) public {\r\n        if (_transfered) {\r\n            Lands[_id].ownerAccount = _newAccount;\r\n            removeAsset(_oldAccount, _id);\r\n            UserAssets[_newAccount].push(_id);\r\n            removeRequestAccess(_id);\r\n            delete InterestedBuyers[_id];\r\n        }\r\n    }\r\n}\r\n",
  "sourcePath": "D:\\Programs\\Blockchain\\freeCodeCamp\\Ethereum_based_Land_Management_System\\contracts\\Land.sol",
  "compiler": {
    "name": "solc",
    "version": "0.8.19+commit.7dd6d404.Emscripten.clang"
  },
  "schemaVersion": "3.4.13",
  "updatedAt": "2023-04-13T04:29:49.094Z",
  "devdoc": {
    "kind": "dev",
    "methods": {},
    "version": 1
  },
  "userdoc": {
    "kind": "user",
    "methods": {},
    "version": 1
  }
}