{
  "contractName": "Land",
  "abi": [
    {
      "inputs": [],
      "stateMutability": "nonpayable",
      "type": "constructor"
    },
    {
      "inputs": [
        {
          "internalType": "string",
          "name": "",
          "type": "string"
        }
      ],
      "name": "GovtOfficial",
      "outputs": [
        {
          "internalType": "address",
          "name": "account",
          "type": "address"
        },
        {
          "internalType": "string",
          "name": "name",
          "type": "string"
        },
        {
          "internalType": "string",
          "name": "email",
          "type": "string"
        },
        {
          "internalType": "string",
          "name": "aadhaar",
          "type": "string"
        },
        {
          "internalType": "string",
          "name": "pan",
          "type": "string"
        },
        {
          "internalType": "string",
          "name": "image",
          "type": "string"
        },
        {
          "internalType": "string",
          "name": "phoneno",
          "type": "string"
        },
        {
          "internalType": "bool",
          "name": "registered",
          "type": "bool"
        },
        {
          "internalType": "bool",
          "name": "isMember",
          "type": "bool"
        },
        {
          "internalType": "bool",
          "name": "isOfficial",
          "type": "bool"
        },
        {
          "internalType": "string",
          "name": "govtId",
          "type": "string"
        }
      ],
      "stateMutability": "view",
      "type": "function"
    },
    {
      "inputs": [
        {
          "internalType": "string",
          "name": "",
          "type": "string"
        },
        {
          "internalType": "uint256",
          "name": "",
          "type": "uint256"
        }
      ],
      "name": "InterestedBuyers",
      "outputs": [
        {
          "internalType": "string",
          "name": "",
          "type": "string"
        }
      ],
      "stateMutability": "view",
      "type": "function"
    },
    {
      "inputs": [
        {
          "internalType": "string",
          "name": "",
          "type": "string"
        },
        {
          "internalType": "string",
          "name": "",
          "type": "string"
        },
        {
          "internalType": "uint256",
          "name": "",
          "type": "uint256"
        }
      ],
      "name": "LandRequestAccess",
      "outputs": [
        {
          "internalType": "enum Land.RequestStatus",
          "name": "",
          "type": "uint8"
        }
      ],
      "stateMutability": "view",
      "type": "function"
    },
    {
      "inputs": [
        {
          "internalType": "string",
          "name": "",
          "type": "string"
        }
      ],
      "name": "Lands",
      "outputs": [
        {
          "internalType": "string",
          "name": "id",
          "type": "string"
        },
        {
          "internalType": "string",
          "name": "landAddress",
          "type": "string"
        },
        {
          "internalType": "string",
          "name": "registeredBy",
          "type": "string"
        },
        {
          "internalType": "string",
          "name": "registrationTime",
          "type": "string"
        },
        {
          "internalType": "uint256",
          "name": "price",
          "type": "uint256"
        },
        {
          "internalType": "string",
          "name": "ipfsHash",
          "type": "string"
        },
        {
          "internalType": "bool",
          "name": "jointOwnership",
          "type": "bool"
        }
      ],
      "stateMutability": "view",
      "type": "function"
    },
    {
      "inputs": [
        {
          "internalType": "uint256",
          "name": "",
          "type": "uint256"
        }
      ],
      "name": "LandsforSale",
      "outputs": [
        {
          "internalType": "string",
          "name": "",
          "type": "string"
        }
      ],
      "stateMutability": "view",
      "type": "function"
    },
    {
      "inputs": [
        {
          "internalType": "string",
          "name": "",
          "type": "string"
        },
        {
          "internalType": "uint256",
          "name": "",
          "type": "uint256"
        }
      ],
      "name": "UserAssets",
      "outputs": [
        {
          "internalType": "string",
          "name": "",
          "type": "string"
        }
      ],
      "stateMutability": "view",
      "type": "function"
    },
    {
      "inputs": [
        {
          "internalType": "string",
          "name": "",
          "type": "string"
        }
      ],
      "name": "Users",
      "outputs": [
        {
          "internalType": "address",
          "name": "account",
          "type": "address"
        },
        {
          "internalType": "string",
          "name": "name",
          "type": "string"
        },
        {
          "internalType": "string",
          "name": "email",
          "type": "string"
        },
        {
          "internalType": "string",
          "name": "aadhaar",
          "type": "string"
        },
        {
          "internalType": "string",
          "name": "pan",
          "type": "string"
        },
        {
          "internalType": "string",
          "name": "image",
          "type": "string"
        },
        {
          "internalType": "string",
          "name": "phoneno",
          "type": "string"
        },
        {
          "internalType": "bool",
          "name": "registered",
          "type": "bool"
        },
        {
          "internalType": "bool",
          "name": "isMember",
          "type": "bool"
        },
        {
          "internalType": "bool",
          "name": "isOfficial",
          "type": "bool"
        },
        {
          "internalType": "string",
          "name": "govtId",
          "type": "string"
        }
      ],
      "stateMutability": "view",
      "type": "function"
    },
    {
      "inputs": [
        {
          "internalType": "uint256",
          "name": "",
          "type": "uint256"
        }
      ],
      "name": "UsersRegistered",
      "outputs": [
        {
          "internalType": "string",
          "name": "",
          "type": "string"
        }
      ],
      "stateMutability": "view",
      "type": "function"
    },
    {
      "inputs": [
        {
          "internalType": "uint256",
          "name": "",
          "type": "uint256"
        }
      ],
      "name": "change",
      "outputs": [
        {
          "internalType": "uint256",
          "name": "",
          "type": "uint256"
        }
      ],
      "stateMutability": "view",
      "type": "function"
    },
    {
      "inputs": [
        {
          "internalType": "uint256",
          "name": "",
          "type": "uint256"
        }
      ],
      "name": "changeMap",
      "outputs": [
        {
          "internalType": "string",
          "name": "id",
          "type": "string"
        },
        {
          "internalType": "string",
          "name": "oldAadhaar",
          "type": "string"
        },
        {
          "internalType": "string",
          "name": "newAadhaar",
          "type": "string"
        },
        {
          "internalType": "string",
          "name": "time",
          "type": "string"
        },
        {
          "internalType": "string",
          "name": "approvedBy",
          "type": "string"
        }
      ],
      "stateMutability": "view",
      "type": "function"
    },
    {
      "inputs": [
        {
          "internalType": "bool",
          "name": "",
          "type": "bool"
        },
        {
          "internalType": "uint256",
          "name": "",
          "type": "uint256"
        }
      ],
      "name": "checkMembership",
      "outputs": [
        {
          "internalType": "string",
          "name": "",
          "type": "string"
        }
      ],
      "stateMutability": "view",
      "type": "function"
    },
    {
      "inputs": [
        {
          "internalType": "string",
          "name": "",
          "type": "string"
        },
        {
          "internalType": "uint256",
          "name": "",
          "type": "uint256"
        }
      ],
      "name": "requestedLands",
      "outputs": [
        {
          "internalType": "string",
          "name": "",
          "type": "string"
        }
      ],
      "stateMutability": "view",
      "type": "function"
    },
    {
      "inputs": [
        {
          "internalType": "string",
          "name": "_id",
          "type": "string"
        }
      ],
      "name": "getLandOwners",
      "outputs": [
        {
          "internalType": "string[]",
          "name": "",
          "type": "string[]"
        }
      ],
      "stateMutability": "view",
      "type": "function"
    },
    {
      "inputs": [
        {
          "internalType": "string",
          "name": "_id",
          "type": "string"
        }
      ],
      "name": "getShares",
      "outputs": [
        {
          "internalType": "uint256[]",
          "name": "",
          "type": "uint256[]"
        }
      ],
      "stateMutability": "view",
      "type": "function"
    },
    {
      "inputs": [
        {
          "internalType": "string",
          "name": "_id",
          "type": "string"
        }
      ],
      "name": "getStatus",
      "outputs": [
        {
          "internalType": "string[]",
          "name": "",
          "type": "string[]"
        }
      ],
      "stateMutability": "view",
      "type": "function"
    },
    {
      "inputs": [
        {
          "internalType": "string",
          "name": "_id",
          "type": "string"
        }
      ],
      "name": "getOwnerNames",
      "outputs": [
        {
          "internalType": "string[]",
          "name": "",
          "type": "string[]"
        }
      ],
      "stateMutability": "view",
      "type": "function"
    },
    {
      "inputs": [
        {
          "internalType": "string",
          "name": "_id",
          "type": "string"
        }
      ],
      "name": "getSellerNames",
      "outputs": [
        {
          "internalType": "string[]",
          "name": "",
          "type": "string[]"
        }
      ],
      "stateMutability": "view",
      "type": "function"
    },
    {
      "inputs": [
        {
          "internalType": "string",
          "name": "_id",
          "type": "string"
        }
      ],
      "name": "getSellerEmail",
      "outputs": [
        {
          "internalType": "string[]",
          "name": "",
          "type": "string[]"
        }
      ],
      "stateMutability": "view",
      "type": "function"
    },
    {
      "inputs": [
        {
          "internalType": "string",
          "name": "_id",
          "type": "string"
        }
      ],
      "name": "getSaleBy",
      "outputs": [
        {
          "internalType": "string[]",
          "name": "",
          "type": "string[]"
        }
      ],
      "stateMutability": "view",
      "type": "function"
    },
    {
      "inputs": [
        {
          "internalType": "address",
          "name": "_account",
          "type": "address"
        },
        {
          "internalType": "string",
          "name": "_name",
          "type": "string"
        },
        {
          "internalType": "string",
          "name": "_email",
          "type": "string"
        },
        {
          "internalType": "string",
          "name": "_aadhaar",
          "type": "string"
        },
        {
          "internalType": "string",
          "name": "_pan",
          "type": "string"
        },
        {
          "internalType": "string",
          "name": "_image",
          "type": "string"
        },
        {
          "internalType": "string",
          "name": "_phoneno",
          "type": "string"
        },
        {
          "internalType": "string",
          "name": "_govtId",
          "type": "string"
        }
      ],
      "name": "registerUser",
      "outputs": [],
      "stateMutability": "nonpayable",
      "type": "function"
    },
    {
      "inputs": [
        {
          "internalType": "string",
          "name": "_aadhaar",
          "type": "string"
        }
      ],
      "name": "addUser",
      "outputs": [],
      "stateMutability": "nonpayable",
      "type": "function"
    },
    {
      "inputs": [],
      "name": "getRegisteredUsers",
      "outputs": [
        {
          "internalType": "string[]",
          "name": "",
          "type": "string[]"
        }
      ],
      "stateMutability": "view",
      "type": "function"
    },
    {
      "inputs": [
        {
          "internalType": "string",
          "name": "_id",
          "type": "string"
        },
        {
          "internalType": "string",
          "name": "_landAddress",
          "type": "string"
        },
        {
          "internalType": "string",
          "name": "_registeredBy",
          "type": "string"
        },
        {
          "internalType": "string",
          "name": "_registrationTime",
          "type": "string"
        },
        {
          "internalType": "uint256",
          "name": "_price",
          "type": "uint256"
        },
        {
          "internalType": "string",
          "name": "_ipfsHash",
          "type": "string"
        },
        {
          "internalType": "string[]",
          "name": "_ownerAadhaar",
          "type": "string[]"
        },
        {
          "internalType": "uint256[]",
          "name": "_share",
          "type": "uint256[]"
        },
        {
          "internalType": "bool",
          "name": "_jointOwnerShip",
          "type": "bool"
        }
      ],
      "name": "registerLand",
      "outputs": [],
      "stateMutability": "nonpayable",
      "type": "function"
    },
    {
      "inputs": [
        {
          "internalType": "string",
          "name": "_aadhaar",
          "type": "string"
        },
        {
          "internalType": "string",
          "name": "_id",
          "type": "string"
        }
      ],
      "name": "auctionLand",
      "outputs": [],
      "stateMutability": "nonpayable",
      "type": "function"
    },
    {
      "inputs": [],
      "name": "getAllLandsforSale",
      "outputs": [
        {
          "internalType": "string[]",
          "name": "",
          "type": "string[]"
        }
      ],
      "stateMutability": "view",
      "type": "function"
    },
    {
      "inputs": [
        {
          "internalType": "string",
          "name": "_aadhaar",
          "type": "string"
        }
      ],
      "name": "getUserAssets",
      "outputs": [
        {
          "internalType": "string[]",
          "name": "",
          "type": "string[]"
        }
      ],
      "stateMutability": "view",
      "type": "function"
    },
    {
      "inputs": [
        {
          "internalType": "string",
          "name": "_id",
          "type": "string"
        },
        {
          "internalType": "string",
          "name": "_aadhaar",
          "type": "string"
        }
      ],
      "name": "requestLandDetails",
      "outputs": [],
      "stateMutability": "nonpayable",
      "type": "function"
    },
    {
      "inputs": [
        {
          "internalType": "string",
          "name": "_id",
          "type": "string"
        },
        {
          "internalType": "string",
          "name": "_aadhaar",
          "type": "string"
        }
      ],
      "name": "getLandRequestAccess",
      "outputs": [
        {
          "internalType": "string[]",
          "name": "",
          "type": "string[]"
        }
      ],
      "stateMutability": "view",
      "type": "function"
    },
    {
      "inputs": [
        {
          "internalType": "string",
          "name": "_aadhaar",
          "type": "string"
        }
      ],
      "name": "getRequestedLands",
      "outputs": [
        {
          "internalType": "string[]",
          "name": "",
          "type": "string[]"
        }
      ],
      "stateMutability": "view",
      "type": "function"
    },
    {
      "inputs": [
        {
          "internalType": "string",
          "name": "_id",
          "type": "string"
        },
        {
          "internalType": "string",
          "name": "_aadhaar",
          "type": "string"
        },
        {
          "internalType": "string",
          "name": "_seller",
          "type": "string"
        }
      ],
      "name": "sellLand",
      "outputs": [],
      "stateMutability": "nonpayable",
      "type": "function"
    },
    {
      "inputs": [
        {
          "internalType": "string",
          "name": "_id",
          "type": "string"
        }
      ],
      "name": "interested",
      "outputs": [
        {
          "internalType": "string[]",
          "name": "",
          "type": "string[]"
        },
        {
          "internalType": "string[]",
          "name": "",
          "type": "string[]"
        }
      ],
      "stateMutability": "view",
      "type": "function"
    },
    {
      "inputs": [
        {
          "internalType": "string",
          "name": "_aadhaar",
          "type": "string"
        },
        {
          "internalType": "string",
          "name": "_id",
          "type": "string"
        },
        {
          "internalType": "string",
          "name": "_seller",
          "type": "string"
        }
      ],
      "name": "requestApprove",
      "outputs": [],
      "stateMutability": "nonpayable",
      "type": "function"
    },
    {
      "inputs": [
        {
          "internalType": "string",
          "name": "_aadhaar",
          "type": "string"
        },
        {
          "internalType": "string",
          "name": "_id",
          "type": "string"
        },
        {
          "internalType": "string",
          "name": "_seller",
          "type": "string"
        }
      ],
      "name": "requestReject",
      "outputs": [],
      "stateMutability": "nonpayable",
      "type": "function"
    },
    {
      "inputs": [
        {
          "internalType": "string",
          "name": "_id",
          "type": "string"
        },
        {
          "internalType": "string",
          "name": "_newAadhaar",
          "type": "string"
        },
        {
          "internalType": "string",
          "name": "_oldAadhaar",
          "type": "string"
        },
        {
          "internalType": "bool",
          "name": "_status",
          "type": "bool"
        },
        {
          "internalType": "string",
          "name": "_time",
          "type": "string"
        },
        {
          "internalType": "string",
          "name": "approver",
          "type": "string"
        }
      ],
      "name": "transfer",
      "outputs": [],
      "stateMutability": "nonpayable",
      "type": "function"
    }
  ],
  "bytecode": "0x608060405234801561001057600080fd5b50600080546001600160a01b0319163317905561581680620000336000396000f3fe608060405234801561001057600080fd5b50600436106102255760003560e01c8063668e9f0b1161012a578063a80edf5e116100bd578063ca1ca51a1161008c578063dd34da2611610071578063dd34da26146104f7578063f0ad61181461050a578063f923925c1461051d57600080fd5b8063ca1ca51a146104d1578063d57a1256146104e457600080fd5b8063a80edf5e14610472578063b033b64c14610485578063bd99108f14610498578063c413f6f8146104be57600080fd5b8063767189b3116100f9578063767189b3146104185780637c35236b1461042b578063a76f2a171461044c578063a77d76ec1461045f57600080fd5b8063668e9f0b146103b857806368fdd8df146103dc5780637073c072146103ef57806375322e47146103f757600080fd5b8063189ba49f116101bd578063286de5591161018c5780634841d3e4116101715780634841d3e41461038a57806357816fc11461039d57806365e6af32146103b057600080fd5b8063286de5591461036457806340bce6ec1461037757600080fd5b8063189ba49f1461030b57806318b8275a1461032b5780631c9f4b4d1461033e57806322b05ed21461035157600080fd5b806309995c8f116101f957806309995c8f146102b25780630e53ea71146102d257806313db45bb146102e557806316aa11c2146102f857600080fd5b8062f4a5631461022a578063054950c41461023f57806307176f6314610268578063076faab414610288575b600080fd5b61023d610238366004614ae6565b610530565b005b61025261024d366004614b6e565b6106b9565b60405161025f9190614bf1565b60405180910390f35b61027b610276366004614c19565b610722565b60405161025f9190614c82565b61029b610296366004614c9c565b6107ce565b60405161025f9b9a99989796959493929190614cd9565b6102c56102c0366004614c9c565b610bfa565b60405161025f9190614df9565b6102c56102e0366004614e0c565b610cf4565b61023d6102f3366004614ae6565b610f46565b6102c5610306366004614c9c565b611068565b61031e610319366004614c9c565b611154565b60405161025f9190614e70565b61023d610339366004614c9c565b6111c7565b61023d61034c366004614ec9565b61120d565b6102c561035f366004614c9c565b61139d565b61027b610372366004614faa565b611671565b61023d610385366004614e0c565b6116b8565b6102c5610398366004614c9c565b611870565b61029b6103ab366004614c9c565b611a27565b6102c5611a5e565b6103cb6103c6366004614c19565b611b37565b60405161025f959493929190614fef565b6102c56103ea366004614c9c565b611e0d565b6102c5611efc565b61040a610405366004614c19565b611fcc565b60405190815260200161025f565b61023d610426366004614ae6565b611fed565b61043e610439366004614c9c565b6120f3565b60405161025f92919061505c565b6102c561045a366004614c9c565b6123fc565b61027b61046d366004614faa565b6125b3565b61027b610480366004614c19565b6125de565b6102c5610493366004614c9c565b6125ee565b6104ab6104a6366004614c9c565b6127a5565b60405161025f979695949392919061508a565b6102c56104cc366004614c9c565b612a95565b61027b6104df366004615108565b612b81565b61027b6104f2366004614faa565b612b9d565b61023d610505366004614e0c565b612bc8565b61023d610518366004615241565b612daf565b61023d61052b36600461538e565b61300e565b600061062c60058460405161054591906154ba565b9081526020016040518091039020600a01805480602002602001604051908101604052809291908181526020016000905b82821015610622578382906000526020600020018054610595906154d6565b80601f01602080910402602001604051908101604052809291908181526020018280546105c1906154d6565b801561060e5780601f106105e35761010080835404028352916020019161060e565b820191906000526020600020905b8154815290600101906020018083116105f157829003601f168201915b505050505081526020019060010190610576565b505050508361339d565b9050600260078560405161064091906154ba565b90815260200160405180910390208460405161065c91906154ba565b9081526020016040518091039020828154811061067b5761067b615510565b90600052602060002090602091828204019190066101000a81548160ff021916908360038111156106ae576106ae614bdb565b021790555050505050565b82516020818501810180516007825292820182870120929052835180850182018051938152908201918501919091209190528054829081106106fa57600080fd5b906000526020600020906020918282040191900692509250509054906101000a900460ff1681565b600c818154811061073257600080fd5b90600052602060002001600091509050805461074d906154d6565b80601f0160208091040260200160405190810160405280929190818152602001828054610779906154d6565b80156107c65780601f1061079b576101008083540402835291602001916107c6565b820191906000526020600020905b8154815290600101906020018083116107a957829003601f168201915b505050505081565b8051602081830181018051600282529282019190930120915280546001820180546001600160a01b039092169291610805906154d6565b80601f0160208091040260200160405190810160405280929190818152602001828054610831906154d6565b801561087e5780601f106108535761010080835404028352916020019161087e565b820191906000526020600020905b81548152906001019060200180831161086157829003601f168201915b505050505090806002018054610893906154d6565b80601f01602080910402602001604051908101604052809291908181526020018280546108bf906154d6565b801561090c5780601f106108e15761010080835404028352916020019161090c565b820191906000526020600020905b8154815290600101906020018083116108ef57829003601f168201915b505050505090806003018054610921906154d6565b80601f016020809104026020016040519081016040528092919081815260200182805461094d906154d6565b801561099a5780601f1061096f5761010080835404028352916020019161099a565b820191906000526020600020905b81548152906001019060200180831161097d57829003601f168201915b5050505050908060040180546109af906154d6565b80601f01602080910402602001604051908101604052809291908181526020018280546109db906154d6565b8015610a285780601f106109fd57610100808354040283529160200191610a28565b820191906000526020600020905b815481529060010190602001808311610a0b57829003601f168201915b505050505090806005018054610a3d906154d6565b80601f0160208091040260200160405190810160405280929190818152602001828054610a69906154d6565b8015610ab65780601f10610a8b57610100808354040283529160200191610ab6565b820191906000526020600020905b815481529060010190602001808311610a9957829003601f168201915b505050505090806006018054610acb906154d6565b80601f0160208091040260200160405190810160405280929190818152602001828054610af7906154d6565b8015610b445780601f10610b1957610100808354040283529160200191610b44565b820191906000526020600020905b815481529060010190602001808311610b2757829003601f168201915b5050506007840154600885018054949560ff808416966101008504821696506201000090940416935091610b77906154d6565b80601f0160208091040260200160405190810160405280929190818152602001828054610ba3906154d6565b8015610bf05780601f10610bc557610100808354040283529160200191610bf0565b820191906000526020600020905b815481529060010190602001808311610bd357829003601f168201915b505050505090508b565b6060600582604051610c0c91906154ba565b9081526020016040518091039020600601805480602002602001604051908101604052809291908181526020016000905b82821015610ce9578382906000526020600020018054610c5c906154d6565b80601f0160208091040260200160405190810160405280929190818152602001828054610c88906154d6565b8015610cd55780601f10610caa57610100808354040283529160200191610cd5565b820191906000526020600020905b815481529060010190602001808311610cb857829003601f168201915b505050505081526020019060010190610c3d565b505050509050919050565b60606000600584604051610d0891906154ba565b908152604051908190036020019020600a015467ffffffffffffffff811115610d3357610d33614a2f565b604051908082528060200260200182016040528015610d6657816020015b6060815260200190600190039081610d515790505b50905060005b600784604051610d7c91906154ba565b908152602001604051809103902085604051610d9891906154ba565b90815260405190819003602001902054811015610f3c576000600785604051610dc191906154ba565b908152602001604051809103902086604051610ddd91906154ba565b90815260200160405180910390208281548110610dfc57610dfc615510565b60009182526020808320908204015460ff601f9092166101000a9004169150816003811115610e2d57610e2d614bdb565b14610eea576001816003811115610e4657610e46614bdb565b14610ec4576002816003811115610e5f57610e5f614bdb565b14610e9f576040518060400160405280600481526020017f53656c6c00000000000000000000000000000000000000000000000000000000815250610f0b565b6040518060400160405280600781526020016650656e64696e6760c81b815250610f0b565b604051806040016040528060088152602001671058d8d95c1d195960c21b815250610f0b565b6040518060400160405280600781526020016650656e64696e6760c81b8152505b838381518110610f1d57610f1d615510565b6020026020010181905250508080610f349061553c565b915050610d6c565b5090505b92915050565b6000611038600585604051610f5b91906154ba565b9081526020016040518091039020600a01805480602002602001604051908101604052809291908181526020016000905b82821015610622578382906000526020600020018054610fab906154d6565b80601f0160208091040260200160405190810160405280929190818152602001828054610fd7906154d6565b80156110245780601f10610ff957610100808354040283529160200191611024565b820191906000526020600020905b81548152906001019060200180831161100757829003601f168201915b505050505081526020019060010190610f8c565b9050600360078460405161104c91906154ba565b90815260200160405180910390208560405161065c91906154ba565b606060048260405161107a91906154ba565b9081526020016040518091039020805480602002602001604051908101604052809291908181526020016000905b82821015610ce95783829060005260206000200180546110c7906154d6565b80601f01602080910402602001604051908101604052809291908181526020018280546110f3906154d6565b80156111405780601f1061111557610100808354040283529160200191611140565b820191906000526020600020905b81548152906001019060200180831161112357829003601f168201915b5050505050815260200190600101906110a8565b606060058260405161116691906154ba565b90815260408051918290036020908101832060070180548083028501830190935282845291908301828280156111bb57602002820191906000526020600020905b8154815260200190600101908083116111a7575b50505050509050919050565b6111d081613439565b60016002826040516111e291906154ba565b90815260405190819003602001902060070180549115156101000261ff001990921691909117905550565b821515600103611229576112248686868585613597565b611395565b600061132560058860405161123e91906154ba565b9081526020016040518091039020600a01805480602002602001604051908101604052809291908181526020016000905b8282101561131b57838290600052602060002001805461128e906154d6565b80601f01602080910402602001604051908101604052809291908181526020018280546112ba906154d6565b80156113075780601f106112dc57610100808354040283529160200191611307565b820191906000526020600020905b8154815290600101906020018083116112ea57829003601f168201915b50505050508152602001906001019061126f565b505050508661339d565b9050600360058860405161133991906154ba565b9081526020016040518091039020600901828154811061135b5761135b615510565b90600052602060002090602091828204019190066101000a81548160ff0219169083600381111561138e5761138e614bdb565b0217905550505b505050505050565b606060006005836040516113b191906154ba565b9081526040519081900360200190206009015467ffffffffffffffff8111156113dc576113dc614a2f565b60405190808252806020026020018201604052801561140f57816020015b60608152602001906001900390816113fa5790505b50905060005b60058460405161142591906154ba565b9081526040519081900360200190206009015481101561166a57600060058560405161145191906154ba565b9081526020016040518091039020600901828154811061147357611473615510565b90600052602060002090602091828204019190069054906101000a900460ff1660038111156114a4576114a4614bdb565b146116035760016005856040516114bb91906154ba565b908152602001604051809103902060090182815481106114dd576114dd615510565b90600052602060002090602091828204019190069054906101000a900460ff16600381111561150e5761150e614bdb565b146115de57600260058560405161152591906154ba565b9081526020016040518091039020600901828154811061154757611547615510565b90600052602060002090602091828204019190069054906101000a900460ff16600381111561157857611578614bdb565b146115b8576040518060400160405280600881526020017f52656a656374656400000000000000000000000000000000000000000000000081525061163a565b604051806040016040528060088152602001671058d8d95c1d195960c21b81525061163a565b6040518060400160405280600781526020016650656e64696e6760c81b81525061163a565b6040518060400160405280600481526020017f4e6f6e65000000000000000000000000000000000000000000000000000000008152505b82828151811061164c5761164c615510565b602002602001018190525080806116629061553c565b915050611415565b5092915050565b8151602081840181018051600482529282019185019190912091905280548290811061169c57600080fd5b9060005260206000200160009150915050805461074d906154d6565b60006005836040516116ca91906154ba565b908152604051908190036020019020600a015467ffffffffffffffff8111156116f5576116f5614a2f565b60405190808252806020026020018201604052801561171e578160200160208202803683370190505b50905060005b60058460405161173491906154ba565b908152604051908190036020019020600a01548110156117a357600082828151811061176257611762615510565b6020026020010190600381111561177b5761177b614bdb565b9081600381111561178e5761178e614bdb565b9052508061179b8161553c565b915050611724565b50806007836040516117b591906154ba565b9081526020016040518091039020846040516117d191906154ba565b908152602001604051809103902090805190602001906117f29291906147ec565b5060098260405161180391906154ba565b90815260405160209181900382019020805460018101825560009182529190200161182e848261559b565b5060068360405161183f91906154ba565b90815260405160209181900382019020805460018101825560009182529190200161186a838261559b565b50505050565b6060600060058360405161188491906154ba565b9081526040519081900360200190206006015467ffffffffffffffff8111156118af576118af614a2f565b6040519080825280602002602001820160405280156118e257816020015b60608152602001906001900390816118cd5790505b50905060005b6005846040516118f891906154ba565b9081526040519081900360200190206006015481101561166a57600260058560405161192491906154ba565b9081526020016040518091039020600601828154811061194657611946615510565b9060005260206000200160405161195d919061565b565b90815260200160405180910390206001018054611979906154d6565b80601f01602080910402602001604051908101604052809291908181526020018280546119a5906154d6565b80156119f25780601f106119c7576101008083540402835291602001916119f2565b820191906000526020600020905b8154815290600101906020018083116119d557829003601f168201915b5050505050828281518110611a0957611a09615510565b60200260200101819052508080611a1f9061553c565b9150506118e8565b8051602081830181018051600382529282019190930120915280546001820180546001600160a01b039092169291610805906154d6565b6060600c805480602002602001604051908101604052809291908181526020016000905b82821015611b2e578382906000526020600020018054611aa1906154d6565b80601f0160208091040260200160405190810160405280929190818152602001828054611acd906154d6565b8015611b1a5780601f10611aef57610100808354040283529160200191611b1a565b820191906000526020600020905b815481529060010190602001808311611afd57829003601f168201915b505050505081526020019060010190611a82565b50505050905090565b600a60205260009081526040902080548190611b52906154d6565b80601f0160208091040260200160405190810160405280929190818152602001828054611b7e906154d6565b8015611bcb5780601f10611ba057610100808354040283529160200191611bcb565b820191906000526020600020905b815481529060010190602001808311611bae57829003601f168201915b505050505090806001018054611be0906154d6565b80601f0160208091040260200160405190810160405280929190818152602001828054611c0c906154d6565b8015611c595780601f10611c2e57610100808354040283529160200191611c59565b820191906000526020600020905b815481529060010190602001808311611c3c57829003601f168201915b505050505090806002018054611c6e906154d6565b80601f0160208091040260200160405190810160405280929190818152602001828054611c9a906154d6565b8015611ce75780601f10611cbc57610100808354040283529160200191611ce7565b820191906000526020600020905b815481529060010190602001808311611cca57829003601f168201915b505050505090806003018054611cfc906154d6565b80601f0160208091040260200160405190810160405280929190818152602001828054611d28906154d6565b8015611d755780601f10611d4a57610100808354040283529160200191611d75565b820191906000526020600020905b815481529060010190602001808311611d5857829003601f168201915b505050505090806004018054611d8a906154d6565b80601f0160208091040260200160405190810160405280929190818152602001828054611db6906154d6565b8015611e035780601f10611dd857610100808354040283529160200191611e03565b820191906000526020600020905b815481529060010190602001808311611de657829003601f168201915b5050505050905085565b6060600582604051611e1f91906154ba565b9081526020016040518091039020600a01805480602002602001604051908101604052809291908181526020016000905b82821015610ce9578382906000526020600020018054611e6f906154d6565b80601f0160208091040260200160405190810160405280929190818152602001828054611e9b906154d6565b8015611ee85780601f10611ebd57610100808354040283529160200191611ee8565b820191906000526020600020905b815481529060010190602001808311611ecb57829003601f168201915b505050505081526020019060010190611e50565b6060600b805480602002602001604051908101604052809291908181526020016000905b82821015611b2e578382906000526020600020018054611f3f906154d6565b80601f0160208091040260200160405190810160405280929190818152602001828054611f6b906154d6565b8015611fb85780601f10611f8d57610100808354040283529160200191611fb8565b820191906000526020600020905b815481529060010190602001808311611f9b57829003601f168201915b505050505081526020019060010190611f20565b600d8181548110611fdc57600080fd5b600091825260209091200154905081565b60006120df60058460405161200291906154ba565b9081526020016040518091039020600a01805480602002602001604051908101604052809291908181526020016000905b82821015610622578382906000526020600020018054612052906154d6565b80601f016020809104026020016040519081016040528092919081815260200182805461207e906154d6565b80156120cb5780601f106120a0576101008083540402835291602001916120cb565b820191906000526020600020905b8154815290600101906020018083116120ae57829003601f168201915b505050505081526020019060010190612033565b9050600160078560405161064091906154ba565b606080600060068460405161210891906154ba565b9081526040519081900360200190205467ffffffffffffffff81111561213057612130614a2f565b60405190808252806020026020018201604052801561216357816020015b606081526020019060019003908161214e5790505b509050600060068560405161217891906154ba565b9081526040519081900360200190205467ffffffffffffffff8111156121a0576121a0614a2f565b6040519080825280602002602001820160405280156121d357816020015b60608152602001906001900390816121be5790505b50905060005b6006866040516121e991906154ba565b908152604051908190036020019020548110156123f157600260068760405161221291906154ba565b9081526020016040518091039020828154811061223157612231615510565b90600052602060002001604051612248919061565b565b90815260200160405180910390206001018054612264906154d6565b80601f0160208091040260200160405190810160405280929190818152602001828054612290906154d6565b80156122dd5780601f106122b2576101008083540402835291602001916122dd565b820191906000526020600020905b8154815290600101906020018083116122c057829003601f168201915b50505050508382815181106122f4576122f4615510565b602002602001018190525060068660405161230f91906154ba565b9081526020016040518091039020818154811061232e5761232e615510565b906000526020600020018054612343906154d6565b80601f016020809104026020016040519081016040528092919081815260200182805461236f906154d6565b80156123bc5780601f10612391576101008083540402835291602001916123bc565b820191906000526020600020905b81548152906001019060200180831161239f57829003601f168201915b50505050508282815181106123d3576123d3615510565b602002602001018190525080806123e99061553c565b9150506121d9565b509094909350915050565b6060600060058360405161241091906154ba565b908152604051908190036020019020600a015467ffffffffffffffff81111561243b5761243b614a2f565b60405190808252806020026020018201604052801561246e57816020015b60608152602001906001900390816124595790505b50905060005b60058460405161248491906154ba565b908152604051908190036020019020600a015481101561166a5760026005856040516124b091906154ba565b9081526020016040518091039020600a0182815481106124d2576124d2615510565b906000526020600020016040516124e9919061565b565b90815260200160405180910390206001018054612505906154d6565b80601f0160208091040260200160405190810160405280929190818152602001828054612531906154d6565b801561257e5780601f106125535761010080835404028352916020019161257e565b820191906000526020600020905b81548152906001019060200180831161256157829003601f168201915b505050505082828151811061259557612595615510565b602002602001018190525080806125ab9061553c565b915050612474565b8151602081840181018051600682529282019185019190912091905280548290811061169c57600080fd5b600b818154811061073257600080fd5b6060600060058360405161260291906154ba565b9081526040519081900360200190206006015467ffffffffffffffff81111561262d5761262d614a2f565b60405190808252806020026020018201604052801561266057816020015b606081526020019060019003908161264b5790505b50905060005b60058460405161267691906154ba565b9081526040519081900360200190206006015481101561166a5760026005856040516126a291906154ba565b908152602001604051809103902060060182815481106126c4576126c4615510565b906000526020600020016040516126db919061565b565b908152602001604051809103902060010180546126f7906154d6565b80601f0160208091040260200160405190810160405280929190818152602001828054612723906154d6565b80156127705780601f1061274557610100808354040283529160200191612770565b820191906000526020600020905b81548152906001019060200180831161275357829003601f168201915b505050505082828151811061278757612787615510565b6020026020010181905250808061279d9061553c565b915050612666565b80516020818301810180516005825292820191909301209152805481906127cb906154d6565b80601f01602080910402602001604051908101604052809291908181526020018280546127f7906154d6565b80156128445780601f1061281957610100808354040283529160200191612844565b820191906000526020600020905b81548152906001019060200180831161282757829003601f168201915b505050505090806001018054612859906154d6565b80601f0160208091040260200160405190810160405280929190818152602001828054612885906154d6565b80156128d25780601f106128a7576101008083540402835291602001916128d2565b820191906000526020600020905b8154815290600101906020018083116128b557829003601f168201915b5050505050908060020180546128e7906154d6565b80601f0160208091040260200160405190810160405280929190818152602001828054612913906154d6565b80156129605780601f1061293557610100808354040283529160200191612960565b820191906000526020600020905b81548152906001019060200180831161294357829003601f168201915b505050505090806003018054612975906154d6565b80601f01602080910402602001604051908101604052809291908181526020018280546129a1906154d6565b80156129ee5780601f106129c3576101008083540402835291602001916129ee565b820191906000526020600020905b8154815290600101906020018083116129d157829003601f168201915b505050505090806004015490806005018054612a09906154d6565b80601f0160208091040260200160405190810160405280929190818152602001828054612a35906154d6565b8015612a825780601f10612a5757610100808354040283529160200191612a82565b820191906000526020600020905b815481529060010190602001808311612a6557829003601f168201915b5050506008909301549192505060ff1687565b6060600982604051612aa791906154ba565b9081526020016040518091039020805480602002602001604051908101604052809291908181526020016000905b82821015610ce9578382906000526020600020018054612af4906154d6565b80601f0160208091040260200160405190810160405280929190818152602001828054612b20906154d6565b8015612b6d5780601f10612b4257610100808354040283529160200191612b6d565b820191906000526020600020905b815481529060010190602001808311612b5057829003601f168201915b505050505081526020019060010190612ad5565b6008602052816000526040600020818154811061169c57600080fd5b8151602081840181018051600982529282019185019190912091905280548290811061169c57600080fd5b60005b600582604051612bdb91906154ba565b90815260405190819003602001902060090154811015612daa576000600583604051612c0791906154ba565b90815260200160405180910390206009018281548110612c2957612c29615510565b90600052602060002090602091828204019190069054906101000a900460ff166003811115612c5a57612c5a614bdb565b1480612cc857506003600583604051612c7391906154ba565b90815260200160405180910390206009018281548110612c9557612c95615510565b90600052602060002090602091828204019190069054906101000a900460ff166003811115612cc657612cc6614bdb565b145b15612d9857600c80546001810182556000919091527fdf6966c971051c3d54ec59162606531493a51404a002842f56009d7e5cf4a8c701612d09838261559b565b50600582604051612d1a91906154ba565b90815260405160209181900382019020600a018054600181018255600091825291902001612d48848261559b565b50600582604051612d5991906154ba565b9081526040516020918190038201902060090180546001810182556000918252908290209181049091018054601f9092166101000a60ff021990911690555b80612da28161553c565b915050612bcb565b505050565b6040518061016001604052808a81526020018981526020018881526020018781526020018681526020018581526020018481526020018381526020018215158152602001600067ffffffffffffffff811115612e0d57612e0d614a2f565b604051908082528060200260200182016040528015612e36578160200160208202803683370190505b5081526020016000604051908082528060200260200182016040528015612e7157816020015b6060815260200190600190039081612e5c5790505b5081525060058a604051612e8591906154ba565b90815260405190819003602001902081518190612ea2908261559b565b5060208201516001820190612eb7908261559b565b5060408201516002820190612ecc908261559b565b5060608201516003820190612ee1908261559b565b506080820151600482015560a08201516005820190612f00908261559b565b5060c08201518051612f1c9160068401916020909101906148a0565b5060e08201518051612f389160078401916020909101906148f2565b5061010082015160088201805460ff19169115159190911790556101208201518051612f6e91600984019160209091019061492d565b506101408201518051612f8b91600a8401916020909101906148a0565b5090505060005b8351811015613002576004848281518110612faf57612faf615510565b6020026020010151604051612fc491906154ba565b908152604051602091819003820190208054600181018255600091825291902001612fef8b8261559b565b5080612ffa8161553c565b915050612f92565b50505050505050505050565b604080516000808252602082018084528251902090929091613032918591016154ba565b6040516020818303038152906040528051906020012014613054576001613057565b60005b90506040518061016001604052808a6001600160a01b03168152602001898152602001888152602001878152602001868152602001858152602001848152602001600115158152602001826130ad5760006130b0565b60015b151581526020018215158152602001838152506002876040516130d391906154ba565b908152604051602091819003820190208251815473ffffffffffffffffffffffffffffffffffffffff19166001600160a01b0390911617815590820151600182019061311f908261559b565b5060408201516002820190613134908261559b565b5060608201516003820190613149908261559b565b506080820151600482019061315e908261559b565b5060a08201516005820190613173908261559b565b5060c08201516006820190613188908261559b565b5060e08201516007820180546101008086015161012087015161ffff1990931694151561ff00191694909417931515029290921762ff00001916620100009215159290920291909117905561014082015160088201906131e8908261559b565b5090505080156133565760028660405161320291906154ba565b908152602001604051809103902060038760405161322091906154ba565b9081526040519081900360200190208154815473ffffffffffffffffffffffffffffffffffffffff19166001600160a01b0390911617815560018082019061326a908401826156d1565b5060028181019061327d908401826156d1565b50600381810190613290908401826156d1565b506004818101906132a3908401826156d1565b506005818101906132b6908401826156d1565b506006818101906132c9908401826156d1565b5060078281018054918301805460ff938416151560ff19821681178355835461010090819004861615150261ff001990911661ffff19909216919091171780825591546201000090819004909316151590920262ff000019909116179055600880820190613339908401826156d1565b5050600180549150600061334c8361553c565b9190505550613392565b600b80546001810182556000919091527f0175b7a638427703f0dbe7bb9bbf987a2551717b34e79f33b5b1008d1fa01db901613002878261559b565b505050505050505050565b6000805b835181101561342f57826040516020016133bb91906154ba565b604051602081830303815290604052805190602001208482815181106133e3576133e3615510565b60200260200101516040516020016133fb91906154ba565b604051602081830303815290604052805190602001200361341d579050610f40565b806134278161553c565b9150506133a1565b5060009392505050565b600061350c600b805480602002602001604051908101604052809291908181526020016000905b8282101561062257838290600052602060002001805461347f906154d6565b80601f01602080910402602001604051908101604052809291908181526020018280546134ab906154d6565b80156134f85780601f106134cd576101008083540402835291602001916134f8565b820191906000526020600020905b8154815290600101906020018083116134db57829003601f168201915b505050505081526020019060010190613460565b600b805491925090613520906001906157a4565b8154811061353057613530615510565b90600052602060002001600b828154811061354d5761354d615510565b90600052602060002001908161356391906156d1565b50600b805480613575576135756157b7565b60019003818190600052602060002001600061359191906149a2565b90555050565b60006136936005876040516135ac91906154ba565b9081526020016040518091039020600601805480602002602001604051908101604052809291908181526020016000905b828210156136895783829060005260206000200180546135fc906154d6565b80601f0160208091040260200160405190810160405280929190818152602001828054613628906154d6565b80156136755780601f1061364a57610100808354040283529160200191613675565b820191906000526020600020905b81548152906001019060200180831161365857829003601f168201915b5050505050815260200190600101906135dd565b505050508561339d565b90506136a086868361382a565b6136aa8487613c19565b6136b48685613e04565b6136be86866141c7565b6136c88685614372565b6005866040516136d891906154ba565b908152604051908190036020019020600a0154600003613725576136fb866146b0565b60068660405161370b91906154ba565b9081526020016040518091039020600061372591906149df565b600d80546001808201835560008381527fd7b6990105719101dabeb77144f2a3385c8033acd3af97e9423a695e81ad1eb58301929092556040805160a0810182528a815260208101899052908101899052606081018790526080810186905283549093600a9392909161379891906157a4565b815481106137a8576137a8615510565b9060005260206000200154815260200190815260200160002060008201518160000190816137d6919061559b565b50602082015160018201906137eb908261559b565b5060408201516002820190613800908261559b565b5060608201516003820190613815908261559b565b5060808201516004820190613392908261559b565b6000805b60058560405161383e91906154ba565b9081526040519081900360200190206006015481101561398f578360405160200161386991906154ba565b6040516020818303038152906040528051906020012060058660405161388f91906154ba565b908152602001604051809103902060060182815481106138b1576138b1615510565b906000526020600020016040516020016138cb919061565b565b604051602081830303815290604052805190602001200361397d576005856040516138f691906154ba565b9081526020016040518091039020600701838154811061391857613918615510565b906000526020600020015460058660405161393391906154ba565b9081526020016040518091039020600701828154811061395557613955615510565b90600052602060002001600082825461396e91906157cd565b909155506001925061398f9050565b806139878161553c565b91505061382e565b508015613b8d576005846040516139a691906154ba565b908152602001604051809103902060060160016005866040516139c991906154ba565b908152604051908190036020019020600601546139e691906157a4565b815481106139f6576139f6615510565b90600052602060002001600585604051613a1091906154ba565b90815260200160405180910390206006018381548110613a3257613a32615510565b906000526020600020019081613a4891906156d1565b50600584604051613a5991906154ba565b9081526020016040518091039020600601805480613a7957613a796157b7565b600190038181906000526020600020016000613a9591906149a2565b9055600584604051613aa791906154ba565b90815260200160405180910390206007016001600586604051613aca91906154ba565b90815260405190819003602001902060070154613ae791906157a4565b81548110613af757613af7615510565b9060005260206000200154600585604051613b1291906154ba565b90815260200160405180910390206007018381548110613b3457613b34615510565b9060005260206000200181905550600584604051613b5291906154ba565b9081526020016040518091039020600701805480613b7257613b726157b7565b6001900381819060005260206000200160009055905561186a565b82600585604051613b9e91906154ba565b90815260200160405180910390206006018381548110613bc057613bc0615510565b906000526020600020019081613bd6919061559b565b50600483604051613be791906154ba565b908152604051602091819003820190208054600181018255600091825291902001613c12858261559b565b5050505050565b6000613d08600484604051613c2e91906154ba565b9081526020016040518091039020805480602002602001604051908101604052809291908181526020016000905b82821015610622578382906000526020600020018054613c7b906154d6565b80601f0160208091040260200160405190810160405280929190818152602001828054613ca7906154d6565b8015613cf45780601f10613cc957610100808354040283529160200191613cf4565b820191906000526020600020905b815481529060010190602001808311613cd757829003601f168201915b505050505081526020019060010190613c5c565b9050600483604051613d1a91906154ba565b90815260200160405180910390206001600485604051613d3a91906154ba565b90815260405190819003602001902054613d5491906157a4565b81548110613d6457613d64615510565b90600052602060002001600484604051613d7e91906154ba565b90815260200160405180910390208281548110613d9d57613d9d615510565b906000526020600020019081613db391906156d1565b50600483604051613dc491906154ba565b9081526020016040518091039020805480613de157613de16157b7565b600190038181906000526020600020016000613dfd91906149a2565b9055505050565b60005b600683604051613e1791906154ba565b90815260405190819003602001902054811015612daa576000613f2a600585604051613e4391906154ba565b9081526020016040518091039020600a01805480602002602001604051908101604052809291908181526020016000905b82821015613f20578382906000526020600020018054613e93906154d6565b80601f0160208091040260200160405190810160405280929190818152602001828054613ebf906154d6565b8015613f0c5780601f10613ee157610100808354040283529160200191613f0c565b820191906000526020600020905b815481529060010190602001808311613eef57829003601f168201915b505050505081526020019060010190613e74565b505050508461339d565b90506007600685604051613f3e91906154ba565b90815260200160405180910390208381548110613f5d57613f5d615510565b90600052602060002001604051613f74919061565b565b908152602001604051809103902084604051613f9091906154ba565b908152602001604051809103902060016007600687604051613fb291906154ba565b90815260200160405180910390208581548110613fd157613fd1615510565b90600052602060002001604051613fe8919061565b565b90815260200160405180910390208660405161400491906154ba565b9081526040519081900360200190205461401e91906157a4565b8154811061402e5761402e615510565b90600052602060002090602091828204019190069054906101000a900460ff16600760068660405161406091906154ba565b9081526020016040518091039020848154811061407f5761407f615510565b90600052602060002001604051614096919061565b565b9081526020016040518091039020856040516140b291906154ba565b908152602001604051809103902082815481106140d1576140d1615510565b90600052602060002090602091828204019190066101000a81548160ff0219169083600381111561410457614104614bdb565b0217905550600760068560405161411b91906154ba565b9081526020016040518091039020838154811061413a5761413a615510565b90600052602060002001604051614151919061565b565b90815260200160405180910390208460405161416d91906154ba565b908152602001604051809103902080548061418a5761418a6157b7565b6000828152602090819020600019909201908104909101805460ff601f84166101000a0219169055905550806141bf8161553c565b915050613e07565b60006142b66009836040516141dc91906154ba565b9081526020016040518091039020805480602002602001604051908101604052809291908181526020016000905b82821015613f20578382906000526020600020018054614229906154d6565b80601f0160208091040260200160405190810160405280929190818152602001828054614255906154d6565b80156142a25780601f10614277576101008083540402835291602001916142a2565b820191906000526020600020905b81548152906001019060200180831161428557829003601f168201915b50505050508152602001906001019061420a565b90506009826040516142c891906154ba565b908152602001604051809103902060016009846040516142e891906154ba565b9081526040519081900360200190205461430291906157a4565b8154811061431257614312615510565b9060005260206000200160098360405161432c91906154ba565b9081526020016040518091039020828154811061434b5761434b615510565b90600052602060002001908161436191906156d1565b50600982604051613dc491906154ba565b600061446460058460405161438791906154ba565b9081526020016040518091039020600601805480602002602001604051908101604052809291908181526020016000905b828210156106225783829060005260206000200180546143d7906154d6565b80601f0160208091040260200160405190810160405280929190818152602001828054614403906154d6565b80156144505780601f1061442557610100808354040283529160200191614450565b820191906000526020600020905b81548152906001019060200180831161443357829003601f168201915b5050505050815260200190600101906143b8565b905060058360405161447691906154ba565b9081526020016040518091039020600a01600160058560405161449991906154ba565b908152604051908190036020019020600a01546144b691906157a4565b815481106144c6576144c6615510565b906000526020600020016005846040516144e091906154ba565b9081526020016040518091039020600a01828154811061450257614502615510565b90600052602060002001908161451891906156d1565b5060058360405161452991906154ba565b9081526020016040518091039020600a01805480614549576145496157b7565b60019003818190600052602060002001600061456591906149a2565b905560058360405161457791906154ba565b9081526020016040518091039020600901600160058560405161459a91906154ba565b908152604051908190036020019020600901546145b791906157a4565b815481106145c7576145c7615510565b90600052602060002090602091828204019190069054906101000a900460ff166005846040516145f791906154ba565b9081526020016040518091039020600901828154811061461957614619615510565b90600052602060002090602091828204019190066101000a81548160ff0219169083600381111561464c5761464c614bdb565b021790555060058360405161466191906154ba565b9081526020016040518091039020600901805480614681576146816157b7565b60019003818190600052602060002090602091828204019190066101000a81549060ff02191690559055505050565b6000614783600c805480602002602001604051908101604052809291908181526020016000905b828210156106225783829060005260206000200180546146f6906154d6565b80601f0160208091040260200160405190810160405280929190818152602001828054614722906154d6565b801561476f5780601f106147445761010080835404028352916020019161476f565b820191906000526020600020905b81548152906001019060200180831161475257829003601f168201915b5050505050815260200190600101906146d7565b600c805491925090614797906001906157a4565b815481106147a7576147a7615510565b90600052602060002001600c82815481106147c4576147c4615510565b9060005260206000200190816147da91906156d1565b50600c805480613575576135756157b7565b82805482825590600052602060002090601f016020900481019282156148905791602002820160005b8382111561486157835183826101000a81548160ff0219169083600381111561484057614840614bdb565b02179055509260200192600101602081600001049283019260010302614815565b801561488e5782816101000a81549060ff0219169055600101602081600001049283019260010302614861565b505b5061489c9291506149fd565b5090565b8280548282559060005260206000209081019282156148e6579160200282015b828111156148e657825182906148d6908261559b565b50916020019190600101906148c0565b5061489c929150614a12565b828054828255906000526020600020908101928215614890579160200282015b82811115614890578251825591602001919060010190614912565b82805482825590600052602060002090601f016020900481019282156148905791602002820160005b8382111561486157835183826101000a81548160ff0219169083600381111561498157614981614bdb565b02179055509260200192600101602081600001049283019260010302614956565b5080546149ae906154d6565b6000825580601f106149be575050565b601f0160209004906000526020600020908101906149dc91906149fd565b50565b50805460008255906000526020600020908101906149dc9190614a12565b5b8082111561489c57600081556001016149fe565b8082111561489c576000614a2682826149a2565b50600101614a12565b634e487b7160e01b600052604160045260246000fd5b604051601f8201601f1916810167ffffffffffffffff81118282101715614a6e57614a6e614a2f565b604052919050565b600082601f830112614a8757600080fd5b813567ffffffffffffffff811115614aa157614aa1614a2f565b614ab4601f8201601f1916602001614a45565b818152846020838601011115614ac957600080fd5b816020850160208301376000918101602001919091529392505050565b600080600060608486031215614afb57600080fd5b833567ffffffffffffffff80821115614b1357600080fd5b614b1f87838801614a76565b94506020860135915080821115614b3557600080fd5b614b4187838801614a76565b93506040860135915080821115614b5757600080fd5b50614b6486828701614a76565b9150509250925092565b600080600060608486031215614b8357600080fd5b833567ffffffffffffffff80821115614b9b57600080fd5b614ba787838801614a76565b94506020860135915080821115614bbd57600080fd5b50614bca86828701614a76565b925050604084013590509250925092565b634e487b7160e01b600052602160045260246000fd5b6020810160048310614c1357634e487b7160e01b600052602160045260246000fd5b91905290565b600060208284031215614c2b57600080fd5b5035919050565b60005b83811015614c4d578181015183820152602001614c35565b50506000910152565b60008151808452614c6e816020860160208601614c32565b601f01601f19169290920160200192915050565b602081526000614c956020830184614c56565b9392505050565b600060208284031215614cae57600080fd5b813567ffffffffffffffff811115614cc557600080fd5b614cd184828501614a76565b949350505050565b6001600160a01b038c1681526000610160806020840152614cfc8184018e614c56565b90508281036040840152614d10818d614c56565b90508281036060840152614d24818c614c56565b90508281036080840152614d38818b614c56565b905082810360a0840152614d4c818a614c56565b905082810360c0840152614d608189614c56565b87151560e08501529050851515610100840152841515610120840152828103610140840152614d8f8185614c56565b9e9d5050505050505050505050505050565b600082825180855260208086019550808260051b84010181860160005b84811015614dec57601f19868403018952614dda838351614c56565b98840198925090830190600101614dbe565b5090979650505050505050565b602081526000614c956020830184614da1565b60008060408385031215614e1f57600080fd5b823567ffffffffffffffff80821115614e3757600080fd5b614e4386838701614a76565b93506020850135915080821115614e5957600080fd5b50614e6685828601614a76565b9150509250929050565b6020808252825182820181905260009190848201906040850190845b81811015614ea857835183529284019291840191600101614e8c565b50909695505050505050565b80358015158114614ec457600080fd5b919050565b60008060008060008060c08789031215614ee257600080fd5b863567ffffffffffffffff80821115614efa57600080fd5b614f068a838b01614a76565b97506020890135915080821115614f1c57600080fd5b614f288a838b01614a76565b96506040890135915080821115614f3e57600080fd5b614f4a8a838b01614a76565b9550614f5860608a01614eb4565b94506080890135915080821115614f6e57600080fd5b614f7a8a838b01614a76565b935060a0890135915080821115614f9057600080fd5b50614f9d89828a01614a76565b9150509295509295509295565b60008060408385031215614fbd57600080fd5b823567ffffffffffffffff811115614fd457600080fd5b614fe085828601614a76565b95602094909401359450505050565b60a08152600061500260a0830188614c56565b82810360208401526150148188614c56565b905082810360408401526150288187614c56565b9050828103606084015261503c8186614c56565b905082810360808401526150508185614c56565b98975050505050505050565b60408152600061506f6040830185614da1565b82810360208401526150818185614da1565b95945050505050565b60e08152600061509d60e083018a614c56565b82810360208401526150af818a614c56565b905082810360408401526150c38189614c56565b905082810360608401526150d78188614c56565b905085608084015282810360a08401526150f18186614c56565b91505082151560c083015298975050505050505050565b6000806040838503121561511b57600080fd5b61512483614eb4565b946020939093013593505050565b600067ffffffffffffffff82111561514c5761514c614a2f565b5060051b60200190565b600082601f83011261516757600080fd5b8135602061517c61517783615132565b614a45565b82815260059290921b8401810191818101908684111561519b57600080fd5b8286015b848110156151db57803567ffffffffffffffff8111156151bf5760008081fd5b6151cd8986838b0101614a76565b84525091830191830161519f565b509695505050505050565b600082601f8301126151f757600080fd5b8135602061520761517783615132565b82815260059290921b8401810191818101908684111561522657600080fd5b8286015b848110156151db578035835291830191830161522a565b60008060008060008060008060006101208a8c03121561526057600080fd5b893567ffffffffffffffff8082111561527857600080fd5b6152848d838e01614a76565b9a5060208c013591508082111561529a57600080fd5b6152a68d838e01614a76565b995060408c01359150808211156152bc57600080fd5b6152c88d838e01614a76565b985060608c01359150808211156152de57600080fd5b6152ea8d838e01614a76565b975060808c0135965060a08c013591508082111561530757600080fd5b6153138d838e01614a76565b955060c08c013591508082111561532957600080fd5b6153358d838e01615156565b945060e08c013591508082111561534b57600080fd5b506153588c828d016151e6565b9250506153686101008b01614eb4565b90509295985092959850929598565b80356001600160a01b0381168114614ec457600080fd5b600080600080600080600080610100898b0312156153ab57600080fd5b6153b489615377565b9750602089013567ffffffffffffffff808211156153d157600080fd5b6153dd8c838d01614a76565b985060408b01359150808211156153f357600080fd5b6153ff8c838d01614a76565b975060608b013591508082111561541557600080fd5b6154218c838d01614a76565b965060808b013591508082111561543757600080fd5b6154438c838d01614a76565b955060a08b013591508082111561545957600080fd5b6154658c838d01614a76565b945060c08b013591508082111561547b57600080fd5b6154878c838d01614a76565b935060e08b013591508082111561549d57600080fd5b506154aa8b828c01614a76565b9150509295985092959890939650565b600082516154cc818460208701614c32565b9190910192915050565b600181811c908216806154ea57607f821691505b60208210810361550a57634e487b7160e01b600052602260045260246000fd5b50919050565b634e487b7160e01b600052603260045260246000fd5b634e487b7160e01b600052601160045260246000fd5b60006001820161554e5761554e615526565b5060010190565b601f821115612daa57600081815260208120601f850160051c8101602086101561557c5750805b601f850160051c820191505b8181101561139557828155600101615588565b815167ffffffffffffffff8111156155b5576155b5614a2f565b6155c9816155c384546154d6565b84615555565b602080601f8311600181146155fe57600084156155e65750858301515b600019600386901b1c1916600185901b178555611395565b600085815260208120601f198616915b8281101561562d5788860151825594840194600190910190840161560e565b508582101561564b5787850151600019600388901b60f8161c191681555b5050505050600190811b01905550565b6000808354615669816154d6565b600182811680156156815760018114615696576156c5565b60ff19841687528215158302870194506156c5565b8760005260208060002060005b858110156156bc5781548a8201529084019082016156a3565b50505082870194505b50929695505050505050565b8181036156dc575050565b6156e682546154d6565b67ffffffffffffffff8111156156fe576156fe614a2f565b61570c816155c384546154d6565b6000601f82116001811461574057600083156157285750848201545b600019600385901b1c1916600184901b178455613c12565b600085815260209020601f19841690600086815260209020845b8381101561577a578286015482556001958601959091019060200161575a565b508583101561564b5793015460001960f8600387901b161c19169092555050600190811b01905550565b81810381811115610f4057610f40615526565b634e487b7160e01b600052603160045260246000fd5b80820180821115610f4057610f4061552656fea26469706673582212209d55955aad6f1415c270165fe176e3fdb39230d510525c03af571caead4a2cf164736f6c63430008130033",
  "immutableReferences": {},
  "source": "// SPDX-License-Identifier: GPL-3.0\r\npragma solidity >=0.8.1 <0.9.0;\r\n\r\ncontract Land {\r\n\r\n    address owner;\r\n    uint countOfGovtOfficials;\r\n    \r\n    struct User {\r\n        address account;\r\n        string name;\r\n        string email;\r\n        string aadhaar;\r\n        string pan;\r\n        string image;\r\n        string phoneno;\r\n        bool registered;\r\n        bool isMember;\r\n        bool isOfficial;\r\n        string govtId;\r\n    }\r\n    \r\n    enum ChangeStatus {\r\n        None,\r\n        Pending,\r\n        Accepted, \r\n        Rejected\r\n    }\r\n    \r\n    enum RequestStatus {\r\n        Pending,\r\n        Accepted,\r\n        Rejected,\r\n        Sell\r\n    }\r\n    \r\n    struct LandDetails {\r\n        string id;\r\n        string landAddress;\r\n        string registeredBy;\r\n        string registrationTime;\r\n        uint price;\r\n        string ipfsHash;\r\n        string[] ownerAadhaar;\r\n        uint[] share;\r\n        bool jointOwnership;\r\n        ChangeStatus[] status;\r\n        string[] saleBy;\r\n    }\r\n    \r\n    struct changeDetails {\r\n        string id;\r\n        string oldAadhaar;\r\n        string newAadhaar;\r\n        string time;\r\n        string approvedBy;\r\n    }\r\n    \r\n    mapping(string => User) public Users;\r\n    mapping(string => User) public GovtOfficial;\r\n    mapping(string => string[]) public UserAssets;\r\n    mapping(string => LandDetails) public Lands;\r\n    mapping(string => string[]) public InterestedBuyers;\r\n    mapping(string => mapping(string => RequestStatus[])) public LandRequestAccess;\r\n    mapping(bool => string[]) public checkMembership;\r\n    mapping(string => string[]) public requestedLands;\r\n    mapping(uint => changeDetails) public changeMap;\r\n    \r\n    string[] public UsersRegistered;\r\n    string[] public LandsforSale;\r\n    uint[] public change;\r\n    \r\n    constructor() {\r\n        owner = msg.sender;\r\n    }\r\n    \r\n    function findIndex(string[] memory array, string memory value) private pure returns (uint) {\r\n        for (uint i = 0; i < array.length; i++) {\r\n            if (keccak256(abi.encodePacked(array[i])) == keccak256(abi.encodePacked(value))) {\r\n                return i;\r\n            }\r\n        }\r\n        return 0;\r\n    }\r\n\r\n    function getLandOwners(string memory _id) public view returns(string[] memory) {\r\n        return Lands[_id].ownerAadhaar;\r\n    }\r\n    \r\n    function getShares(string memory _id) public view returns (uint[] memory) {\r\n        return Lands[_id].share;\r\n    }\r\n    \r\n    function getStatus(string memory _id) public view returns (string[] memory) {\r\n        string[] memory statusList = new string[](Lands[_id].status.length);\r\n        for (uint i = 0; i < Lands[_id].status.length; i++) {\r\n            statusList[i] = (Lands[_id].status[i] == ChangeStatus.None ? \"None\" : (Lands[_id].status[i] == ChangeStatus.Pending ? \"Pending\" : (Lands[_id].status[i] == ChangeStatus.Accepted ? \"Accepted\" : \"Rejected\")));\r\n        }\r\n        return statusList;\r\n    }\r\n\r\n    function getOwnerNames(string memory _id) public view returns (string[] memory) {\r\n        string[] memory names = new string[](Lands[_id].ownerAadhaar.length);\r\n        for (uint i = 0; i < Lands[_id].ownerAadhaar.length; i++) {\r\n            names[i] = Users[Lands[_id].ownerAadhaar[i]].name;\r\n        }\r\n        return names;\r\n    }\r\n\r\n    function getSellerNames(string memory _id) public view returns (string[] memory) {\r\n        string[] memory names = new string[](Lands[_id].saleBy.length);\r\n        for (uint i = 0; i < Lands[_id].saleBy.length; i++) {\r\n            names[i] = Users[Lands[_id].saleBy[i]].name;\r\n        }\r\n        return names;\r\n    }\r\n\r\n    function getSellerEmail(string memory _id) public view returns (string[] memory) {\r\n        string[] memory emails = new string[](Lands[_id].ownerAadhaar.length);\r\n        for (uint i = 0; i < Lands[_id].ownerAadhaar.length; i++) {\r\n            emails[i] = Users[Lands[_id].ownerAadhaar[i]].name;\r\n        }\r\n        return emails;\r\n    }\r\n    \r\n    function getSaleBy(string memory _id) public view returns (string[] memory) {\r\n        return Lands[_id].saleBy;\r\n    }\r\n    \r\n    function registerUser(address _account, string memory _name, string memory _email, string memory _aadhaar, string memory _pan, string memory _image, string memory _phoneno, string memory _govtId) public {\r\n        bool isofficial = keccak256(abi.encodePacked(_govtId)) == keccak256(abi.encodePacked('')) ? false : true;\r\n        Users[_aadhaar] = User(_account, _name, _email, _aadhaar, _pan, _image, _phoneno, true, (isofficial ? true : false), isofficial, _govtId);\r\n        if (isofficial) {\r\n            GovtOfficial[_aadhaar] = Users[_aadhaar];\r\n            countOfGovtOfficials++;\r\n        }\r\n        else {\r\n            UsersRegistered.push(_aadhaar);\r\n        }\r\n    }\r\n    \r\n    function removeFromRegistered(string memory _aadhaar) private {\r\n        uint i = findIndex(UsersRegistered, _aadhaar);\r\n        UsersRegistered[i] = UsersRegistered[UsersRegistered.length - 1];\r\n        UsersRegistered.pop();\r\n    }\r\n    \r\n    function addUser(string memory _aadhaar) public {\r\n        removeFromRegistered(_aadhaar);\r\n        Users[_aadhaar].isMember = true;\r\n    }\r\n    \r\n    function getRegisteredUsers() public view returns (string[] memory) {\r\n        return UsersRegistered;\r\n    }\r\n    \r\n    function registerLand(string memory _id, string memory _landAddress, string memory _registeredBy, string memory _registrationTime, uint _price, string memory _ipfsHash, string[] memory _ownerAadhaar, uint[] memory _share, bool _jointOwnerShip) public {\r\n        Lands[_id] = LandDetails(_id, _landAddress, _registeredBy, _registrationTime, _price, _ipfsHash, _ownerAadhaar, _share, _jointOwnerShip, new ChangeStatus[](0), new string[](0));\r\n        for (uint i = 0; i < _ownerAadhaar.length; i++) {\r\n            UserAssets[_ownerAadhaar[i]].push(_id);\r\n        }\r\n    }\r\n    \r\n    function auctionLand(string memory _aadhaar, string memory _id) public {\r\n        for (uint i = 0; i < Lands[_id].status.length; i++) {\r\n            if (Lands[_id].status[i] == ChangeStatus.None || Lands[_id].status[i] == ChangeStatus.Rejected) {\r\n                LandsforSale.push(_id);\r\n                Lands[_id].saleBy.push(_aadhaar);\r\n                Lands[_id].status.push(ChangeStatus.None);\r\n            }\r\n        }\r\n    }\r\n    \r\n    function getAllLandsforSale() public view returns (string[] memory) {\r\n        return LandsforSale;\r\n    }\r\n    \r\n    function getUserAssets(string memory _aadhaar) public view returns (string[] memory) {\r\n        return UserAssets[_aadhaar];\r\n    }\r\n    \r\n    function requestLandDetails(string memory _id, string memory _aadhaar) public {\r\n        RequestStatus[] memory access = new RequestStatus[](Lands[_id].saleBy.length);\r\n        for (uint i = 0; i < Lands[_id].saleBy.length; i++) {\r\n            access[i] = RequestStatus.Pending;\r\n        }\r\n        LandRequestAccess[_aadhaar][_id] = access;\r\n        requestedLands[_aadhaar].push(_id);\r\n        InterestedBuyers[_id].push(_aadhaar);\r\n    }\r\n    \r\n    function getLandRequestAccess(string memory _id, string memory _aadhaar) public view returns (string[] memory) {\r\n        string[] memory access = new string[](Lands[_id].saleBy.length);\r\n        for (uint i = 0; i < LandRequestAccess[_aadhaar][_id].length; i++) {\r\n            RequestStatus x = LandRequestAccess[_aadhaar][_id][i];\r\n            access[i] = (x == RequestStatus.Pending ? \"Pending\" : (x == RequestStatus.Accepted ? \"Accepted\" : (x == RequestStatus.Rejected ? \"Pending\" : \"Sell\")));\r\n        }\r\n        return access;\r\n    }\r\n    \r\n    function getRequestedLands(string memory _aadhaar) public view returns (string[] memory) {\r\n        return requestedLands[_aadhaar];\r\n    }\r\n    \r\n    function sellLand(string memory _id, string memory _aadhaar, string memory _seller) public {\r\n        uint i = findIndex(Lands[_id].saleBy, _seller);\r\n        LandRequestAccess[_aadhaar][_id][i] = RequestStatus.Sell;\r\n    }\r\n    \r\n    function interested(string memory _id) public view returns (string[] memory, string[] memory) {\r\n        string[] memory usersNames = new string[](InterestedBuyers[_id].length);\r\n        string[] memory usersAadhaar = new string[](InterestedBuyers[_id].length);\r\n        for (uint i = 0; i < InterestedBuyers[_id].length; i++) {\r\n            usersNames[i] = Users[InterestedBuyers[_id][i]].name;\r\n            usersAadhaar[i] = InterestedBuyers[_id][i];\r\n        }\r\n        return (usersNames, usersAadhaar);\r\n    }\r\n    \r\n    function requestApprove(string memory _aadhaar, string memory _id, string memory _seller) public {\r\n        uint i = findIndex(Lands[_id].saleBy, _seller);\r\n        LandRequestAccess[_aadhaar][_id][i] = RequestStatus.Accepted;\r\n    }\r\n    \r\n    function requestReject(string memory _aadhaar, string memory _id, string memory _seller) public {\r\n        uint i = findIndex(Lands[_id].saleBy, _seller);\r\n        LandRequestAccess[_aadhaar][_id][i] = RequestStatus.Rejected;\r\n    }\r\n    \r\n    function removeAsset(string memory _aadhaar, string memory _id) private {\r\n        uint i = findIndex(UserAssets[_aadhaar], _id);\r\n        UserAssets[_aadhaar][i] = UserAssets[_aadhaar][UserAssets[_aadhaar].length - 1];\r\n        UserAssets[_aadhaar].pop();\r\n    }\r\n    \r\n    function removeRequestAccess(string memory _id, string memory _seller) private {\r\n        for (uint i = 0; i < InterestedBuyers[_id].length; i++) {\r\n            uint j = findIndex(Lands[_id].saleBy, _seller);\r\n            LandRequestAccess[InterestedBuyers[_id][i]][_id][j] = LandRequestAccess[InterestedBuyers[_id][i]][_id][LandRequestAccess[InterestedBuyers[_id][i]][_id].length - 1];\r\n            LandRequestAccess[InterestedBuyers[_id][i]][_id].pop();\r\n        }\r\n    }\r\n    \r\n    function changeInLandDetails(string memory _id, string memory _aadhaar) private {\r\n        uint i = findIndex(Lands[_id].ownerAadhaar, _aadhaar);\r\n        Lands[_id].saleBy[i] = Lands[_id].saleBy[Lands[_id].saleBy.length - 1];\r\n        Lands[_id].saleBy.pop();\r\n        Lands[_id].status[i] = Lands[_id].status[Lands[_id].status.length - 1];\r\n        Lands[_id].status.pop();\r\n    }\r\n    \r\n    function check(string memory _id, string memory _aadhaar, uint i) private {\r\n        bool exist = false;\r\n        for (uint j = 0; j < Lands[_id].ownerAadhaar.length; j++) {\r\n            if (keccak256(abi.encodePacked(Lands[_id].ownerAadhaar[j])) == keccak256(abi.encodePacked(_aadhaar))) {\r\n                Lands[_id].share[j] += Lands[_id].share[i];\r\n                exist = true;\r\n                break;\r\n            }\r\n        }\r\n        if (exist) {\r\n            Lands[_id].ownerAadhaar[i] = Lands[_id].ownerAadhaar[Lands[_id].ownerAadhaar.length - 1];\r\n            Lands[_id].ownerAadhaar.pop();\r\n            Lands[_id].share[i] = Lands[_id].share[Lands[_id].share.length - 1];\r\n            Lands[_id].share.pop();\r\n        }\r\n        else {\r\n            Lands[_id].ownerAadhaar[i] = _aadhaar;\r\n            UserAssets[_aadhaar].push(_id);\r\n        }\r\n    }\r\n    \r\n    function removeFromLandForSale(string memory _id) private {\r\n        uint i = findIndex(LandsforSale, _id);\r\n        LandsforSale[i] = LandsforSale[LandsforSale.length - 1];\r\n        LandsforSale.pop();\r\n    }\r\n    \r\n    function removeFromRequestedLands(string memory _id, string memory _aadhaar) private {\r\n        uint i = findIndex(requestedLands[_aadhaar], _id);\r\n        requestedLands[_aadhaar][i] = requestedLands[_aadhaar][requestedLands[_aadhaar].length - 1];\r\n        requestedLands[_aadhaar].pop();\r\n    }\r\n    \r\n    function transfer(string memory _id, string memory _newAadhaar, string memory _oldAadhaar, bool _status, string memory _time, string memory approver) public {\r\n        if (_status == true) {\r\n            changeOwnership(_id, _newAadhaar, _oldAadhaar, _time, approver);\r\n        }\r\n        else {\r\n            uint i = findIndex(Lands[_id].saleBy, _oldAadhaar);\r\n            Lands[_id].status[i] = ChangeStatus.Rejected;\r\n        }\r\n    }\r\n    \r\n    function changeOwnership(string memory _id, string memory _newAadhaar, string memory _oldAadhaar, string memory _time, string memory _approver) private {\r\n        uint i = findIndex(Lands[_id].ownerAadhaar, _oldAadhaar);\r\n        check(_id, _newAadhaar, i);\r\n        removeAsset(_oldAadhaar, _id);\r\n        removeRequestAccess(_id, _oldAadhaar);\r\n        removeFromRequestedLands(_id, _newAadhaar);\r\n        changeInLandDetails(_id, _oldAadhaar);\r\n        if (Lands[_id].saleBy.length == 0) {\r\n            removeFromLandForSale(_id);\r\n            delete InterestedBuyers[_id];\r\n        }\r\n        change.push(change.length);\r\n        changeMap[change[change.length - 1]] = changeDetails(_id, _oldAadhaar, _newAadhaar, _time, _approver);\r\n    }\r\n}",
  "sourcePath": "D:\\Programs\\Blockchain\\freeCodeCamp\\Ethereum_based_Land_Management_System\\contracts\\Land.sol",
  "compiler": {
    "name": "solc",
    "version": "0.8.19+commit.7dd6d404.Emscripten.clang"
  },
  "schemaVersion": "3.4.13",
  "updatedAt": "2023-04-21T07:13:56.969Z",
  "devdoc": {
    "kind": "dev",
    "methods": {},
    "version": 1
  },
  "userdoc": {
    "kind": "user",
    "methods": {},
    "version": 1
  }
}